{
	"contracts/escrow.sol": {
		"escrow": {
			"abi": [
				{
					"inputs": [
						{
							"internalType": "address payable",
							"name": "_seller",
							"type": "address"
						},
						{
							"internalType": "address payable",
							"name": "_buyer",
							"type": "address"
						},
						{
							"internalType": "uint256",
							"name": "_securityDeposit",
							"type": "uint256"
						},
						{
							"internalType": "uint256",
							"name": "_sellerPreAgreementAmount",
							"type": "uint256"
						},
						{
							"internalType": "uint256",
							"name": "_buyerPreAgreementAmount",
							"type": "uint256"
						},
						{
							"internalType": "uint256",
							"name": "_endDate",
							"type": "uint256"
						},
						{
							"internalType": "uint256",
							"name": "_daysForWithdrawal",
							"type": "uint256"
						},
						{
							"internalType": "address",
							"name": "_feeaddress",
							"type": "address"
						}
					],
					"stateMutability": "nonpayable",
					"type": "constructor"
				},
				{
					"anonymous": false,
					"inputs": [
						{
							"indexed": true,
							"internalType": "address",
							"name": "contractAddress",
							"type": "address"
						},
						{
							"indexed": true,
							"internalType": "address",
							"name": "from",
							"type": "address"
						},
						{
							"indexed": false,
							"internalType": "uint256",
							"name": "amount",
							"type": "uint256"
						}
					],
					"name": "Deposit",
					"type": "event"
				},
				{
					"anonymous": false,
					"inputs": [
						{
							"indexed": true,
							"internalType": "address",
							"name": "depositor",
							"type": "address"
						},
						{
							"indexed": false,
							"internalType": "uint256",
							"name": "amount",
							"type": "uint256"
						}
					],
					"name": "FundsDeposited",
					"type": "event"
				},
				{
					"stateMutability": "payable",
					"type": "fallback"
				},
				{
					"inputs": [],
					"name": "buyerBalance",
					"outputs": [
						{
							"internalType": "uint256",
							"name": "",
							"type": "uint256"
						}
					],
					"stateMutability": "view",
					"type": "function"
				},
				{
					"inputs": [],
					"name": "buyerPreAgreementAmount",
					"outputs": [
						{
							"internalType": "uint256",
							"name": "",
							"type": "uint256"
						}
					],
					"stateMutability": "view",
					"type": "function"
				},
				{
					"inputs": [],
					"name": "contractBalance",
					"outputs": [
						{
							"internalType": "uint256",
							"name": "",
							"type": "uint256"
						}
					],
					"stateMutability": "view",
					"type": "function"
				},
				{
					"inputs": [],
					"name": "daysForWithdrawal",
					"outputs": [
						{
							"internalType": "uint256",
							"name": "",
							"type": "uint256"
						}
					],
					"stateMutability": "view",
					"type": "function"
				},
				{
					"inputs": [
						{
							"internalType": "address",
							"name": "_user",
							"type": "address"
						}
					],
					"name": "deposit",
					"outputs": [],
					"stateMutability": "payable",
					"type": "function"
				},
				{
					"inputs": [],
					"name": "endDate",
					"outputs": [
						{
							"internalType": "uint256",
							"name": "",
							"type": "uint256"
						}
					],
					"stateMutability": "view",
					"type": "function"
				},
				{
					"inputs": [],
					"name": "returnBuyer",
					"outputs": [
						{
							"internalType": "address",
							"name": "",
							"type": "address"
						}
					],
					"stateMutability": "view",
					"type": "function"
				},
				{
					"inputs": [],
					"name": "returnBuyerBalance",
					"outputs": [
						{
							"internalType": "uint256",
							"name": "",
							"type": "uint256"
						}
					],
					"stateMutability": "view",
					"type": "function"
				},
				{
					"inputs": [],
					"name": "returnBuyerPreAgreementAmount",
					"outputs": [
						{
							"internalType": "uint256",
							"name": "",
							"type": "uint256"
						}
					],
					"stateMutability": "view",
					"type": "function"
				},
				{
					"inputs": [],
					"name": "returnDaysForWithdrawal",
					"outputs": [
						{
							"internalType": "uint256",
							"name": "",
							"type": "uint256"
						}
					],
					"stateMutability": "view",
					"type": "function"
				},
				{
					"inputs": [],
					"name": "returnEndDate",
					"outputs": [
						{
							"internalType": "uint256",
							"name": "",
							"type": "uint256"
						}
					],
					"stateMutability": "view",
					"type": "function"
				},
				{
					"inputs": [],
					"name": "returnSecurityDeposit",
					"outputs": [
						{
							"internalType": "uint256",
							"name": "",
							"type": "uint256"
						}
					],
					"stateMutability": "view",
					"type": "function"
				},
				{
					"inputs": [],
					"name": "returnSeller",
					"outputs": [
						{
							"internalType": "address",
							"name": "",
							"type": "address"
						}
					],
					"stateMutability": "view",
					"type": "function"
				},
				{
					"inputs": [],
					"name": "returnSellerBalance",
					"outputs": [
						{
							"internalType": "uint256",
							"name": "",
							"type": "uint256"
						}
					],
					"stateMutability": "view",
					"type": "function"
				},
				{
					"inputs": [],
					"name": "returnSellerPreAgreementAmount",
					"outputs": [
						{
							"internalType": "uint256",
							"name": "",
							"type": "uint256"
						}
					],
					"stateMutability": "view",
					"type": "function"
				},
				{
					"inputs": [],
					"name": "securityDeposit",
					"outputs": [
						{
							"internalType": "uint256",
							"name": "",
							"type": "uint256"
						}
					],
					"stateMutability": "view",
					"type": "function"
				},
				{
					"inputs": [],
					"name": "sellerBalance",
					"outputs": [
						{
							"internalType": "uint256",
							"name": "",
							"type": "uint256"
						}
					],
					"stateMutability": "view",
					"type": "function"
				},
				{
					"inputs": [],
					"name": "sellerPreAgreementAmount",
					"outputs": [
						{
							"internalType": "uint256",
							"name": "",
							"type": "uint256"
						}
					],
					"stateMutability": "view",
					"type": "function"
				},
				{
					"inputs": [
						{
							"internalType": "address",
							"name": "_user",
							"type": "address"
						}
					],
					"name": "withdraw",
					"outputs": [],
					"stateMutability": "payable",
					"type": "function"
				},
				{
					"stateMutability": "payable",
					"type": "receive"
				}
			],
			"devdoc": {
				"kind": "dev",
				"methods": {},
				"version": 1
			},
			"evm": {
				"assembly": "    /* \"contracts/escrow.sol\":206:5874  contract escrow is ReentrancyGuard {... */\n  mstore(0x40, 0x80)\n    /* \"contracts/escrow.sol\":1370:1971  constructor(address payable _seller, address payable _buyer, uint256 _securityDeposit, uint256 _sellerPreAgreementAmount, uint256 _buyerPreAgreementAmount, uint256 _endDate, uint256 _daysForWithdrawal, address _feeaddress)  {... */\n  callvalue\n  dup1\n  iszero\n  tag_1\n  jumpi\n  0x00\n  dup1\n  revert\ntag_1:\n  pop\n  mload(0x40)\n  sub(codesize, bytecodeSize)\n  dup1\n  bytecodeSize\n  dup4\n  codecopy\n  dup2\n  dup2\n  add\n  0x40\n  mstore\n  dup2\n  add\n  swap1\n  tag_2\n  swap2\n  swap1\n  tag_3\n  jump\t// in\ntag_2:\n    /* \"@openzeppelin/contracts/security/ReentrancyGuard.sol\":1716:1717  1 */\n  0x01\n    /* \"@openzeppelin/contracts/security/ReentrancyGuard.sol\":1821:1828  _status */\n  0x00\n    /* \"@openzeppelin/contracts/security/ReentrancyGuard.sol\":1821:1843  _status = _NOT_ENTERED */\n  dup2\n  swap1\n  sstore\n  pop\n    /* \"contracts/escrow.sol\":1614:1621  _seller */\n  dup8\n    /* \"contracts/escrow.sol\":1605:1611  seller */\n  0x01\n  0x00\n    /* \"contracts/escrow.sol\":1605:1621  seller = _seller */\n  0x0100\n  exp\n  dup2\n  sload\n  dup2\n  0xffffffffffffffffffffffffffffffffffffffff\n  mul\n  not\n  and\n  swap1\n  dup4\n  0xffffffffffffffffffffffffffffffffffffffff\n  and\n  mul\n  or\n  swap1\n  sstore\n  pop\n    /* \"contracts/escrow.sol\":1640:1646  _buyer */\n  dup7\n    /* \"contracts/escrow.sol\":1632:1637  buyer */\n  0x02\n  0x00\n    /* \"contracts/escrow.sol\":1632:1646  buyer = _buyer */\n  0x0100\n  exp\n  dup2\n  sload\n  dup2\n  0xffffffffffffffffffffffffffffffffffffffff\n  mul\n  not\n  and\n  swap1\n  dup4\n  0xffffffffffffffffffffffffffffffffffffffff\n  and\n  mul\n  or\n  swap1\n  sstore\n  pop\n    /* \"contracts/escrow.sol\":1675:1691  _securityDeposit */\n  dup6\n    /* \"contracts/escrow.sol\":1657:1672  securityDeposit */\n  0x07\n    /* \"contracts/escrow.sol\":1657:1691  securityDeposit = _securityDeposit */\n  dup2\n  swap1\n  sstore\n  pop\n    /* \"contracts/escrow.sol\":1729:1754  _sellerPreAgreementAmount */\n  dup5\n    /* \"contracts/escrow.sol\":1702:1726  sellerPreAgreementAmount */\n  0x08\n    /* \"contracts/escrow.sol\":1702:1754  sellerPreAgreementAmount = _sellerPreAgreementAmount */\n  dup2\n  swap1\n  sstore\n  pop\n    /* \"contracts/escrow.sol\":1791:1815  _buyerPreAgreementAmount */\n  dup4\n    /* \"contracts/escrow.sol\":1765:1788  buyerPreAgreementAmount */\n  0x09\n    /* \"contracts/escrow.sol\":1765:1815  buyerPreAgreementAmount = _buyerPreAgreementAmount */\n  dup2\n  swap1\n  sstore\n  pop\n    /* \"contracts/escrow.sol\":1836:1844  _endDate */\n  dup3\n    /* \"contracts/escrow.sol\":1826:1833  endDate */\n  0x0a\n    /* \"contracts/escrow.sol\":1826:1844  endDate = _endDate */\n  dup2\n  swap1\n  sstore\n  pop\n    /* \"contracts/escrow.sol\":1875:1893  _daysForWithdrawal */\n  dup2\n    /* \"contracts/escrow.sol\":1855:1872  daysForWithdrawal */\n  0x0b\n    /* \"contracts/escrow.sol\":1855:1893  daysForWithdrawal = _daysForWithdrawal */\n  dup2\n  swap1\n  sstore\n  pop\n    /* \"contracts/escrow.sol\":1918:1919  1 */\n  0x01\n    /* \"contracts/escrow.sol\":1904:1915  transferFee */\n  0x0c\n    /* \"contracts/escrow.sol\":1904:1919  transferFee = 1 */\n  dup2\n  swap1\n  sstore\n  pop\n    /* \"contracts/escrow.sol\":1951:1962  _feeaddress */\n  dup1\n    /* \"contracts/escrow.sol\":1930:1940  feeAddress */\n  0x03\n  0x00\n    /* \"contracts/escrow.sol\":1930:1963  feeAddress = payable(_feeaddress) */\n  0x0100\n  exp\n  dup2\n  sload\n  dup2\n  0xffffffffffffffffffffffffffffffffffffffff\n  mul\n  not\n  and\n  swap1\n  dup4\n  0xffffffffffffffffffffffffffffffffffffffff\n  and\n  mul\n  or\n  swap1\n  sstore\n  pop\n    /* \"contracts/escrow.sol\":1370:1971  constructor(address payable _seller, address payable _buyer, uint256 _securityDeposit, uint256 _sellerPreAgreementAmount, uint256 _buyerPreAgreementAmount, uint256 _endDate, uint256 _daysForWithdrawal, address _feeaddress)  {... */\n  pop\n  pop\n  pop\n  pop\n  pop\n  pop\n  pop\n  pop\n    /* \"contracts/escrow.sol\":206:5874  contract escrow is ReentrancyGuard {... */\n  jump(tag_8)\n    /* \"#utility.yul\":88:205   */\ntag_10:\n    /* \"#utility.yul\":197:198   */\n  0x00\n    /* \"#utility.yul\":194:195   */\n  dup1\n    /* \"#utility.yul\":187:199   */\n  revert\n    /* \"#utility.yul\":334:460   */\ntag_12:\n    /* \"#utility.yul\":371:378   */\n  0x00\n    /* \"#utility.yul\":411:453   */\n  0xffffffffffffffffffffffffffffffffffffffff\n    /* \"#utility.yul\":404:409   */\n  dup3\n    /* \"#utility.yul\":400:454   */\n  and\n    /* \"#utility.yul\":389:454   */\n  swap1\n  pop\n    /* \"#utility.yul\":334:460   */\n  swap2\n  swap1\n  pop\n  jump\t// out\n    /* \"#utility.yul\":466:570   */\ntag_13:\n    /* \"#utility.yul\":511:518   */\n  0x00\n    /* \"#utility.yul\":540:564   */\n  tag_28\n    /* \"#utility.yul\":558:563   */\n  dup3\n    /* \"#utility.yul\":540:564   */\n  tag_12\n  jump\t// in\ntag_28:\n    /* \"#utility.yul\":529:564   */\n  swap1\n  pop\n    /* \"#utility.yul\":466:570   */\n  swap2\n  swap1\n  pop\n  jump\t// out\n    /* \"#utility.yul\":576:714   */\ntag_14:\n    /* \"#utility.yul\":657:689   */\n  tag_30\n    /* \"#utility.yul\":683:688   */\n  dup2\n    /* \"#utility.yul\":657:689   */\n  tag_13\n  jump\t// in\ntag_30:\n    /* \"#utility.yul\":650:655   */\n  dup2\n    /* \"#utility.yul\":647:690   */\n  eq\n    /* \"#utility.yul\":637:708   */\n  tag_31\n  jumpi\n    /* \"#utility.yul\":704:705   */\n  0x00\n    /* \"#utility.yul\":701:702   */\n  dup1\n    /* \"#utility.yul\":694:706   */\n  revert\n    /* \"#utility.yul\":637:708   */\ntag_31:\n    /* \"#utility.yul\":576:714   */\n  pop\n  jump\t// out\n    /* \"#utility.yul\":720:879   */\ntag_15:\n    /* \"#utility.yul\":785:790   */\n  0x00\n    /* \"#utility.yul\":816:822   */\n  dup2\n    /* \"#utility.yul\":810:823   */\n  mload\n    /* \"#utility.yul\":801:823   */\n  swap1\n  pop\n    /* \"#utility.yul\":832:873   */\n  tag_33\n    /* \"#utility.yul\":867:872   */\n  dup2\n    /* \"#utility.yul\":832:873   */\n  tag_14\n  jump\t// in\ntag_33:\n    /* \"#utility.yul\":720:879   */\n  swap3\n  swap2\n  pop\n  pop\n  jump\t// out\n    /* \"#utility.yul\":885:962   */\ntag_16:\n    /* \"#utility.yul\":922:929   */\n  0x00\n    /* \"#utility.yul\":951:956   */\n  dup2\n    /* \"#utility.yul\":940:956   */\n  swap1\n  pop\n    /* \"#utility.yul\":885:962   */\n  swap2\n  swap1\n  pop\n  jump\t// out\n    /* \"#utility.yul\":968:1090   */\ntag_17:\n    /* \"#utility.yul\":1041:1065   */\n  tag_36\n    /* \"#utility.yul\":1059:1064   */\n  dup2\n    /* \"#utility.yul\":1041:1065   */\n  tag_16\n  jump\t// in\ntag_36:\n    /* \"#utility.yul\":1034:1039   */\n  dup2\n    /* \"#utility.yul\":1031:1066   */\n  eq\n    /* \"#utility.yul\":1021:1084   */\n  tag_37\n  jumpi\n    /* \"#utility.yul\":1080:1081   */\n  0x00\n    /* \"#utility.yul\":1077:1078   */\n  dup1\n    /* \"#utility.yul\":1070:1082   */\n  revert\n    /* \"#utility.yul\":1021:1084   */\ntag_37:\n    /* \"#utility.yul\":968:1090   */\n  pop\n  jump\t// out\n    /* \"#utility.yul\":1096:1239   */\ntag_18:\n    /* \"#utility.yul\":1153:1158   */\n  0x00\n    /* \"#utility.yul\":1184:1190   */\n  dup2\n    /* \"#utility.yul\":1178:1191   */\n  mload\n    /* \"#utility.yul\":1169:1191   */\n  swap1\n  pop\n    /* \"#utility.yul\":1200:1233   */\n  tag_39\n    /* \"#utility.yul\":1227:1232   */\n  dup2\n    /* \"#utility.yul\":1200:1233   */\n  tag_17\n  jump\t// in\ntag_39:\n    /* \"#utility.yul\":1096:1239   */\n  swap3\n  swap2\n  pop\n  pop\n  jump\t// out\n    /* \"#utility.yul\":1245:1341   */\ntag_19:\n    /* \"#utility.yul\":1282:1289   */\n  0x00\n    /* \"#utility.yul\":1311:1335   */\n  tag_41\n    /* \"#utility.yul\":1329:1334   */\n  dup3\n    /* \"#utility.yul\":1311:1335   */\n  tag_12\n  jump\t// in\ntag_41:\n    /* \"#utility.yul\":1300:1335   */\n  swap1\n  pop\n    /* \"#utility.yul\":1245:1341   */\n  swap2\n  swap1\n  pop\n  jump\t// out\n    /* \"#utility.yul\":1347:1469   */\ntag_20:\n    /* \"#utility.yul\":1420:1444   */\n  tag_43\n    /* \"#utility.yul\":1438:1443   */\n  dup2\n    /* \"#utility.yul\":1420:1444   */\n  tag_19\n  jump\t// in\ntag_43:\n    /* \"#utility.yul\":1413:1418   */\n  dup2\n    /* \"#utility.yul\":1410:1445   */\n  eq\n    /* \"#utility.yul\":1400:1463   */\n  tag_44\n  jumpi\n    /* \"#utility.yul\":1459:1460   */\n  0x00\n    /* \"#utility.yul\":1456:1457   */\n  dup1\n    /* \"#utility.yul\":1449:1461   */\n  revert\n    /* \"#utility.yul\":1400:1463   */\ntag_44:\n    /* \"#utility.yul\":1347:1469   */\n  pop\n  jump\t// out\n    /* \"#utility.yul\":1475:1618   */\ntag_21:\n    /* \"#utility.yul\":1532:1537   */\n  0x00\n    /* \"#utility.yul\":1563:1569   */\n  dup2\n    /* \"#utility.yul\":1557:1570   */\n  mload\n    /* \"#utility.yul\":1548:1570   */\n  swap1\n  pop\n    /* \"#utility.yul\":1579:1612   */\n  tag_46\n    /* \"#utility.yul\":1606:1611   */\n  dup2\n    /* \"#utility.yul\":1579:1612   */\n  tag_20\n  jump\t// in\ntag_46:\n    /* \"#utility.yul\":1475:1618   */\n  swap3\n  swap2\n  pop\n  pop\n  jump\t// out\n    /* \"#utility.yul\":1624:3104   */\ntag_3:\n    /* \"#utility.yul\":1773:1779   */\n  0x00\n    /* \"#utility.yul\":1781:1787   */\n  dup1\n    /* \"#utility.yul\":1789:1795   */\n  0x00\n    /* \"#utility.yul\":1797:1803   */\n  dup1\n    /* \"#utility.yul\":1805:1811   */\n  0x00\n    /* \"#utility.yul\":1813:1819   */\n  dup1\n    /* \"#utility.yul\":1821:1827   */\n  0x00\n    /* \"#utility.yul\":1829:1835   */\n  dup1\n    /* \"#utility.yul\":1878:1881   */\n  0x0100\n    /* \"#utility.yul\":1866:1875   */\n  dup10\n    /* \"#utility.yul\":1857:1864   */\n  dup12\n    /* \"#utility.yul\":1853:1876   */\n  sub\n    /* \"#utility.yul\":1849:1882   */\n  slt\n    /* \"#utility.yul\":1846:1966   */\n  iszero\n  tag_48\n  jumpi\n    /* \"#utility.yul\":1885:1964   */\n  tag_49\n  tag_10\n  jump\t// in\ntag_49:\n    /* \"#utility.yul\":1846:1966   */\ntag_48:\n    /* \"#utility.yul\":2005:2006   */\n  0x00\n    /* \"#utility.yul\":2030:2102   */\n  tag_50\n    /* \"#utility.yul\":2094:2101   */\n  dup12\n    /* \"#utility.yul\":2085:2091   */\n  dup3\n    /* \"#utility.yul\":2074:2083   */\n  dup13\n    /* \"#utility.yul\":2070:2092   */\n  add\n    /* \"#utility.yul\":2030:2102   */\n  tag_15\n  jump\t// in\ntag_50:\n    /* \"#utility.yul\":2020:2102   */\n  swap9\n  pop\n    /* \"#utility.yul\":1976:2112   */\n  pop\n    /* \"#utility.yul\":2151:2153   */\n  0x20\n    /* \"#utility.yul\":2177:2249   */\n  tag_51\n    /* \"#utility.yul\":2241:2248   */\n  dup12\n    /* \"#utility.yul\":2232:2238   */\n  dup3\n    /* \"#utility.yul\":2221:2230   */\n  dup13\n    /* \"#utility.yul\":2217:2239   */\n  add\n    /* \"#utility.yul\":2177:2249   */\n  tag_15\n  jump\t// in\ntag_51:\n    /* \"#utility.yul\":2167:2249   */\n  swap8\n  pop\n    /* \"#utility.yul\":2122:2259   */\n  pop\n    /* \"#utility.yul\":2298:2300   */\n  0x40\n    /* \"#utility.yul\":2324:2388   */\n  tag_52\n    /* \"#utility.yul\":2380:2387   */\n  dup12\n    /* \"#utility.yul\":2371:2377   */\n  dup3\n    /* \"#utility.yul\":2360:2369   */\n  dup13\n    /* \"#utility.yul\":2356:2378   */\n  add\n    /* \"#utility.yul\":2324:2388   */\n  tag_18\n  jump\t// in\ntag_52:\n    /* \"#utility.yul\":2314:2388   */\n  swap7\n  pop\n    /* \"#utility.yul\":2269:2398   */\n  pop\n    /* \"#utility.yul\":2437:2439   */\n  0x60\n    /* \"#utility.yul\":2463:2527   */\n  tag_53\n    /* \"#utility.yul\":2519:2526   */\n  dup12\n    /* \"#utility.yul\":2510:2516   */\n  dup3\n    /* \"#utility.yul\":2499:2508   */\n  dup13\n    /* \"#utility.yul\":2495:2517   */\n  add\n    /* \"#utility.yul\":2463:2527   */\n  tag_18\n  jump\t// in\ntag_53:\n    /* \"#utility.yul\":2453:2527   */\n  swap6\n  pop\n    /* \"#utility.yul\":2408:2537   */\n  pop\n    /* \"#utility.yul\":2576:2579   */\n  0x80\n    /* \"#utility.yul\":2603:2667   */\n  tag_54\n    /* \"#utility.yul\":2659:2666   */\n  dup12\n    /* \"#utility.yul\":2650:2656   */\n  dup3\n    /* \"#utility.yul\":2639:2648   */\n  dup13\n    /* \"#utility.yul\":2635:2657   */\n  add\n    /* \"#utility.yul\":2603:2667   */\n  tag_18\n  jump\t// in\ntag_54:\n    /* \"#utility.yul\":2593:2667   */\n  swap5\n  pop\n    /* \"#utility.yul\":2547:2677   */\n  pop\n    /* \"#utility.yul\":2716:2719   */\n  0xa0\n    /* \"#utility.yul\":2743:2807   */\n  tag_55\n    /* \"#utility.yul\":2799:2806   */\n  dup12\n    /* \"#utility.yul\":2790:2796   */\n  dup3\n    /* \"#utility.yul\":2779:2788   */\n  dup13\n    /* \"#utility.yul\":2775:2797   */\n  add\n    /* \"#utility.yul\":2743:2807   */\n  tag_18\n  jump\t// in\ntag_55:\n    /* \"#utility.yul\":2733:2807   */\n  swap4\n  pop\n    /* \"#utility.yul\":2687:2817   */\n  pop\n    /* \"#utility.yul\":2856:2859   */\n  0xc0\n    /* \"#utility.yul\":2883:2947   */\n  tag_56\n    /* \"#utility.yul\":2939:2946   */\n  dup12\n    /* \"#utility.yul\":2930:2936   */\n  dup3\n    /* \"#utility.yul\":2919:2928   */\n  dup13\n    /* \"#utility.yul\":2915:2937   */\n  add\n    /* \"#utility.yul\":2883:2947   */\n  tag_18\n  jump\t// in\ntag_56:\n    /* \"#utility.yul\":2873:2947   */\n  swap3\n  pop\n    /* \"#utility.yul\":2827:2957   */\n  pop\n    /* \"#utility.yul\":2996:2999   */\n  0xe0\n    /* \"#utility.yul\":3023:3087   */\n  tag_57\n    /* \"#utility.yul\":3079:3086   */\n  dup12\n    /* \"#utility.yul\":3070:3076   */\n  dup3\n    /* \"#utility.yul\":3059:3068   */\n  dup13\n    /* \"#utility.yul\":3055:3077   */\n  add\n    /* \"#utility.yul\":3023:3087   */\n  tag_21\n  jump\t// in\ntag_57:\n    /* \"#utility.yul\":3013:3087   */\n  swap2\n  pop\n    /* \"#utility.yul\":2967:3097   */\n  pop\n    /* \"#utility.yul\":1624:3104   */\n  swap3\n  swap6\n  swap9\n  pop\n  swap3\n  swap6\n  swap9\n  swap1\n  swap4\n  swap7\n  pop\n  jump\t// out\n    /* \"contracts/escrow.sol\":206:5874  contract escrow is ReentrancyGuard {... */\ntag_8:\n  dataSize(sub_0)\n  dup1\n  dataOffset(sub_0)\n  0x00\n  codecopy\n  0x00\n  return\nstop\n\nsub_0: assembly {\n        /* \"contracts/escrow.sol\":206:5874  contract escrow is ReentrancyGuard {... */\n      mstore(0x40, 0x80)\n      jumpi(tag_1, lt(calldatasize, 0x04))\n      shr(0xe0, calldataload(0x00))\n      dup1\n      0x867a06b3\n      gt\n      tag_22\n      jumpi\n      dup1\n      0xc24a0f8b\n      gt\n      tag_23\n      jumpi\n      dup1\n      0xc24a0f8b\n      eq\n      tag_17\n      jumpi\n      dup1\n      0xd0bf21fd\n      eq\n      tag_18\n      jumpi\n      dup1\n      0xdb292621\n      eq\n      tag_19\n      jumpi\n      dup1\n      0xe6cdc708\n      eq\n      tag_20\n      jumpi\n      dup1\n      0xf340fa01\n      eq\n      tag_21\n      jumpi\n      jump(tag_2)\n    tag_23:\n      dup1\n      0x867a06b3\n      eq\n      tag_12\n      jumpi\n      dup1\n      0x8b7afe2e\n      eq\n      tag_13\n      jumpi\n      dup1\n      0x99dc2df3\n      eq\n      tag_14\n      jumpi\n      dup1\n      0xa7245b6e\n      eq\n      tag_15\n      jumpi\n      dup1\n      0xba12a5c5\n      eq\n      tag_16\n      jumpi\n      jump(tag_2)\n    tag_22:\n      dup1\n      0x4680dd2f\n      gt\n      tag_24\n      jumpi\n      dup1\n      0x4680dd2f\n      eq\n      tag_7\n      jumpi\n      dup1\n      0x4ce9e6de\n      eq\n      tag_8\n      jumpi\n      dup1\n      0x51cff8d9\n      eq\n      tag_9\n      jumpi\n      dup1\n      0x69cf1e90\n      eq\n      tag_10\n      jumpi\n      dup1\n      0x6d5e7a15\n      eq\n      tag_11\n      jumpi\n      jump(tag_2)\n    tag_24:\n      dup1\n      0x220e5ab3\n      eq\n      tag_3\n      jumpi\n      dup1\n      0x31658e32\n      eq\n      tag_4\n      jumpi\n      dup1\n      0x36359265\n      eq\n      tag_5\n      jumpi\n      dup1\n      0x4644803f\n      eq\n      tag_6\n      jumpi\n      jump(tag_2)\n    tag_1:\n      jumpi(tag_2, calldatasize)\n        /* \"contracts/escrow.sol\":2208:2218  msg.sender */\n      caller\n        /* \"contracts/escrow.sol\":2185:2230  Deposit(address(this), msg.sender, msg.value) */\n      0xffffffffffffffffffffffffffffffffffffffff\n      and\n        /* \"contracts/escrow.sol\":2201:2205  this */\n      address\n        /* \"contracts/escrow.sol\":2185:2230  Deposit(address(this), msg.sender, msg.value) */\n      0xffffffffffffffffffffffffffffffffffffffff\n      and\n      0x5548c837ab068cf56a2c2479df0882a4922fd203edb7517321831d95078c5f62\n        /* \"contracts/escrow.sol\":2220:2229  msg.value */\n      callvalue\n        /* \"contracts/escrow.sol\":2185:2230  Deposit(address(this), msg.sender, msg.value) */\n      mload(0x40)\n      tag_27\n      swap2\n      swap1\n      tag_28\n      jump\t// in\n    tag_27:\n      mload(0x40)\n      dup1\n      swap2\n      sub\n      swap1\n      log3\n        /* \"contracts/escrow.sol\":206:5874  contract escrow is ReentrancyGuard {... */\n      stop\n    tag_2:\n        /* \"contracts/escrow.sol\":2078:2088  msg.sender */\n      caller\n        /* \"contracts/escrow.sol\":2055:2100  Deposit(address(this), msg.sender, msg.value) */\n      0xffffffffffffffffffffffffffffffffffffffff\n      and\n        /* \"contracts/escrow.sol\":2071:2075  this */\n      address\n        /* \"contracts/escrow.sol\":2055:2100  Deposit(address(this), msg.sender, msg.value) */\n      0xffffffffffffffffffffffffffffffffffffffff\n      and\n      0x5548c837ab068cf56a2c2479df0882a4922fd203edb7517321831d95078c5f62\n        /* \"contracts/escrow.sol\":2090:2099  msg.value */\n      callvalue\n        /* \"contracts/escrow.sol\":2055:2100  Deposit(address(this), msg.sender, msg.value) */\n      mload(0x40)\n      tag_31\n      swap2\n      swap1\n      tag_28\n      jump\t// in\n    tag_31:\n      mload(0x40)\n      dup1\n      swap2\n      sub\n      swap1\n      log3\n        /* \"contracts/escrow.sol\":206:5874  contract escrow is ReentrancyGuard {... */\n      stop\n        /* \"contracts/escrow.sol\":673:703  uint256 public securityDeposit */\n    tag_3:\n      callvalue\n      dup1\n      iszero\n      tag_32\n      jumpi\n      0x00\n      dup1\n      revert\n    tag_32:\n      pop\n      tag_33\n      tag_34\n      jump\t// in\n    tag_33:\n      mload(0x40)\n      tag_35\n      swap2\n      swap1\n      tag_28\n      jump\t// in\n    tag_35:\n      mload(0x40)\n      dup1\n      swap2\n      sub\n      swap1\n      return\n        /* \"contracts/escrow.sol\":5766:5869  function returnDaysForWithdrawal() public view returns(uint){... */\n    tag_4:\n      callvalue\n      dup1\n      iszero\n      tag_36\n      jumpi\n      0x00\n      dup1\n      revert\n    tag_36:\n      pop\n      tag_37\n      tag_38\n      jump\t// in\n    tag_37:\n      mload(0x40)\n      tag_39\n      swap2\n      swap1\n      tag_28\n      jump\t// in\n    tag_39:\n      mload(0x40)\n      dup1\n      swap2\n      sub\n      swap1\n      return\n        /* \"contracts/escrow.sol\":5675:5758  function returnEndDate() public view returns(uint){... */\n    tag_5:\n      callvalue\n      dup1\n      iszero\n      tag_40\n      jumpi\n      0x00\n      dup1\n      revert\n    tag_40:\n      pop\n      tag_41\n      tag_42\n      jump\t// in\n    tag_41:\n      mload(0x40)\n      tag_43\n      swap2\n      swap1\n      tag_28\n      jump\t// in\n    tag_43:\n      mload(0x40)\n      dup1\n      swap2\n      sub\n      swap1\n      return\n        /* \"contracts/escrow.sol\":5110:5205  function returnSellerBalance() public view returns(uint){... */\n    tag_6:\n      callvalue\n      dup1\n      iszero\n      tag_44\n      jumpi\n      0x00\n      dup1\n      revert\n    tag_44:\n      pop\n      tag_45\n      tag_46\n      jump\t// in\n    tag_45:\n      mload(0x40)\n      tag_47\n      swap2\n      swap1\n      tag_28\n      jump\t// in\n    tag_47:\n      mload(0x40)\n      dup1\n      swap2\n      sub\n      swap1\n      return\n        /* \"contracts/escrow.sol\":5213:5306  function returnBuyerBalance() public view returns(uint){... */\n    tag_7:\n      callvalue\n      dup1\n      iszero\n      tag_48\n      jumpi\n      0x00\n      dup1\n      revert\n    tag_48:\n      pop\n      tag_49\n      tag_50\n      jump\t// in\n    tag_49:\n      mload(0x40)\n      tag_51\n      swap2\n      swap1\n      tag_28\n      jump\t// in\n    tag_51:\n      mload(0x40)\n      dup1\n      swap2\n      sub\n      swap1\n      return\n        /* \"contracts/escrow.sol\":5020:5102  function returnBuyer() public view returns(address){... */\n    tag_8:\n      callvalue\n      dup1\n      iszero\n      tag_52\n      jumpi\n      0x00\n      dup1\n      revert\n    tag_52:\n      pop\n      tag_53\n      tag_54\n      jump\t// in\n    tag_53:\n      mload(0x40)\n      tag_55\n      swap2\n      swap1\n      tag_56\n      jump\t// in\n    tag_55:\n      mload(0x40)\n      dup1\n      swap2\n      sub\n      swap1\n      return\n        /* \"contracts/escrow.sol\":2774:4917  function withdraw(address _user) external payable nonReentrant {... */\n    tag_9:\n      tag_57\n      0x04\n      dup1\n      calldatasize\n      sub\n      dup2\n      add\n      swap1\n      tag_58\n      swap2\n      swap1\n      tag_59\n      jump\t// in\n    tag_58:\n      tag_60\n      jump\t// in\n    tag_57:\n      stop\n        /* \"contracts/escrow.sol\":5552:5667  function returnBuyerPreAgreementAmount() public view returns(uint){... */\n    tag_10:\n      callvalue\n      dup1\n      iszero\n      tag_61\n      jumpi\n      0x00\n      dup1\n      revert\n    tag_61:\n      pop\n      tag_62\n      tag_63\n      jump\t// in\n    tag_62:\n      mload(0x40)\n      tag_64\n      swap2\n      swap1\n      tag_28\n      jump\t// in\n    tag_64:\n      mload(0x40)\n      dup1\n      swap2\n      sub\n      swap1\n      return\n        /* \"contracts/escrow.sol\":830:862  uint256 public daysForWithdrawal */\n    tag_11:\n      callvalue\n      dup1\n      iszero\n      tag_65\n      jumpi\n      0x00\n      dup1\n      revert\n    tag_65:\n      pop\n      tag_66\n      tag_67\n      jump\t// in\n    tag_66:\n      mload(0x40)\n      tag_68\n      swap2\n      swap1\n      tag_28\n      jump\t// in\n    tag_68:\n      mload(0x40)\n      dup1\n      swap2\n      sub\n      swap1\n      return\n        /* \"contracts/escrow.sol\":496:524  uint256 public sellerBalance */\n    tag_12:\n      callvalue\n      dup1\n      iszero\n      tag_69\n      jumpi\n      0x00\n      dup1\n      revert\n    tag_69:\n      pop\n      tag_70\n      tag_71\n      jump\t// in\n    tag_70:\n      mload(0x40)\n      tag_72\n      swap2\n      swap1\n      tag_28\n      jump\t// in\n    tag_72:\n      mload(0x40)\n      dup1\n      swap2\n      sub\n      swap1\n      return\n        /* \"contracts/escrow.sol\":459:489  uint256 public contractBalance */\n    tag_13:\n      callvalue\n      dup1\n      iszero\n      tag_73\n      jumpi\n      0x00\n      dup1\n      revert\n    tag_73:\n      pop\n      tag_74\n      tag_75\n      jump\t// in\n    tag_74:\n      mload(0x40)\n      tag_76\n      swap2\n      swap1\n      tag_28\n      jump\t// in\n    tag_76:\n      mload(0x40)\n      dup1\n      swap2\n      sub\n      swap1\n      return\n        /* \"contracts/escrow.sol\":756:794  uint256 public buyerPreAgreementAmount */\n    tag_14:\n      callvalue\n      dup1\n      iszero\n      tag_77\n      jumpi\n      0x00\n      dup1\n      revert\n    tag_77:\n      pop\n      tag_78\n      tag_79\n      jump\t// in\n    tag_78:\n      mload(0x40)\n      tag_80\n      swap2\n      swap1\n      tag_28\n      jump\t// in\n    tag_80:\n      mload(0x40)\n      dup1\n      swap2\n      sub\n      swap1\n      return\n        /* \"contracts/escrow.sol\":710:749  uint256 public sellerPreAgreementAmount */\n    tag_15:\n      callvalue\n      dup1\n      iszero\n      tag_81\n      jumpi\n      0x00\n      dup1\n      revert\n    tag_81:\n      pop\n      tag_82\n      tag_83\n      jump\t// in\n    tag_82:\n      mload(0x40)\n      tag_84\n      swap2\n      swap1\n      tag_28\n      jump\t// in\n    tag_84:\n      mload(0x40)\n      dup1\n      swap2\n      sub\n      swap1\n      return\n        /* \"contracts/escrow.sol\":4928:5012  function returnSeller() public view returns(address){... */\n    tag_16:\n      callvalue\n      dup1\n      iszero\n      tag_85\n      jumpi\n      0x00\n      dup1\n      revert\n    tag_85:\n      pop\n      tag_86\n      tag_87\n      jump\t// in\n    tag_86:\n      mload(0x40)\n      tag_88\n      swap2\n      swap1\n      tag_56\n      jump\t// in\n    tag_88:\n      mload(0x40)\n      dup1\n      swap2\n      sub\n      swap1\n      return\n        /* \"contracts/escrow.sol\":801:823  uint256 public endDate */\n    tag_17:\n      callvalue\n      dup1\n      iszero\n      tag_89\n      jumpi\n      0x00\n      dup1\n      revert\n    tag_89:\n      pop\n      tag_90\n      tag_91\n      jump\t// in\n    tag_90:\n      mload(0x40)\n      tag_92\n      swap2\n      swap1\n      tag_28\n      jump\t// in\n    tag_92:\n      mload(0x40)\n      dup1\n      swap2\n      sub\n      swap1\n      return\n        /* \"contracts/escrow.sol\":5427:5544  function returnSellerPreAgreementAmount() public view returns(uint){... */\n    tag_18:\n      callvalue\n      dup1\n      iszero\n      tag_93\n      jumpi\n      0x00\n      dup1\n      revert\n    tag_93:\n      pop\n      tag_94\n      tag_95\n      jump\t// in\n    tag_94:\n      mload(0x40)\n      tag_96\n      swap2\n      swap1\n      tag_28\n      jump\t// in\n    tag_96:\n      mload(0x40)\n      dup1\n      swap2\n      sub\n      swap1\n      return\n        /* \"contracts/escrow.sol\":5320:5419  function returnSecurityDeposit() public view returns(uint){... */\n    tag_19:\n      callvalue\n      dup1\n      iszero\n      tag_97\n      jumpi\n      0x00\n      dup1\n      revert\n    tag_97:\n      pop\n      tag_98\n      tag_99\n      jump\t// in\n    tag_98:\n      mload(0x40)\n      tag_100\n      swap2\n      swap1\n      tag_28\n      jump\t// in\n    tag_100:\n      mload(0x40)\n      dup1\n      swap2\n      sub\n      swap1\n      return\n        /* \"contracts/escrow.sol\":531:558  uint256 public buyerBalance */\n    tag_20:\n      callvalue\n      dup1\n      iszero\n      tag_101\n      jumpi\n      0x00\n      dup1\n      revert\n    tag_101:\n      pop\n      tag_102\n      tag_103\n      jump\t// in\n    tag_102:\n      mload(0x40)\n      tag_104\n      swap2\n      swap1\n      tag_28\n      jump\t// in\n    tag_104:\n      mload(0x40)\n      dup1\n      swap2\n      sub\n      swap1\n      return\n        /* \"contracts/escrow.sol\":2298:2683  function deposit(address _user) external payable {... */\n    tag_21:\n      tag_105\n      0x04\n      dup1\n      calldatasize\n      sub\n      dup2\n      add\n      swap1\n      tag_106\n      swap2\n      swap1\n      tag_59\n      jump\t// in\n    tag_106:\n      tag_107\n      jump\t// in\n    tag_105:\n      stop\n        /* \"contracts/escrow.sol\":673:703  uint256 public securityDeposit */\n    tag_34:\n      sload(0x07)\n      dup2\n      jump\t// out\n        /* \"contracts/escrow.sol\":5766:5869  function returnDaysForWithdrawal() public view returns(uint){... */\n    tag_38:\n        /* \"contracts/escrow.sol\":5821:5825  uint */\n      0x00\n        /* \"contracts/escrow.sol\":5844:5861  daysForWithdrawal */\n      sload(0x0b)\n        /* \"contracts/escrow.sol\":5837:5861  return daysForWithdrawal */\n      swap1\n      pop\n        /* \"contracts/escrow.sol\":5766:5869  function returnDaysForWithdrawal() public view returns(uint){... */\n      swap1\n      jump\t// out\n        /* \"contracts/escrow.sol\":5675:5758  function returnEndDate() public view returns(uint){... */\n    tag_42:\n        /* \"contracts/escrow.sol\":5720:5724  uint */\n      0x00\n        /* \"contracts/escrow.sol\":5743:5750  endDate */\n      sload(0x0a)\n        /* \"contracts/escrow.sol\":5736:5750  return endDate */\n      swap1\n      pop\n        /* \"contracts/escrow.sol\":5675:5758  function returnEndDate() public view returns(uint){... */\n      swap1\n      jump\t// out\n        /* \"contracts/escrow.sol\":5110:5205  function returnSellerBalance() public view returns(uint){... */\n    tag_46:\n        /* \"contracts/escrow.sol\":5161:5165  uint */\n      0x00\n        /* \"contracts/escrow.sol\":5184:5197  sellerBalance */\n      sload(0x05)\n        /* \"contracts/escrow.sol\":5177:5197  return sellerBalance */\n      swap1\n      pop\n        /* \"contracts/escrow.sol\":5110:5205  function returnSellerBalance() public view returns(uint){... */\n      swap1\n      jump\t// out\n        /* \"contracts/escrow.sol\":5213:5306  function returnBuyerBalance() public view returns(uint){... */\n    tag_50:\n        /* \"contracts/escrow.sol\":5263:5267  uint */\n      0x00\n        /* \"contracts/escrow.sol\":5286:5298  buyerBalance */\n      sload(0x06)\n        /* \"contracts/escrow.sol\":5279:5298  return buyerBalance */\n      swap1\n      pop\n        /* \"contracts/escrow.sol\":5213:5306  function returnBuyerBalance() public view returns(uint){... */\n      swap1\n      jump\t// out\n        /* \"contracts/escrow.sol\":5020:5102  function returnBuyer() public view returns(address){... */\n    tag_54:\n        /* \"contracts/escrow.sol\":5063:5070  address */\n      0x00\n        /* \"contracts/escrow.sol\":5089:5094  buyer */\n      0x02\n      0x00\n      swap1\n      sload\n      swap1\n      0x0100\n      exp\n      swap1\n      div\n      0xffffffffffffffffffffffffffffffffffffffff\n      and\n        /* \"contracts/escrow.sol\":5082:5094  return buyer */\n      swap1\n      pop\n        /* \"contracts/escrow.sol\":5020:5102  function returnBuyer() public view returns(address){... */\n      swap1\n      jump\t// out\n        /* \"contracts/escrow.sol\":2774:4917  function withdraw(address _user) external payable nonReentrant {... */\n    tag_60:\n        /* \"@openzeppelin/contracts/security/ReentrancyGuard.sol\":2261:2282  _nonReentrantBefore() */\n      tag_114\n        /* \"@openzeppelin/contracts/security/ReentrancyGuard.sol\":2261:2280  _nonReentrantBefore */\n      tag_115\n        /* \"@openzeppelin/contracts/security/ReentrancyGuard.sol\":2261:2282  _nonReentrantBefore() */\n      jump\t// in\n    tag_114:\n        /* \"contracts/escrow.sol\":2882:2883  0 */\n      0x00\n        /* \"contracts/escrow.sol\":2857:2878  address(this).balance */\n      selfbalance\n        /* \"contracts/escrow.sol\":2857:2883  address(this).balance != 0 */\n      sub\n        /* \"contracts/escrow.sol\":2848:2913  require (address(this).balance != 0, \"Contract don't have funds\") */\n      tag_117\n      jumpi\n      mload(0x40)\n      0x08c379a000000000000000000000000000000000000000000000000000000000\n      dup2\n      mstore\n      0x04\n      add\n      tag_118\n      swap1\n      tag_119\n      jump\t// in\n    tag_118:\n      mload(0x40)\n      dup1\n      swap2\n      sub\n      swap1\n      revert\n    tag_117:\n        /* \"contracts/escrow.sol\":2951:2958  endDate */\n      sload(0x0a)\n        /* \"contracts/escrow.sol\":2933:2948  block.timestamp */\n      timestamp\n        /* \"contracts/escrow.sol\":2933:2958  block.timestamp < endDate */\n      lt\n        /* \"contracts/escrow.sol\":2924:2983  require (block.timestamp < endDate, \"Time is not over yet\") */\n      tag_120\n      jumpi\n      mload(0x40)\n      0x08c379a000000000000000000000000000000000000000000000000000000000\n      dup2\n      mstore\n      0x04\n      add\n      tag_121\n      swap1\n      tag_122\n      jump\t// in\n    tag_121:\n      mload(0x40)\n      dup1\n      swap2\n      sub\n      swap1\n      revert\n    tag_120:\n        /* \"contracts/escrow.sol\":3000:3047  address(this).balance.mul(transferFee).div(100) */\n      tag_123\n        /* \"contracts/escrow.sol\":3043:3046  100 */\n      0x64\n        /* \"contracts/escrow.sol\":3000:3038  address(this).balance.mul(transferFee) */\n      tag_124\n        /* \"contracts/escrow.sol\":3026:3037  transferFee */\n      sload(0x0c)\n        /* \"contracts/escrow.sol\":3000:3021  address(this).balance */\n      selfbalance\n        /* \"contracts/escrow.sol\":3000:3025  address(this).balance.mul */\n      tag_125\n      swap1\n        /* \"contracts/escrow.sol\":3000:3038  address(this).balance.mul(transferFee) */\n      swap2\n      swap1\n      0xffffffff\n      and\n      jump\t// in\n    tag_124:\n        /* \"contracts/escrow.sol\":3000:3042  address(this).balance.mul(transferFee).div */\n      tag_126\n      swap1\n        /* \"contracts/escrow.sol\":3000:3047  address(this).balance.mul(transferFee).div(100) */\n      swap2\n      swap1\n      0xffffffff\n      and\n      jump\t// in\n    tag_123:\n        /* \"contracts/escrow.sol\":2994:2997  fee */\n      0x0d\n        /* \"contracts/escrow.sol\":2994:3047  fee = address(this).balance.mul(transferFee).div(100) */\n      dup2\n      swap1\n      sstore\n      pop\n        /* \"contracts/escrow.sol\":3254:3278  sellerPreAgreementAmount */\n      sload(0x08)\n        /* \"contracts/escrow.sol\":3238:3251  sellerBalance */\n      sload(0x05)\n        /* \"contracts/escrow.sol\":3238:3278  sellerBalance > sellerPreAgreementAmount */\n      gt\n        /* \"contracts/escrow.sol\":3238:3307  sellerBalance > sellerPreAgreementAmount && block.timestamp > endDate */\n      dup1\n      iszero\n      tag_127\n      jumpi\n      pop\n        /* \"contracts/escrow.sol\":3300:3307  endDate */\n      sload(0x0a)\n        /* \"contracts/escrow.sol\":3282:3297  block.timestamp */\n      timestamp\n        /* \"contracts/escrow.sol\":3282:3307  block.timestamp > endDate */\n      gt\n        /* \"contracts/escrow.sol\":3238:3307  sellerBalance > sellerPreAgreementAmount && block.timestamp > endDate */\n    tag_127:\n        /* \"contracts/escrow.sol\":3238:3367  sellerBalance > sellerPreAgreementAmount && block.timestamp > endDate && block.timestamp < endDate + (daysForWithdrawal * 1 days) */\n      dup1\n      iszero\n      tag_128\n      jumpi\n      pop\n        /* \"contracts/escrow.sol\":3360:3366  1 days */\n      0x015180\n        /* \"contracts/escrow.sol\":3340:3357  daysForWithdrawal */\n      sload(0x0b)\n        /* \"contracts/escrow.sol\":3340:3366  daysForWithdrawal * 1 days */\n      tag_129\n      swap2\n      swap1\n      tag_130\n      jump\t// in\n    tag_129:\n        /* \"contracts/escrow.sol\":3329:3336  endDate */\n      sload(0x0a)\n        /* \"contracts/escrow.sol\":3329:3367  endDate + (daysForWithdrawal * 1 days) */\n      tag_131\n      swap2\n      swap1\n      tag_132\n      jump\t// in\n    tag_131:\n        /* \"contracts/escrow.sol\":3311:3326  block.timestamp */\n      timestamp\n        /* \"contracts/escrow.sol\":3311:3367  block.timestamp < endDate + (daysForWithdrawal * 1 days) */\n      lt\n        /* \"contracts/escrow.sol\":3238:3367  sellerBalance > sellerPreAgreementAmount && block.timestamp > endDate && block.timestamp < endDate + (daysForWithdrawal * 1 days) */\n    tag_128:\n        /* \"contracts/escrow.sol\":3234:4906  if (sellerBalance > sellerPreAgreementAmount && block.timestamp > endDate && block.timestamp < endDate + (daysForWithdrawal * 1 days)) {... */\n      iszero\n      tag_133\n      jumpi\n        /* \"contracts/escrow.sol\":3403:3408  _user */\n      dup1\n        /* \"contracts/escrow.sol\":3393:3408  seller == _user */\n      0xffffffffffffffffffffffffffffffffffffffff\n      and\n        /* \"contracts/escrow.sol\":3393:3399  seller */\n      0x01\n      0x00\n      swap1\n      sload\n      swap1\n      0x0100\n      exp\n      swap1\n      div\n      0xffffffffffffffffffffffffffffffffffffffff\n      and\n        /* \"contracts/escrow.sol\":3393:3408  seller == _user */\n      0xffffffffffffffffffffffffffffffffffffffff\n      and\n      eq\n        /* \"contracts/escrow.sol\":3384:3435  require (seller == _user, \"You are not the seller\") */\n      tag_134\n      jumpi\n      mload(0x40)\n      0x08c379a000000000000000000000000000000000000000000000000000000000\n      dup2\n      mstore\n      0x04\n      add\n      tag_135\n      swap1\n      tag_136\n      jump\t// in\n    tag_135:\n      mload(0x40)\n      dup1\n      swap2\n      sub\n      swap1\n      revert\n    tag_134:\n        /* \"contracts/escrow.sol\":3450:3456  seller */\n      0x01\n      0x00\n      swap1\n      sload\n      swap1\n      0x0100\n      exp\n      swap1\n      div\n      0xffffffffffffffffffffffffffffffffffffffff\n      and\n        /* \"contracts/escrow.sol\":3450:3465  seller.transfer */\n      0xffffffffffffffffffffffffffffffffffffffff\n      and\n        /* \"contracts/escrow.sol\":3450:3497  seller.transfer(address(this).balance.sub(fee)) */\n      0x08fc\n        /* \"contracts/escrow.sol\":3466:3496  address(this).balance.sub(fee) */\n      tag_137\n        /* \"contracts/escrow.sol\":3492:3495  fee */\n      sload(0x0d)\n        /* \"contracts/escrow.sol\":3466:3487  address(this).balance */\n      selfbalance\n        /* \"contracts/escrow.sol\":3466:3491  address(this).balance.sub */\n      tag_138\n      swap1\n        /* \"contracts/escrow.sol\":3466:3496  address(this).balance.sub(fee) */\n      swap2\n      swap1\n      0xffffffff\n      and\n      jump\t// in\n    tag_137:\n        /* \"contracts/escrow.sol\":3450:3497  seller.transfer(address(this).balance.sub(fee)) */\n      swap1\n      dup2\n      iszero\n      mul\n      swap1\n      mload(0x40)\n      0x00\n      mload(0x40)\n      dup1\n      dup4\n      sub\n      dup2\n      dup6\n      dup9\n      dup9\n      call\n      swap4\n      pop\n      pop\n      pop\n      pop\n      iszero\n      dup1\n      iszero\n      tag_140\n      jumpi\n      returndatasize\n      0x00\n      dup1\n      returndatacopy\n      revert(0x00, returndatasize)\n    tag_140:\n      pop\n        /* \"contracts/escrow.sol\":3512:3522  feeAddress */\n      0x03\n      0x00\n      swap1\n      sload\n      swap1\n      0x0100\n      exp\n      swap1\n      div\n      0xffffffffffffffffffffffffffffffffffffffff\n      and\n        /* \"contracts/escrow.sol\":3512:3531  feeAddress.transfer */\n      0xffffffffffffffffffffffffffffffffffffffff\n      and\n        /* \"contracts/escrow.sol\":3512:3536  feeAddress.transfer(fee) */\n      0x08fc\n        /* \"contracts/escrow.sol\":3532:3535  fee */\n      sload(0x0d)\n        /* \"contracts/escrow.sol\":3512:3536  feeAddress.transfer(fee) */\n      swap1\n      dup2\n      iszero\n      mul\n      swap1\n      mload(0x40)\n      0x00\n      mload(0x40)\n      dup1\n      dup4\n      sub\n      dup2\n      dup6\n      dup9\n      dup9\n      call\n      swap4\n      pop\n      pop\n      pop\n      pop\n      iszero\n      dup1\n      iszero\n      tag_142\n      jumpi\n      returndatasize\n      0x00\n      dup1\n      returndatacopy\n      revert(0x00, returndatasize)\n    tag_142:\n      pop\n        /* \"contracts/escrow.sol\":3234:4906  if (sellerBalance > sellerPreAgreementAmount && block.timestamp > endDate && block.timestamp < endDate + (daysForWithdrawal * 1 days)) {... */\n      jump(tag_143)\n    tag_133:\n        /* \"contracts/escrow.sol\":3678:3693  securityDeposit */\n      sload(0x07)\n        /* \"contracts/escrow.sol\":3663:3675  buyerBalance */\n      sload(0x06)\n        /* \"contracts/escrow.sol\":3663:3693  buyerBalance > securityDeposit */\n      gt\n        /* \"contracts/escrow.sol\":3663:3753  buyerBalance > securityDeposit && block.timestamp > endDate + (daysForWithdrawal * 1 days) */\n      dup1\n      iszero\n      tag_144\n      jumpi\n      pop\n        /* \"contracts/escrow.sol\":3746:3752  1 days */\n      0x015180\n        /* \"contracts/escrow.sol\":3726:3743  daysForWithdrawal */\n      sload(0x0b)\n        /* \"contracts/escrow.sol\":3726:3752  daysForWithdrawal * 1 days */\n      tag_145\n      swap2\n      swap1\n      tag_130\n      jump\t// in\n    tag_145:\n        /* \"contracts/escrow.sol\":3715:3722  endDate */\n      sload(0x0a)\n        /* \"contracts/escrow.sol\":3715:3753  endDate + (daysForWithdrawal * 1 days) */\n      tag_146\n      swap2\n      swap1\n      tag_132\n      jump\t// in\n    tag_146:\n        /* \"contracts/escrow.sol\":3697:3712  block.timestamp */\n      timestamp\n        /* \"contracts/escrow.sol\":3697:3753  block.timestamp > endDate + (daysForWithdrawal * 1 days) */\n      gt\n        /* \"contracts/escrow.sol\":3663:3753  buyerBalance > securityDeposit && block.timestamp > endDate + (daysForWithdrawal * 1 days) */\n    tag_144:\n        /* \"contracts/escrow.sol\":3658:4906  if  (buyerBalance > securityDeposit && block.timestamp > endDate + (daysForWithdrawal * 1 days)) {... */\n      iszero\n      tag_147\n      jumpi\n        /* \"contracts/escrow.sol\":3788:3793  _user */\n      dup1\n        /* \"contracts/escrow.sol\":3779:3793  buyer == _user */\n      0xffffffffffffffffffffffffffffffffffffffff\n      and\n        /* \"contracts/escrow.sol\":3779:3784  buyer */\n      0x02\n      0x00\n      swap1\n      sload\n      swap1\n      0x0100\n      exp\n      swap1\n      div\n      0xffffffffffffffffffffffffffffffffffffffff\n      and\n        /* \"contracts/escrow.sol\":3779:3793  buyer == _user */\n      0xffffffffffffffffffffffffffffffffffffffff\n      and\n      eq\n        /* \"contracts/escrow.sol\":3770:3819  require (buyer == _user, \"You are not the buyer\") */\n      tag_148\n      jumpi\n      mload(0x40)\n      0x08c379a000000000000000000000000000000000000000000000000000000000\n      dup2\n      mstore\n      0x04\n      add\n      tag_149\n      swap1\n      tag_150\n      jump\t// in\n    tag_149:\n      mload(0x40)\n      dup1\n      swap2\n      sub\n      swap1\n      revert\n    tag_148:\n        /* \"contracts/escrow.sol\":3834:3839  buyer */\n      0x02\n      0x00\n      swap1\n      sload\n      swap1\n      0x0100\n      exp\n      swap1\n      div\n      0xffffffffffffffffffffffffffffffffffffffff\n      and\n        /* \"contracts/escrow.sol\":3834:3848  buyer.transfer */\n      0xffffffffffffffffffffffffffffffffffffffff\n      and\n        /* \"contracts/escrow.sol\":3834:3880  buyer.transfer(address(this).balance.sub(fee)) */\n      0x08fc\n        /* \"contracts/escrow.sol\":3849:3879  address(this).balance.sub(fee) */\n      tag_151\n        /* \"contracts/escrow.sol\":3875:3878  fee */\n      sload(0x0d)\n        /* \"contracts/escrow.sol\":3849:3870  address(this).balance */\n      selfbalance\n        /* \"contracts/escrow.sol\":3849:3874  address(this).balance.sub */\n      tag_138\n      swap1\n        /* \"contracts/escrow.sol\":3849:3879  address(this).balance.sub(fee) */\n      swap2\n      swap1\n      0xffffffff\n      and\n      jump\t// in\n    tag_151:\n        /* \"contracts/escrow.sol\":3834:3880  buyer.transfer(address(this).balance.sub(fee)) */\n      swap1\n      dup2\n      iszero\n      mul\n      swap1\n      mload(0x40)\n      0x00\n      mload(0x40)\n      dup1\n      dup4\n      sub\n      dup2\n      dup6\n      dup9\n      dup9\n      call\n      swap4\n      pop\n      pop\n      pop\n      pop\n      iszero\n      dup1\n      iszero\n      tag_153\n      jumpi\n      returndatasize\n      0x00\n      dup1\n      returndatacopy\n      revert(0x00, returndatasize)\n    tag_153:\n      pop\n        /* \"contracts/escrow.sol\":3895:3905  feeAddress */\n      0x03\n      0x00\n      swap1\n      sload\n      swap1\n      0x0100\n      exp\n      swap1\n      div\n      0xffffffffffffffffffffffffffffffffffffffff\n      and\n        /* \"contracts/escrow.sol\":3895:3914  feeAddress.transfer */\n      0xffffffffffffffffffffffffffffffffffffffff\n      and\n        /* \"contracts/escrow.sol\":3895:3919  feeAddress.transfer(fee) */\n      0x08fc\n        /* \"contracts/escrow.sol\":3915:3918  fee */\n      sload(0x0d)\n        /* \"contracts/escrow.sol\":3895:3919  feeAddress.transfer(fee) */\n      swap1\n      dup2\n      iszero\n      mul\n      swap1\n      mload(0x40)\n      0x00\n      mload(0x40)\n      dup1\n      dup4\n      sub\n      dup2\n      dup6\n      dup9\n      dup9\n      call\n      swap4\n      pop\n      pop\n      pop\n      pop\n      iszero\n      dup1\n      iszero\n      tag_155\n      jumpi\n      returndatasize\n      0x00\n      dup1\n      returndatacopy\n      revert(0x00, returndatasize)\n    tag_155:\n      pop\n        /* \"contracts/escrow.sol\":3658:4906  if  (buyerBalance > securityDeposit && block.timestamp > endDate + (daysForWithdrawal * 1 days)) {... */\n      jump(tag_156)\n    tag_147:\n        /* \"contracts/escrow.sol\":4055:4056  0 */\n      0x00\n        /* \"contracts/escrow.sol\":4030:4051  address(this).balance */\n      selfbalance\n        /* \"contracts/escrow.sol\":4030:4056  address(this).balance != 0 */\n      eq\n      iszero\n        /* \"contracts/escrow.sol\":4030:4100  address(this).balance != 0 && sellerBalance < sellerPreAgreementAmount */\n      dup1\n      iszero\n      tag_157\n      jumpi\n      pop\n        /* \"contracts/escrow.sol\":4076:4100  sellerPreAgreementAmount */\n      sload(0x08)\n        /* \"contracts/escrow.sol\":4060:4073  sellerBalance */\n      sload(0x05)\n        /* \"contracts/escrow.sol\":4060:4100  sellerBalance < sellerPreAgreementAmount */\n      lt\n        /* \"contracts/escrow.sol\":4030:4100  address(this).balance != 0 && sellerBalance < sellerPreAgreementAmount */\n    tag_157:\n        /* \"contracts/escrow.sol\":4030:4142  address(this).balance != 0 && sellerBalance < sellerPreAgreementAmount && buyerBalance < buyerPreAgreementAmount */\n      dup1\n      iszero\n      tag_158\n      jumpi\n      pop\n        /* \"contracts/escrow.sol\":4119:4142  buyerPreAgreementAmount */\n      sload(0x09)\n        /* \"contracts/escrow.sol\":4104:4116  buyerBalance */\n      sload(0x06)\n        /* \"contracts/escrow.sol\":4104:4142  buyerBalance < buyerPreAgreementAmount */\n      lt\n        /* \"contracts/escrow.sol\":4030:4142  address(this).balance != 0 && sellerBalance < sellerPreAgreementAmount && buyerBalance < buyerPreAgreementAmount */\n    tag_158:\n        /* \"contracts/escrow.sol\":4030:4202  address(this).balance != 0 && sellerBalance < sellerPreAgreementAmount && buyerBalance < buyerPreAgreementAmount && block.timestamp > endDate + (daysForWithdrawal * 1 days) */\n      dup1\n      iszero\n      tag_159\n      jumpi\n      pop\n        /* \"contracts/escrow.sol\":4195:4201  1 days */\n      0x015180\n        /* \"contracts/escrow.sol\":4175:4192  daysForWithdrawal */\n      sload(0x0b)\n        /* \"contracts/escrow.sol\":4175:4201  daysForWithdrawal * 1 days */\n      tag_160\n      swap2\n      swap1\n      tag_130\n      jump\t// in\n    tag_160:\n        /* \"contracts/escrow.sol\":4164:4171  endDate */\n      sload(0x0a)\n        /* \"contracts/escrow.sol\":4164:4202  endDate + (daysForWithdrawal * 1 days) */\n      tag_161\n      swap2\n      swap1\n      tag_132\n      jump\t// in\n    tag_161:\n        /* \"contracts/escrow.sol\":4146:4161  block.timestamp */\n      timestamp\n        /* \"contracts/escrow.sol\":4146:4202  block.timestamp > endDate + (daysForWithdrawal * 1 days) */\n      gt\n        /* \"contracts/escrow.sol\":4030:4202  address(this).balance != 0 && sellerBalance < sellerPreAgreementAmount && buyerBalance < buyerPreAgreementAmount && block.timestamp > endDate + (daysForWithdrawal * 1 days) */\n    tag_159:\n        /* \"contracts/escrow.sol\":4026:4906  if (address(this).balance != 0 && sellerBalance < sellerPreAgreementAmount && buyerBalance < buyerPreAgreementAmount && block.timestamp > endDate + (daysForWithdrawal * 1 days)){... */\n      iszero\n      tag_162\n      jumpi\n        /* \"contracts/escrow.sol\":4239:4244  buyer */\n      0x02\n      0x00\n      swap1\n      sload\n      swap1\n      0x0100\n      exp\n      swap1\n      div\n      0xffffffffffffffffffffffffffffffffffffffff\n      and\n        /* \"contracts/escrow.sol\":4230:4244  _user == buyer */\n      0xffffffffffffffffffffffffffffffffffffffff\n      and\n        /* \"contracts/escrow.sol\":4230:4235  _user */\n      dup2\n        /* \"contracts/escrow.sol\":4230:4244  _user == buyer */\n      0xffffffffffffffffffffffffffffffffffffffff\n      and\n      eq\n        /* \"contracts/escrow.sol\":4230:4263  _user == buyer || _user == seller */\n      dup1\n      tag_163\n      jumpi\n      pop\n        /* \"contracts/escrow.sol\":4257:4263  seller */\n      0x01\n      0x00\n      swap1\n      sload\n      swap1\n      0x0100\n      exp\n      swap1\n      div\n      0xffffffffffffffffffffffffffffffffffffffff\n      and\n        /* \"contracts/escrow.sol\":4248:4263  _user == seller */\n      0xffffffffffffffffffffffffffffffffffffffff\n      and\n        /* \"contracts/escrow.sol\":4248:4253  _user */\n      dup2\n        /* \"contracts/escrow.sol\":4248:4263  _user == seller */\n      0xffffffffffffffffffffffffffffffffffffffff\n      and\n      eq\n        /* \"contracts/escrow.sol\":4230:4263  _user == buyer || _user == seller */\n    tag_163:\n        /* \"contracts/escrow.sol\":4222:4301  require(_user == buyer || _user == seller, \"Just buyer or seller can withdraw\") */\n      tag_164\n      jumpi\n      mload(0x40)\n      0x08c379a000000000000000000000000000000000000000000000000000000000\n      dup2\n      mstore\n      0x04\n      add\n      tag_165\n      swap1\n      tag_166\n      jump\t// in\n    tag_165:\n      mload(0x40)\n      dup1\n      swap2\n      sub\n      swap1\n      revert\n    tag_164:\n        /* \"contracts/escrow.sol\":4333:4338  buyer */\n      0x02\n      0x00\n      swap1\n      sload\n      swap1\n      0x0100\n      exp\n      swap1\n      div\n      0xffffffffffffffffffffffffffffffffffffffff\n      and\n        /* \"contracts/escrow.sol\":4324:4338  _user == buyer */\n      0xffffffffffffffffffffffffffffffffffffffff\n      and\n        /* \"contracts/escrow.sol\":4324:4329  _user */\n      dup2\n        /* \"contracts/escrow.sol\":4324:4338  _user == buyer */\n      0xffffffffffffffffffffffffffffffffffffffff\n      and\n      eq\n        /* \"contracts/escrow.sol\":4324:4359  _user == buyer && buyerBalance != 0 */\n      dup1\n      iszero\n      tag_167\n      jumpi\n      pop\n        /* \"contracts/escrow.sol\":4358:4359  0 */\n      0x00\n        /* \"contracts/escrow.sol\":4342:4354  buyerBalance */\n      sload(0x06)\n        /* \"contracts/escrow.sol\":4342:4359  buyerBalance != 0 */\n      eq\n      iszero\n        /* \"contracts/escrow.sol\":4324:4359  _user == buyer && buyerBalance != 0 */\n    tag_167:\n        /* \"contracts/escrow.sol\":4320:4895  if (_user == buyer && buyerBalance != 0){... */\n      iszero\n      tag_168\n      jumpi\n        /* \"contracts/escrow.sol\":4389:4427  buyerBalance.mul(transferFee).div(100) */\n      tag_169\n        /* \"contracts/escrow.sol\":4423:4426  100 */\n      0x64\n        /* \"contracts/escrow.sol\":4389:4418  buyerBalance.mul(transferFee) */\n      tag_170\n        /* \"contracts/escrow.sol\":4406:4417  transferFee */\n      sload(0x0c)\n        /* \"contracts/escrow.sol\":4389:4401  buyerBalance */\n      sload(0x06)\n        /* \"contracts/escrow.sol\":4389:4405  buyerBalance.mul */\n      tag_125\n      swap1\n        /* \"contracts/escrow.sol\":4389:4418  buyerBalance.mul(transferFee) */\n      swap2\n      swap1\n      0xffffffff\n      and\n      jump\t// in\n    tag_170:\n        /* \"contracts/escrow.sol\":4389:4422  buyerBalance.mul(transferFee).div */\n      tag_126\n      swap1\n        /* \"contracts/escrow.sol\":4389:4427  buyerBalance.mul(transferFee).div(100) */\n      swap2\n      swap1\n      0xffffffff\n      and\n      jump\t// in\n    tag_169:\n        /* \"contracts/escrow.sol\":4383:4386  fee */\n      0x0d\n        /* \"contracts/escrow.sol\":4383:4427  fee = buyerBalance.mul(transferFee).div(100) */\n      dup2\n      swap1\n      sstore\n      pop\n        /* \"contracts/escrow.sol\":4450:4455  buyer */\n      0x02\n      0x00\n      swap1\n      sload\n      swap1\n      0x0100\n      exp\n      swap1\n      div\n      0xffffffffffffffffffffffffffffffffffffffff\n      and\n        /* \"contracts/escrow.sol\":4450:4464  buyer.transfer */\n      0xffffffffffffffffffffffffffffffffffffffff\n      and\n        /* \"contracts/escrow.sol\":4450:4487  buyer.transfer(buyerBalance.sub(fee)) */\n      0x08fc\n        /* \"contracts/escrow.sol\":4465:4486  buyerBalance.sub(fee) */\n      tag_171\n        /* \"contracts/escrow.sol\":4482:4485  fee */\n      sload(0x0d)\n        /* \"contracts/escrow.sol\":4465:4477  buyerBalance */\n      sload(0x06)\n        /* \"contracts/escrow.sol\":4465:4481  buyerBalance.sub */\n      tag_138\n      swap1\n        /* \"contracts/escrow.sol\":4465:4486  buyerBalance.sub(fee) */\n      swap2\n      swap1\n      0xffffffff\n      and\n      jump\t// in\n    tag_171:\n        /* \"contracts/escrow.sol\":4450:4487  buyer.transfer(buyerBalance.sub(fee)) */\n      swap1\n      dup2\n      iszero\n      mul\n      swap1\n      mload(0x40)\n      0x00\n      mload(0x40)\n      dup1\n      dup4\n      sub\n      dup2\n      dup6\n      dup9\n      dup9\n      call\n      swap4\n      pop\n      pop\n      pop\n      pop\n      iszero\n      dup1\n      iszero\n      tag_173\n      jumpi\n      returndatasize\n      0x00\n      dup1\n      returndatacopy\n      revert(0x00, returndatasize)\n    tag_173:\n      pop\n        /* \"contracts/escrow.sol\":4510:4520  feeAddress */\n      0x03\n      0x00\n      swap1\n      sload\n      swap1\n      0x0100\n      exp\n      swap1\n      div\n      0xffffffffffffffffffffffffffffffffffffffff\n      and\n        /* \"contracts/escrow.sol\":4510:4529  feeAddress.transfer */\n      0xffffffffffffffffffffffffffffffffffffffff\n      and\n        /* \"contracts/escrow.sol\":4510:4534  feeAddress.transfer(fee) */\n      0x08fc\n        /* \"contracts/escrow.sol\":4530:4533  fee */\n      sload(0x0d)\n        /* \"contracts/escrow.sol\":4510:4534  feeAddress.transfer(fee) */\n      swap1\n      dup2\n      iszero\n      mul\n      swap1\n      mload(0x40)\n      0x00\n      mload(0x40)\n      dup1\n      dup4\n      sub\n      dup2\n      dup6\n      dup9\n      dup9\n      call\n      swap4\n      pop\n      pop\n      pop\n      pop\n      iszero\n      dup1\n      iszero\n      tag_175\n      jumpi\n      returndatasize\n      0x00\n      dup1\n      returndatacopy\n      revert(0x00, returndatasize)\n    tag_175:\n      pop\n        /* \"contracts/escrow.sol\":4572:4573  0 */\n      0x00\n        /* \"contracts/escrow.sol\":4557:4569  buyerBalance */\n      0x06\n        /* \"contracts/escrow.sol\":4557:4573  buyerBalance = 0 */\n      dup2\n      swap1\n      sstore\n      pop\n        /* \"contracts/escrow.sol\":4320:4895  if (_user == buyer && buyerBalance != 0){... */\n      jump(tag_176)\n    tag_168:\n        /* \"contracts/escrow.sol\":4628:4634  seller */\n      0x01\n      0x00\n      swap1\n      sload\n      swap1\n      0x0100\n      exp\n      swap1\n      div\n      0xffffffffffffffffffffffffffffffffffffffff\n      and\n        /* \"contracts/escrow.sol\":4619:4634  _user == seller */\n      0xffffffffffffffffffffffffffffffffffffffff\n      and\n        /* \"contracts/escrow.sol\":4619:4624  _user */\n      dup2\n        /* \"contracts/escrow.sol\":4619:4634  _user == seller */\n      0xffffffffffffffffffffffffffffffffffffffff\n      and\n      eq\n        /* \"contracts/escrow.sol\":4619:4656  _user == seller && sellerBalance != 0 */\n      dup1\n      iszero\n      tag_177\n      jumpi\n      pop\n        /* \"contracts/escrow.sol\":4655:4656  0 */\n      0x00\n        /* \"contracts/escrow.sol\":4638:4651  sellerBalance */\n      sload(0x05)\n        /* \"contracts/escrow.sol\":4638:4656  sellerBalance != 0 */\n      eq\n      iszero\n        /* \"contracts/escrow.sol\":4619:4656  _user == seller && sellerBalance != 0 */\n    tag_177:\n        /* \"contracts/escrow.sol\":4616:4895  if(_user == seller && sellerBalance != 0) {... */\n      iszero\n      tag_178\n      jumpi\n        /* \"contracts/escrow.sol\":4687:4726  sellerBalance.mul(transferFee).div(100) */\n      tag_179\n        /* \"contracts/escrow.sol\":4722:4725  100 */\n      0x64\n        /* \"contracts/escrow.sol\":4687:4717  sellerBalance.mul(transferFee) */\n      tag_180\n        /* \"contracts/escrow.sol\":4705:4716  transferFee */\n      sload(0x0c)\n        /* \"contracts/escrow.sol\":4687:4700  sellerBalance */\n      sload(0x05)\n        /* \"contracts/escrow.sol\":4687:4704  sellerBalance.mul */\n      tag_125\n      swap1\n        /* \"contracts/escrow.sol\":4687:4717  sellerBalance.mul(transferFee) */\n      swap2\n      swap1\n      0xffffffff\n      and\n      jump\t// in\n    tag_180:\n        /* \"contracts/escrow.sol\":4687:4721  sellerBalance.mul(transferFee).div */\n      tag_126\n      swap1\n        /* \"contracts/escrow.sol\":4687:4726  sellerBalance.mul(transferFee).div(100) */\n      swap2\n      swap1\n      0xffffffff\n      and\n      jump\t// in\n    tag_179:\n        /* \"contracts/escrow.sol\":4681:4684  fee */\n      0x0d\n        /* \"contracts/escrow.sol\":4681:4726  fee = sellerBalance.mul(transferFee).div(100) */\n      dup2\n      swap1\n      sstore\n      pop\n        /* \"contracts/escrow.sol\":4749:4755  seller */\n      0x01\n      0x00\n      swap1\n      sload\n      swap1\n      0x0100\n      exp\n      swap1\n      div\n      0xffffffffffffffffffffffffffffffffffffffff\n      and\n        /* \"contracts/escrow.sol\":4749:4764  seller.transfer */\n      0xffffffffffffffffffffffffffffffffffffffff\n      and\n        /* \"contracts/escrow.sol\":4749:4788  seller.transfer(sellerBalance.sub(fee)) */\n      0x08fc\n        /* \"contracts/escrow.sol\":4765:4787  sellerBalance.sub(fee) */\n      tag_181\n        /* \"contracts/escrow.sol\":4783:4786  fee */\n      sload(0x0d)\n        /* \"contracts/escrow.sol\":4765:4778  sellerBalance */\n      sload(0x05)\n        /* \"contracts/escrow.sol\":4765:4782  sellerBalance.sub */\n      tag_138\n      swap1\n        /* \"contracts/escrow.sol\":4765:4787  sellerBalance.sub(fee) */\n      swap2\n      swap1\n      0xffffffff\n      and\n      jump\t// in\n    tag_181:\n        /* \"contracts/escrow.sol\":4749:4788  seller.transfer(sellerBalance.sub(fee)) */\n      swap1\n      dup2\n      iszero\n      mul\n      swap1\n      mload(0x40)\n      0x00\n      mload(0x40)\n      dup1\n      dup4\n      sub\n      dup2\n      dup6\n      dup9\n      dup9\n      call\n      swap4\n      pop\n      pop\n      pop\n      pop\n      iszero\n      dup1\n      iszero\n      tag_183\n      jumpi\n      returndatasize\n      0x00\n      dup1\n      returndatacopy\n      revert(0x00, returndatasize)\n    tag_183:\n      pop\n        /* \"contracts/escrow.sol\":4811:4821  feeAddress */\n      0x03\n      0x00\n      swap1\n      sload\n      swap1\n      0x0100\n      exp\n      swap1\n      div\n      0xffffffffffffffffffffffffffffffffffffffff\n      and\n        /* \"contracts/escrow.sol\":4811:4830  feeAddress.transfer */\n      0xffffffffffffffffffffffffffffffffffffffff\n      and\n        /* \"contracts/escrow.sol\":4811:4835  feeAddress.transfer(fee) */\n      0x08fc\n        /* \"contracts/escrow.sol\":4831:4834  fee */\n      sload(0x0d)\n        /* \"contracts/escrow.sol\":4811:4835  feeAddress.transfer(fee) */\n      swap1\n      dup2\n      iszero\n      mul\n      swap1\n      mload(0x40)\n      0x00\n      mload(0x40)\n      dup1\n      dup4\n      sub\n      dup2\n      dup6\n      dup9\n      dup9\n      call\n      swap4\n      pop\n      pop\n      pop\n      pop\n      iszero\n      dup1\n      iszero\n      tag_185\n      jumpi\n      returndatasize\n      0x00\n      dup1\n      returndatacopy\n      revert(0x00, returndatasize)\n    tag_185:\n      pop\n        /* \"contracts/escrow.sol\":4874:4875  0 */\n      0x00\n        /* \"contracts/escrow.sol\":4858:4871  sellerBalance */\n      0x05\n        /* \"contracts/escrow.sol\":4858:4875  sellerBalance = 0 */\n      dup2\n      swap1\n      sstore\n      pop\n        /* \"contracts/escrow.sol\":4616:4895  if(_user == seller && sellerBalance != 0) {... */\n    tag_178:\n        /* \"contracts/escrow.sol\":4320:4895  if (_user == buyer && buyerBalance != 0){... */\n    tag_176:\n        /* \"contracts/escrow.sol\":4026:4906  if (address(this).balance != 0 && sellerBalance < sellerPreAgreementAmount && buyerBalance < buyerPreAgreementAmount && block.timestamp > endDate + (daysForWithdrawal * 1 days)){... */\n    tag_162:\n        /* \"contracts/escrow.sol\":3658:4906  if  (buyerBalance > securityDeposit && block.timestamp > endDate + (daysForWithdrawal * 1 days)) {... */\n    tag_156:\n        /* \"contracts/escrow.sol\":3234:4906  if (sellerBalance > sellerPreAgreementAmount && block.timestamp > endDate && block.timestamp < endDate + (daysForWithdrawal * 1 days)) {... */\n    tag_143:\n        /* \"@openzeppelin/contracts/security/ReentrancyGuard.sol\":2303:2323  _nonReentrantAfter() */\n      tag_186\n        /* \"@openzeppelin/contracts/security/ReentrancyGuard.sol\":2303:2321  _nonReentrantAfter */\n      tag_187\n        /* \"@openzeppelin/contracts/security/ReentrancyGuard.sol\":2303:2323  _nonReentrantAfter() */\n      jump\t// in\n    tag_186:\n        /* \"contracts/escrow.sol\":2774:4917  function withdraw(address _user) external payable nonReentrant {... */\n      pop\n      jump\t// out\n        /* \"contracts/escrow.sol\":5552:5667  function returnBuyerPreAgreementAmount() public view returns(uint){... */\n    tag_63:\n        /* \"contracts/escrow.sol\":5613:5617  uint */\n      0x00\n        /* \"contracts/escrow.sol\":5636:5659  buyerPreAgreementAmount */\n      sload(0x09)\n        /* \"contracts/escrow.sol\":5629:5659  return buyerPreAgreementAmount */\n      swap1\n      pop\n        /* \"contracts/escrow.sol\":5552:5667  function returnBuyerPreAgreementAmount() public view returns(uint){... */\n      swap1\n      jump\t// out\n        /* \"contracts/escrow.sol\":830:862  uint256 public daysForWithdrawal */\n    tag_67:\n      sload(0x0b)\n      dup2\n      jump\t// out\n        /* \"contracts/escrow.sol\":496:524  uint256 public sellerBalance */\n    tag_71:\n      sload(0x05)\n      dup2\n      jump\t// out\n        /* \"contracts/escrow.sol\":459:489  uint256 public contractBalance */\n    tag_75:\n      sload(0x04)\n      dup2\n      jump\t// out\n        /* \"contracts/escrow.sol\":756:794  uint256 public buyerPreAgreementAmount */\n    tag_79:\n      sload(0x09)\n      dup2\n      jump\t// out\n        /* \"contracts/escrow.sol\":710:749  uint256 public sellerPreAgreementAmount */\n    tag_83:\n      sload(0x08)\n      dup2\n      jump\t// out\n        /* \"contracts/escrow.sol\":4928:5012  function returnSeller() public view returns(address){... */\n    tag_87:\n        /* \"contracts/escrow.sol\":4972:4979  address */\n      0x00\n        /* \"contracts/escrow.sol\":4998:5004  seller */\n      0x01\n      0x00\n      swap1\n      sload\n      swap1\n      0x0100\n      exp\n      swap1\n      div\n      0xffffffffffffffffffffffffffffffffffffffff\n      and\n        /* \"contracts/escrow.sol\":4991:5004  return seller */\n      swap1\n      pop\n        /* \"contracts/escrow.sol\":4928:5012  function returnSeller() public view returns(address){... */\n      swap1\n      jump\t// out\n        /* \"contracts/escrow.sol\":801:823  uint256 public endDate */\n    tag_91:\n      sload(0x0a)\n      dup2\n      jump\t// out\n        /* \"contracts/escrow.sol\":5427:5544  function returnSellerPreAgreementAmount() public view returns(uint){... */\n    tag_95:\n        /* \"contracts/escrow.sol\":5489:5493  uint */\n      0x00\n        /* \"contracts/escrow.sol\":5512:5536  sellerPreAgreementAmount */\n      sload(0x08)\n        /* \"contracts/escrow.sol\":5505:5536  return sellerPreAgreementAmount */\n      swap1\n      pop\n        /* \"contracts/escrow.sol\":5427:5544  function returnSellerPreAgreementAmount() public view returns(uint){... */\n      swap1\n      jump\t// out\n        /* \"contracts/escrow.sol\":5320:5419  function returnSecurityDeposit() public view returns(uint){... */\n    tag_99:\n        /* \"contracts/escrow.sol\":5373:5377  uint */\n      0x00\n        /* \"contracts/escrow.sol\":5396:5411  securityDeposit */\n      sload(0x07)\n        /* \"contracts/escrow.sol\":5389:5411  return securityDeposit */\n      swap1\n      pop\n        /* \"contracts/escrow.sol\":5320:5419  function returnSecurityDeposit() public view returns(uint){... */\n      swap1\n      jump\t// out\n        /* \"contracts/escrow.sol\":531:558  uint256 public buyerBalance */\n    tag_103:\n      sload(0x06)\n      dup2\n      jump\t// out\n        /* \"contracts/escrow.sol\":2298:2683  function deposit(address _user) external payable {... */\n    tag_107:\n        /* \"contracts/escrow.sol\":2375:2381  seller */\n      0x01\n      0x00\n      swap1\n      sload\n      swap1\n      0x0100\n      exp\n      swap1\n      div\n      0xffffffffffffffffffffffffffffffffffffffff\n      and\n        /* \"contracts/escrow.sol\":2366:2381  _user == seller */\n      0xffffffffffffffffffffffffffffffffffffffff\n      and\n        /* \"contracts/escrow.sol\":2366:2371  _user */\n      dup2\n        /* \"contracts/escrow.sol\":2366:2381  _user == seller */\n      0xffffffffffffffffffffffffffffffffffffffff\n      and\n      eq\n        /* \"contracts/escrow.sol\":2366:2399  _user == seller || _user == buyer */\n      dup1\n      tag_193\n      jumpi\n      pop\n        /* \"contracts/escrow.sol\":2394:2399  buyer */\n      0x02\n      0x00\n      swap1\n      sload\n      swap1\n      0x0100\n      exp\n      swap1\n      div\n      0xffffffffffffffffffffffffffffffffffffffff\n      and\n        /* \"contracts/escrow.sol\":2385:2399  _user == buyer */\n      0xffffffffffffffffffffffffffffffffffffffff\n      and\n        /* \"contracts/escrow.sol\":2385:2390  _user */\n      dup2\n        /* \"contracts/escrow.sol\":2385:2399  _user == buyer */\n      0xffffffffffffffffffffffffffffffffffffffff\n      and\n      eq\n        /* \"contracts/escrow.sol\":2366:2399  _user == seller || _user == buyer */\n    tag_193:\n        /* \"contracts/escrow.sol\":2358:2446  require(_user == seller || _user == buyer, \"Only the seller or buyer can deposit funds\") */\n      tag_194\n      jumpi\n      mload(0x40)\n      0x08c379a000000000000000000000000000000000000000000000000000000000\n      dup2\n      mstore\n      0x04\n      add\n      tag_195\n      swap1\n      tag_196\n      jump\t// in\n    tag_195:\n      mload(0x40)\n      dup1\n      swap2\n      sub\n      swap1\n      revert\n    tag_194:\n        /* \"contracts/escrow.sol\":2470:2476  seller */\n      0x01\n      0x00\n      swap1\n      sload\n      swap1\n      0x0100\n      exp\n      swap1\n      div\n      0xffffffffffffffffffffffffffffffffffffffff\n      and\n        /* \"contracts/escrow.sol\":2461:2476  _user == seller */\n      0xffffffffffffffffffffffffffffffffffffffff\n      and\n        /* \"contracts/escrow.sol\":2461:2466  _user */\n      dup2\n        /* \"contracts/escrow.sol\":2461:2476  _user == seller */\n      0xffffffffffffffffffffffffffffffffffffffff\n      and\n      sub\n        /* \"contracts/escrow.sol\":2457:2589  if (_user == seller) {... */\n      tag_197\n      jumpi\n        /* \"contracts/escrow.sol\":2510:2519  msg.value */\n      callvalue\n        /* \"contracts/escrow.sol\":2493:2506  sellerBalance */\n      0x05\n      0x00\n        /* \"contracts/escrow.sol\":2493:2519  sellerBalance += msg.value */\n      dup3\n      dup3\n      sload\n      tag_198\n      swap2\n      swap1\n      tag_132\n      jump\t// in\n    tag_198:\n      swap3\n      pop\n      pop\n      dup2\n      swap1\n      sstore\n      pop\n        /* \"contracts/escrow.sol\":2457:2589  if (_user == seller) {... */\n      jump(tag_199)\n    tag_197:\n        /* \"contracts/escrow.sol\":2568:2577  msg.value */\n      callvalue\n        /* \"contracts/escrow.sol\":2552:2564  buyerBalance */\n      0x06\n      0x00\n        /* \"contracts/escrow.sol\":2552:2577  buyerBalance += msg.value */\n      dup3\n      dup3\n      sload\n      tag_200\n      swap2\n      swap1\n      tag_132\n      jump\t// in\n    tag_200:\n      swap3\n      pop\n      pop\n      dup2\n      swap1\n      sstore\n      pop\n        /* \"contracts/escrow.sol\":2457:2589  if (_user == seller) {... */\n    tag_199:\n        /* \"contracts/escrow.sol\":2618:2627  msg.value */\n      callvalue\n        /* \"contracts/escrow.sol\":2599:2614  contractBalance */\n      0x04\n      0x00\n        /* \"contracts/escrow.sol\":2599:2627  contractBalance += msg.value */\n      dup3\n      dup3\n      sload\n      tag_201\n      swap2\n      swap1\n      tag_132\n      jump\t// in\n    tag_201:\n      swap3\n      pop\n      pop\n      dup2\n      swap1\n      sstore\n      pop\n        /* \"contracts/escrow.sol\":2658:2663  _user */\n      dup1\n        /* \"contracts/escrow.sol\":2643:2675  FundsDeposited(_user, msg.value) */\n      0xffffffffffffffffffffffffffffffffffffffff\n      and\n      0x543ba50a5eec5e6178218e364b1d0f396157b3c8fa278522c2cb7fd99407d474\n        /* \"contracts/escrow.sol\":2665:2674  msg.value */\n      callvalue\n        /* \"contracts/escrow.sol\":2643:2675  FundsDeposited(_user, msg.value) */\n      mload(0x40)\n      tag_202\n      swap2\n      swap1\n      tag_28\n      jump\t// in\n    tag_202:\n      mload(0x40)\n      dup1\n      swap2\n      sub\n      swap1\n      log2\n        /* \"contracts/escrow.sol\":2298:2683  function deposit(address _user) external payable {... */\n      pop\n      jump\t// out\n        /* \"@openzeppelin/contracts/security/ReentrancyGuard.sol\":2336:2623  function _nonReentrantBefore() private {... */\n    tag_115:\n        /* \"@openzeppelin/contracts/security/ReentrancyGuard.sol\":1759:1760  2 */\n      0x02\n        /* \"@openzeppelin/contracts/security/ReentrancyGuard.sol\":2468:2475  _status */\n      sload(0x00)\n        /* \"@openzeppelin/contracts/security/ReentrancyGuard.sol\":2468:2487  _status != _ENTERED */\n      sub\n        /* \"@openzeppelin/contracts/security/ReentrancyGuard.sol\":2460:2523  require(_status != _ENTERED, \"ReentrancyGuard: reentrant call\") */\n      tag_204\n      jumpi\n      mload(0x40)\n      0x08c379a000000000000000000000000000000000000000000000000000000000\n      dup2\n      mstore\n      0x04\n      add\n      tag_205\n      swap1\n      tag_206\n      jump\t// in\n    tag_205:\n      mload(0x40)\n      dup1\n      swap2\n      sub\n      swap1\n      revert\n    tag_204:\n        /* \"@openzeppelin/contracts/security/ReentrancyGuard.sol\":1759:1760  2 */\n      0x02\n        /* \"@openzeppelin/contracts/security/ReentrancyGuard.sol\":2598:2605  _status */\n      0x00\n        /* \"@openzeppelin/contracts/security/ReentrancyGuard.sol\":2598:2616  _status = _ENTERED */\n      dup2\n      swap1\n      sstore\n      pop\n        /* \"@openzeppelin/contracts/security/ReentrancyGuard.sol\":2336:2623  function _nonReentrantBefore() private {... */\n      jump\t// out\n        /* \"@openzeppelin/contracts/utils/math/SafeMath.sol\":3465:3561  function mul(uint256 a, uint256 b) internal pure returns (uint256) {... */\n    tag_125:\n        /* \"@openzeppelin/contracts/utils/math/SafeMath.sol\":3523:3530  uint256 */\n      0x00\n        /* \"@openzeppelin/contracts/utils/math/SafeMath.sol\":3553:3554  b */\n      dup2\n        /* \"@openzeppelin/contracts/utils/math/SafeMath.sol\":3549:3550  a */\n      dup4\n        /* \"@openzeppelin/contracts/utils/math/SafeMath.sol\":3549:3554  a * b */\n      tag_208\n      swap2\n      swap1\n      tag_130\n      jump\t// in\n    tag_208:\n        /* \"@openzeppelin/contracts/utils/math/SafeMath.sol\":3542:3554  return a * b */\n      swap1\n      pop\n        /* \"@openzeppelin/contracts/utils/math/SafeMath.sol\":3465:3561  function mul(uint256 a, uint256 b) internal pure returns (uint256) {... */\n      swap3\n      swap2\n      pop\n      pop\n      jump\t// out\n        /* \"@openzeppelin/contracts/utils/math/SafeMath.sol\":3850:3946  function div(uint256 a, uint256 b) internal pure returns (uint256) {... */\n    tag_126:\n        /* \"@openzeppelin/contracts/utils/math/SafeMath.sol\":3908:3915  uint256 */\n      0x00\n        /* \"@openzeppelin/contracts/utils/math/SafeMath.sol\":3938:3939  b */\n      dup2\n        /* \"@openzeppelin/contracts/utils/math/SafeMath.sol\":3934:3935  a */\n      dup4\n        /* \"@openzeppelin/contracts/utils/math/SafeMath.sol\":3934:3939  a / b */\n      tag_210\n      swap2\n      swap1\n      tag_211\n      jump\t// in\n    tag_210:\n        /* \"@openzeppelin/contracts/utils/math/SafeMath.sol\":3927:3939  return a / b */\n      swap1\n      pop\n        /* \"@openzeppelin/contracts/utils/math/SafeMath.sol\":3850:3946  function div(uint256 a, uint256 b) internal pure returns (uint256) {... */\n      swap3\n      swap2\n      pop\n      pop\n      jump\t// out\n        /* \"@openzeppelin/contracts/utils/math/SafeMath.sol\":3122:3218  function sub(uint256 a, uint256 b) internal pure returns (uint256) {... */\n    tag_138:\n        /* \"@openzeppelin/contracts/utils/math/SafeMath.sol\":3180:3187  uint256 */\n      0x00\n        /* \"@openzeppelin/contracts/utils/math/SafeMath.sol\":3210:3211  b */\n      dup2\n        /* \"@openzeppelin/contracts/utils/math/SafeMath.sol\":3206:3207  a */\n      dup4\n        /* \"@openzeppelin/contracts/utils/math/SafeMath.sol\":3206:3211  a - b */\n      tag_213\n      swap2\n      swap1\n      tag_214\n      jump\t// in\n    tag_213:\n        /* \"@openzeppelin/contracts/utils/math/SafeMath.sol\":3199:3211  return a - b */\n      swap1\n      pop\n        /* \"@openzeppelin/contracts/utils/math/SafeMath.sol\":3122:3218  function sub(uint256 a, uint256 b) internal pure returns (uint256) {... */\n      swap3\n      swap2\n      pop\n      pop\n      jump\t// out\n        /* \"@openzeppelin/contracts/security/ReentrancyGuard.sol\":2629:2838  function _nonReentrantAfter() private {... */\n    tag_187:\n        /* \"@openzeppelin/contracts/security/ReentrancyGuard.sol\":1716:1717  1 */\n      0x01\n        /* \"@openzeppelin/contracts/security/ReentrancyGuard.sol\":2809:2816  _status */\n      0x00\n        /* \"@openzeppelin/contracts/security/ReentrancyGuard.sol\":2809:2831  _status = _NOT_ENTERED */\n      dup2\n      swap1\n      sstore\n      pop\n        /* \"@openzeppelin/contracts/security/ReentrancyGuard.sol\":2629:2838  function _nonReentrantAfter() private {... */\n      jump\t// out\n        /* \"#utility.yul\":7:84   */\n    tag_216:\n        /* \"#utility.yul\":44:51   */\n      0x00\n        /* \"#utility.yul\":73:78   */\n      dup2\n        /* \"#utility.yul\":62:78   */\n      swap1\n      pop\n        /* \"#utility.yul\":7:84   */\n      swap2\n      swap1\n      pop\n      jump\t// out\n        /* \"#utility.yul\":90:208   */\n    tag_217:\n        /* \"#utility.yul\":177:201   */\n      tag_246\n        /* \"#utility.yul\":195:200   */\n      dup2\n        /* \"#utility.yul\":177:201   */\n      tag_216\n      jump\t// in\n    tag_246:\n        /* \"#utility.yul\":172:175   */\n      dup3\n        /* \"#utility.yul\":165:202   */\n      mstore\n        /* \"#utility.yul\":90:208   */\n      pop\n      pop\n      jump\t// out\n        /* \"#utility.yul\":214:436   */\n    tag_28:\n        /* \"#utility.yul\":307:311   */\n      0x00\n        /* \"#utility.yul\":345:347   */\n      0x20\n        /* \"#utility.yul\":334:343   */\n      dup3\n        /* \"#utility.yul\":330:348   */\n      add\n        /* \"#utility.yul\":322:348   */\n      swap1\n      pop\n        /* \"#utility.yul\":358:429   */\n      tag_248\n        /* \"#utility.yul\":426:427   */\n      0x00\n        /* \"#utility.yul\":415:424   */\n      dup4\n        /* \"#utility.yul\":411:428   */\n      add\n        /* \"#utility.yul\":402:408   */\n      dup5\n        /* \"#utility.yul\":358:429   */\n      tag_217\n      jump\t// in\n    tag_248:\n        /* \"#utility.yul\":214:436   */\n      swap3\n      swap2\n      pop\n      pop\n      jump\t// out\n        /* \"#utility.yul\":442:568   */\n    tag_218:\n        /* \"#utility.yul\":479:486   */\n      0x00\n        /* \"#utility.yul\":519:561   */\n      0xffffffffffffffffffffffffffffffffffffffff\n        /* \"#utility.yul\":512:517   */\n      dup3\n        /* \"#utility.yul\":508:562   */\n      and\n        /* \"#utility.yul\":497:562   */\n      swap1\n      pop\n        /* \"#utility.yul\":442:568   */\n      swap2\n      swap1\n      pop\n      jump\t// out\n        /* \"#utility.yul\":574:670   */\n    tag_219:\n        /* \"#utility.yul\":611:618   */\n      0x00\n        /* \"#utility.yul\":640:664   */\n      tag_251\n        /* \"#utility.yul\":658:663   */\n      dup3\n        /* \"#utility.yul\":640:664   */\n      tag_218\n      jump\t// in\n    tag_251:\n        /* \"#utility.yul\":629:664   */\n      swap1\n      pop\n        /* \"#utility.yul\":574:670   */\n      swap2\n      swap1\n      pop\n      jump\t// out\n        /* \"#utility.yul\":676:794   */\n    tag_220:\n        /* \"#utility.yul\":763:787   */\n      tag_253\n        /* \"#utility.yul\":781:786   */\n      dup2\n        /* \"#utility.yul\":763:787   */\n      tag_219\n      jump\t// in\n    tag_253:\n        /* \"#utility.yul\":758:761   */\n      dup3\n        /* \"#utility.yul\":751:788   */\n      mstore\n        /* \"#utility.yul\":676:794   */\n      pop\n      pop\n      jump\t// out\n        /* \"#utility.yul\":800:1022   */\n    tag_56:\n        /* \"#utility.yul\":893:897   */\n      0x00\n        /* \"#utility.yul\":931:933   */\n      0x20\n        /* \"#utility.yul\":920:929   */\n      dup3\n        /* \"#utility.yul\":916:934   */\n      add\n        /* \"#utility.yul\":908:934   */\n      swap1\n      pop\n        /* \"#utility.yul\":944:1015   */\n      tag_255\n        /* \"#utility.yul\":1012:1013   */\n      0x00\n        /* \"#utility.yul\":1001:1010   */\n      dup4\n        /* \"#utility.yul\":997:1014   */\n      add\n        /* \"#utility.yul\":988:994   */\n      dup5\n        /* \"#utility.yul\":944:1015   */\n      tag_220\n      jump\t// in\n    tag_255:\n        /* \"#utility.yul\":800:1022   */\n      swap3\n      swap2\n      pop\n      pop\n      jump\t// out\n        /* \"#utility.yul\":1109:1226   */\n    tag_222:\n        /* \"#utility.yul\":1218:1219   */\n      0x00\n        /* \"#utility.yul\":1215:1216   */\n      dup1\n        /* \"#utility.yul\":1208:1220   */\n      revert\n        /* \"#utility.yul\":1355:1477   */\n    tag_224:\n        /* \"#utility.yul\":1428:1452   */\n      tag_260\n        /* \"#utility.yul\":1446:1451   */\n      dup2\n        /* \"#utility.yul\":1428:1452   */\n      tag_219\n      jump\t// in\n    tag_260:\n        /* \"#utility.yul\":1421:1426   */\n      dup2\n        /* \"#utility.yul\":1418:1453   */\n      eq\n        /* \"#utility.yul\":1408:1471   */\n      tag_261\n      jumpi\n        /* \"#utility.yul\":1467:1468   */\n      0x00\n        /* \"#utility.yul\":1464:1465   */\n      dup1\n        /* \"#utility.yul\":1457:1469   */\n      revert\n        /* \"#utility.yul\":1408:1471   */\n    tag_261:\n        /* \"#utility.yul\":1355:1477   */\n      pop\n      jump\t// out\n        /* \"#utility.yul\":1483:1622   */\n    tag_225:\n        /* \"#utility.yul\":1529:1534   */\n      0x00\n        /* \"#utility.yul\":1567:1573   */\n      dup2\n        /* \"#utility.yul\":1554:1574   */\n      calldataload\n        /* \"#utility.yul\":1545:1574   */\n      swap1\n      pop\n        /* \"#utility.yul\":1583:1616   */\n      tag_263\n        /* \"#utility.yul\":1610:1615   */\n      dup2\n        /* \"#utility.yul\":1583:1616   */\n      tag_224\n      jump\t// in\n    tag_263:\n        /* \"#utility.yul\":1483:1622   */\n      swap3\n      swap2\n      pop\n      pop\n      jump\t// out\n        /* \"#utility.yul\":1628:1957   */\n    tag_59:\n        /* \"#utility.yul\":1687:1693   */\n      0x00\n        /* \"#utility.yul\":1736:1738   */\n      0x20\n        /* \"#utility.yul\":1724:1733   */\n      dup3\n        /* \"#utility.yul\":1715:1722   */\n      dup5\n        /* \"#utility.yul\":1711:1734   */\n      sub\n        /* \"#utility.yul\":1707:1739   */\n      slt\n        /* \"#utility.yul\":1704:1823   */\n      iszero\n      tag_265\n      jumpi\n        /* \"#utility.yul\":1742:1821   */\n      tag_266\n      tag_222\n      jump\t// in\n    tag_266:\n        /* \"#utility.yul\":1704:1823   */\n    tag_265:\n        /* \"#utility.yul\":1862:1863   */\n      0x00\n        /* \"#utility.yul\":1887:1940   */\n      tag_267\n        /* \"#utility.yul\":1932:1939   */\n      dup5\n        /* \"#utility.yul\":1923:1929   */\n      dup3\n        /* \"#utility.yul\":1912:1921   */\n      dup6\n        /* \"#utility.yul\":1908:1930   */\n      add\n        /* \"#utility.yul\":1887:1940   */\n      tag_225\n      jump\t// in\n    tag_267:\n        /* \"#utility.yul\":1877:1940   */\n      swap2\n      pop\n        /* \"#utility.yul\":1833:1950   */\n      pop\n        /* \"#utility.yul\":1628:1957   */\n      swap3\n      swap2\n      pop\n      pop\n      jump\t// out\n        /* \"#utility.yul\":1963:2132   */\n    tag_226:\n        /* \"#utility.yul\":2047:2058   */\n      0x00\n        /* \"#utility.yul\":2081:2087   */\n      dup3\n        /* \"#utility.yul\":2076:2079   */\n      dup3\n        /* \"#utility.yul\":2069:2088   */\n      mstore\n        /* \"#utility.yul\":2121:2125   */\n      0x20\n        /* \"#utility.yul\":2116:2119   */\n      dup3\n        /* \"#utility.yul\":2112:2126   */\n      add\n        /* \"#utility.yul\":2097:2126   */\n      swap1\n      pop\n        /* \"#utility.yul\":1963:2132   */\n      swap3\n      swap2\n      pop\n      pop\n      jump\t// out\n        /* \"#utility.yul\":2138:2313   */\n    tag_227:\n        /* \"#utility.yul\":2278:2305   */\n      0x436f6e747261637420646f6e277420686176652066756e647300000000000000\n        /* \"#utility.yul\":2274:2275   */\n      0x00\n        /* \"#utility.yul\":2266:2272   */\n      dup3\n        /* \"#utility.yul\":2262:2276   */\n      add\n        /* \"#utility.yul\":2255:2306   */\n      mstore\n        /* \"#utility.yul\":2138:2313   */\n      pop\n      jump\t// out\n        /* \"#utility.yul\":2319:2685   */\n    tag_228:\n        /* \"#utility.yul\":2461:2464   */\n      0x00\n        /* \"#utility.yul\":2482:2549   */\n      tag_271\n        /* \"#utility.yul\":2546:2548   */\n      0x19\n        /* \"#utility.yul\":2541:2544   */\n      dup4\n        /* \"#utility.yul\":2482:2549   */\n      tag_226\n      jump\t// in\n    tag_271:\n        /* \"#utility.yul\":2475:2549   */\n      swap2\n      pop\n        /* \"#utility.yul\":2558:2651   */\n      tag_272\n        /* \"#utility.yul\":2647:2650   */\n      dup3\n        /* \"#utility.yul\":2558:2651   */\n      tag_227\n      jump\t// in\n    tag_272:\n        /* \"#utility.yul\":2676:2678   */\n      0x20\n        /* \"#utility.yul\":2671:2674   */\n      dup3\n        /* \"#utility.yul\":2667:2679   */\n      add\n        /* \"#utility.yul\":2660:2679   */\n      swap1\n      pop\n        /* \"#utility.yul\":2319:2685   */\n      swap2\n      swap1\n      pop\n      jump\t// out\n        /* \"#utility.yul\":2691:3110   */\n    tag_119:\n        /* \"#utility.yul\":2857:2861   */\n      0x00\n        /* \"#utility.yul\":2895:2897   */\n      0x20\n        /* \"#utility.yul\":2884:2893   */\n      dup3\n        /* \"#utility.yul\":2880:2898   */\n      add\n        /* \"#utility.yul\":2872:2898   */\n      swap1\n      pop\n        /* \"#utility.yul\":2944:2953   */\n      dup2\n        /* \"#utility.yul\":2938:2942   */\n      dup2\n        /* \"#utility.yul\":2934:2954   */\n      sub\n        /* \"#utility.yul\":2930:2931   */\n      0x00\n        /* \"#utility.yul\":2919:2928   */\n      dup4\n        /* \"#utility.yul\":2915:2932   */\n      add\n        /* \"#utility.yul\":2908:2955   */\n      mstore\n        /* \"#utility.yul\":2972:3103   */\n      tag_274\n        /* \"#utility.yul\":3098:3102   */\n      dup2\n        /* \"#utility.yul\":2972:3103   */\n      tag_228\n      jump\t// in\n    tag_274:\n        /* \"#utility.yul\":2964:3103   */\n      swap1\n      pop\n        /* \"#utility.yul\":2691:3110   */\n      swap2\n      swap1\n      pop\n      jump\t// out\n        /* \"#utility.yul\":3116:3286   */\n    tag_229:\n        /* \"#utility.yul\":3256:3278   */\n      0x54696d65206973206e6f74206f76657220796574000000000000000000000000\n        /* \"#utility.yul\":3252:3253   */\n      0x00\n        /* \"#utility.yul\":3244:3250   */\n      dup3\n        /* \"#utility.yul\":3240:3254   */\n      add\n        /* \"#utility.yul\":3233:3279   */\n      mstore\n        /* \"#utility.yul\":3116:3286   */\n      pop\n      jump\t// out\n        /* \"#utility.yul\":3292:3658   */\n    tag_230:\n        /* \"#utility.yul\":3434:3437   */\n      0x00\n        /* \"#utility.yul\":3455:3522   */\n      tag_277\n        /* \"#utility.yul\":3519:3521   */\n      0x14\n        /* \"#utility.yul\":3514:3517   */\n      dup4\n        /* \"#utility.yul\":3455:3522   */\n      tag_226\n      jump\t// in\n    tag_277:\n        /* \"#utility.yul\":3448:3522   */\n      swap2\n      pop\n        /* \"#utility.yul\":3531:3624   */\n      tag_278\n        /* \"#utility.yul\":3620:3623   */\n      dup3\n        /* \"#utility.yul\":3531:3624   */\n      tag_229\n      jump\t// in\n    tag_278:\n        /* \"#utility.yul\":3649:3651   */\n      0x20\n        /* \"#utility.yul\":3644:3647   */\n      dup3\n        /* \"#utility.yul\":3640:3652   */\n      add\n        /* \"#utility.yul\":3633:3652   */\n      swap1\n      pop\n        /* \"#utility.yul\":3292:3658   */\n      swap2\n      swap1\n      pop\n      jump\t// out\n        /* \"#utility.yul\":3664:4083   */\n    tag_122:\n        /* \"#utility.yul\":3830:3834   */\n      0x00\n        /* \"#utility.yul\":3868:3870   */\n      0x20\n        /* \"#utility.yul\":3857:3866   */\n      dup3\n        /* \"#utility.yul\":3853:3871   */\n      add\n        /* \"#utility.yul\":3845:3871   */\n      swap1\n      pop\n        /* \"#utility.yul\":3917:3926   */\n      dup2\n        /* \"#utility.yul\":3911:3915   */\n      dup2\n        /* \"#utility.yul\":3907:3927   */\n      sub\n        /* \"#utility.yul\":3903:3904   */\n      0x00\n        /* \"#utility.yul\":3892:3901   */\n      dup4\n        /* \"#utility.yul\":3888:3905   */\n      add\n        /* \"#utility.yul\":3881:3928   */\n      mstore\n        /* \"#utility.yul\":3945:4076   */\n      tag_280\n        /* \"#utility.yul\":4071:4075   */\n      dup2\n        /* \"#utility.yul\":3945:4076   */\n      tag_230\n      jump\t// in\n    tag_280:\n        /* \"#utility.yul\":3937:4076   */\n      swap1\n      pop\n        /* \"#utility.yul\":3664:4083   */\n      swap2\n      swap1\n      pop\n      jump\t// out\n        /* \"#utility.yul\":4089:4269   */\n    tag_231:\n        /* \"#utility.yul\":4137:4214   */\n      0x4e487b7100000000000000000000000000000000000000000000000000000000\n        /* \"#utility.yul\":4134:4135   */\n      0x00\n        /* \"#utility.yul\":4127:4215   */\n      mstore\n        /* \"#utility.yul\":4234:4238   */\n      0x11\n        /* \"#utility.yul\":4231:4232   */\n      0x04\n        /* \"#utility.yul\":4224:4239   */\n      mstore\n        /* \"#utility.yul\":4258:4262   */\n      0x24\n        /* \"#utility.yul\":4255:4256   */\n      0x00\n        /* \"#utility.yul\":4248:4263   */\n      revert\n        /* \"#utility.yul\":4275:4685   */\n    tag_130:\n        /* \"#utility.yul\":4315:4322   */\n      0x00\n        /* \"#utility.yul\":4338:4358   */\n      tag_283\n        /* \"#utility.yul\":4356:4357   */\n      dup3\n        /* \"#utility.yul\":4338:4358   */\n      tag_216\n      jump\t// in\n    tag_283:\n        /* \"#utility.yul\":4333:4358   */\n      swap2\n      pop\n        /* \"#utility.yul\":4372:4392   */\n      tag_284\n        /* \"#utility.yul\":4390:4391   */\n      dup4\n        /* \"#utility.yul\":4372:4392   */\n      tag_216\n      jump\t// in\n    tag_284:\n        /* \"#utility.yul\":4367:4392   */\n      swap3\n      pop\n        /* \"#utility.yul\":4427:4428   */\n      dup3\n        /* \"#utility.yul\":4424:4425   */\n      dup3\n        /* \"#utility.yul\":4420:4429   */\n      mul\n        /* \"#utility.yul\":4449:4479   */\n      tag_285\n        /* \"#utility.yul\":4467:4478   */\n      dup2\n        /* \"#utility.yul\":4449:4479   */\n      tag_216\n      jump\t// in\n    tag_285:\n        /* \"#utility.yul\":4438:4479   */\n      swap2\n      pop\n        /* \"#utility.yul\":4628:4629   */\n      dup3\n        /* \"#utility.yul\":4619:4626   */\n      dup3\n        /* \"#utility.yul\":4615:4630   */\n      div\n        /* \"#utility.yul\":4612:4613   */\n      dup5\n        /* \"#utility.yul\":4609:4631   */\n      eq\n        /* \"#utility.yul\":4589:4590   */\n      dup4\n        /* \"#utility.yul\":4582:4591   */\n      iszero\n        /* \"#utility.yul\":4562:4645   */\n      or\n        /* \"#utility.yul\":4539:4678   */\n      tag_286\n      jumpi\n        /* \"#utility.yul\":4658:4676   */\n      tag_287\n      tag_231\n      jump\t// in\n    tag_287:\n        /* \"#utility.yul\":4539:4678   */\n    tag_286:\n        /* \"#utility.yul\":4323:4685   */\n      pop\n        /* \"#utility.yul\":4275:4685   */\n      swap3\n      swap2\n      pop\n      pop\n      jump\t// out\n        /* \"#utility.yul\":4691:4882   */\n    tag_132:\n        /* \"#utility.yul\":4731:4734   */\n      0x00\n        /* \"#utility.yul\":4750:4770   */\n      tag_289\n        /* \"#utility.yul\":4768:4769   */\n      dup3\n        /* \"#utility.yul\":4750:4770   */\n      tag_216\n      jump\t// in\n    tag_289:\n        /* \"#utility.yul\":4745:4770   */\n      swap2\n      pop\n        /* \"#utility.yul\":4784:4804   */\n      tag_290\n        /* \"#utility.yul\":4802:4803   */\n      dup4\n        /* \"#utility.yul\":4784:4804   */\n      tag_216\n      jump\t// in\n    tag_290:\n        /* \"#utility.yul\":4779:4804   */\n      swap3\n      pop\n        /* \"#utility.yul\":4827:4828   */\n      dup3\n        /* \"#utility.yul\":4824:4825   */\n      dup3\n        /* \"#utility.yul\":4820:4829   */\n      add\n        /* \"#utility.yul\":4813:4829   */\n      swap1\n      pop\n        /* \"#utility.yul\":4848:4851   */\n      dup1\n        /* \"#utility.yul\":4845:4846   */\n      dup3\n        /* \"#utility.yul\":4842:4852   */\n      gt\n        /* \"#utility.yul\":4839:4875   */\n      iszero\n      tag_291\n      jumpi\n        /* \"#utility.yul\":4855:4873   */\n      tag_292\n      tag_231\n      jump\t// in\n    tag_292:\n        /* \"#utility.yul\":4839:4875   */\n    tag_291:\n        /* \"#utility.yul\":4691:4882   */\n      swap3\n      swap2\n      pop\n      pop\n      jump\t// out\n        /* \"#utility.yul\":4888:5060   */\n    tag_232:\n        /* \"#utility.yul\":5028:5052   */\n      0x596f7520617265206e6f74207468652073656c6c657200000000000000000000\n        /* \"#utility.yul\":5024:5025   */\n      0x00\n        /* \"#utility.yul\":5016:5022   */\n      dup3\n        /* \"#utility.yul\":5012:5026   */\n      add\n        /* \"#utility.yul\":5005:5053   */\n      mstore\n        /* \"#utility.yul\":4888:5060   */\n      pop\n      jump\t// out\n        /* \"#utility.yul\":5066:5432   */\n    tag_233:\n        /* \"#utility.yul\":5208:5211   */\n      0x00\n        /* \"#utility.yul\":5229:5296   */\n      tag_295\n        /* \"#utility.yul\":5293:5295   */\n      0x16\n        /* \"#utility.yul\":5288:5291   */\n      dup4\n        /* \"#utility.yul\":5229:5296   */\n      tag_226\n      jump\t// in\n    tag_295:\n        /* \"#utility.yul\":5222:5296   */\n      swap2\n      pop\n        /* \"#utility.yul\":5305:5398   */\n      tag_296\n        /* \"#utility.yul\":5394:5397   */\n      dup3\n        /* \"#utility.yul\":5305:5398   */\n      tag_232\n      jump\t// in\n    tag_296:\n        /* \"#utility.yul\":5423:5425   */\n      0x20\n        /* \"#utility.yul\":5418:5421   */\n      dup3\n        /* \"#utility.yul\":5414:5426   */\n      add\n        /* \"#utility.yul\":5407:5426   */\n      swap1\n      pop\n        /* \"#utility.yul\":5066:5432   */\n      swap2\n      swap1\n      pop\n      jump\t// out\n        /* \"#utility.yul\":5438:5857   */\n    tag_136:\n        /* \"#utility.yul\":5604:5608   */\n      0x00\n        /* \"#utility.yul\":5642:5644   */\n      0x20\n        /* \"#utility.yul\":5631:5640   */\n      dup3\n        /* \"#utility.yul\":5627:5645   */\n      add\n        /* \"#utility.yul\":5619:5645   */\n      swap1\n      pop\n        /* \"#utility.yul\":5691:5700   */\n      dup2\n        /* \"#utility.yul\":5685:5689   */\n      dup2\n        /* \"#utility.yul\":5681:5701   */\n      sub\n        /* \"#utility.yul\":5677:5678   */\n      0x00\n        /* \"#utility.yul\":5666:5675   */\n      dup4\n        /* \"#utility.yul\":5662:5679   */\n      add\n        /* \"#utility.yul\":5655:5702   */\n      mstore\n        /* \"#utility.yul\":5719:5850   */\n      tag_298\n        /* \"#utility.yul\":5845:5849   */\n      dup2\n        /* \"#utility.yul\":5719:5850   */\n      tag_233\n      jump\t// in\n    tag_298:\n        /* \"#utility.yul\":5711:5850   */\n      swap1\n      pop\n        /* \"#utility.yul\":5438:5857   */\n      swap2\n      swap1\n      pop\n      jump\t// out\n        /* \"#utility.yul\":5863:6034   */\n    tag_234:\n        /* \"#utility.yul\":6003:6026   */\n      0x596f7520617265206e6f74207468652062757965720000000000000000000000\n        /* \"#utility.yul\":5999:6000   */\n      0x00\n        /* \"#utility.yul\":5991:5997   */\n      dup3\n        /* \"#utility.yul\":5987:6001   */\n      add\n        /* \"#utility.yul\":5980:6027   */\n      mstore\n        /* \"#utility.yul\":5863:6034   */\n      pop\n      jump\t// out\n        /* \"#utility.yul\":6040:6406   */\n    tag_235:\n        /* \"#utility.yul\":6182:6185   */\n      0x00\n        /* \"#utility.yul\":6203:6270   */\n      tag_301\n        /* \"#utility.yul\":6267:6269   */\n      0x15\n        /* \"#utility.yul\":6262:6265   */\n      dup4\n        /* \"#utility.yul\":6203:6270   */\n      tag_226\n      jump\t// in\n    tag_301:\n        /* \"#utility.yul\":6196:6270   */\n      swap2\n      pop\n        /* \"#utility.yul\":6279:6372   */\n      tag_302\n        /* \"#utility.yul\":6368:6371   */\n      dup3\n        /* \"#utility.yul\":6279:6372   */\n      tag_234\n      jump\t// in\n    tag_302:\n        /* \"#utility.yul\":6397:6399   */\n      0x20\n        /* \"#utility.yul\":6392:6395   */\n      dup3\n        /* \"#utility.yul\":6388:6400   */\n      add\n        /* \"#utility.yul\":6381:6400   */\n      swap1\n      pop\n        /* \"#utility.yul\":6040:6406   */\n      swap2\n      swap1\n      pop\n      jump\t// out\n        /* \"#utility.yul\":6412:6831   */\n    tag_150:\n        /* \"#utility.yul\":6578:6582   */\n      0x00\n        /* \"#utility.yul\":6616:6618   */\n      0x20\n        /* \"#utility.yul\":6605:6614   */\n      dup3\n        /* \"#utility.yul\":6601:6619   */\n      add\n        /* \"#utility.yul\":6593:6619   */\n      swap1\n      pop\n        /* \"#utility.yul\":6665:6674   */\n      dup2\n        /* \"#utility.yul\":6659:6663   */\n      dup2\n        /* \"#utility.yul\":6655:6675   */\n      sub\n        /* \"#utility.yul\":6651:6652   */\n      0x00\n        /* \"#utility.yul\":6640:6649   */\n      dup4\n        /* \"#utility.yul\":6636:6653   */\n      add\n        /* \"#utility.yul\":6629:6676   */\n      mstore\n        /* \"#utility.yul\":6693:6824   */\n      tag_304\n        /* \"#utility.yul\":6819:6823   */\n      dup2\n        /* \"#utility.yul\":6693:6824   */\n      tag_235\n      jump\t// in\n    tag_304:\n        /* \"#utility.yul\":6685:6824   */\n      swap1\n      pop\n        /* \"#utility.yul\":6412:6831   */\n      swap2\n      swap1\n      pop\n      jump\t// out\n        /* \"#utility.yul\":6837:7057   */\n    tag_236:\n        /* \"#utility.yul\":6977:7011   */\n      0x4a757374206275796572206f722073656c6c65722063616e2077697468647261\n        /* \"#utility.yul\":6973:6974   */\n      0x00\n        /* \"#utility.yul\":6965:6971   */\n      dup3\n        /* \"#utility.yul\":6961:6975   */\n      add\n        /* \"#utility.yul\":6954:7012   */\n      mstore\n        /* \"#utility.yul\":7046:7049   */\n      0x7700000000000000000000000000000000000000000000000000000000000000\n        /* \"#utility.yul\":7041:7043   */\n      0x20\n        /* \"#utility.yul\":7033:7039   */\n      dup3\n        /* \"#utility.yul\":7029:7044   */\n      add\n        /* \"#utility.yul\":7022:7050   */\n      mstore\n        /* \"#utility.yul\":6837:7057   */\n      pop\n      jump\t// out\n        /* \"#utility.yul\":7063:7429   */\n    tag_237:\n        /* \"#utility.yul\":7205:7208   */\n      0x00\n        /* \"#utility.yul\":7226:7293   */\n      tag_307\n        /* \"#utility.yul\":7290:7292   */\n      0x21\n        /* \"#utility.yul\":7285:7288   */\n      dup4\n        /* \"#utility.yul\":7226:7293   */\n      tag_226\n      jump\t// in\n    tag_307:\n        /* \"#utility.yul\":7219:7293   */\n      swap2\n      pop\n        /* \"#utility.yul\":7302:7395   */\n      tag_308\n        /* \"#utility.yul\":7391:7394   */\n      dup3\n        /* \"#utility.yul\":7302:7395   */\n      tag_236\n      jump\t// in\n    tag_308:\n        /* \"#utility.yul\":7420:7422   */\n      0x40\n        /* \"#utility.yul\":7415:7418   */\n      dup3\n        /* \"#utility.yul\":7411:7423   */\n      add\n        /* \"#utility.yul\":7404:7423   */\n      swap1\n      pop\n        /* \"#utility.yul\":7063:7429   */\n      swap2\n      swap1\n      pop\n      jump\t// out\n        /* \"#utility.yul\":7435:7854   */\n    tag_166:\n        /* \"#utility.yul\":7601:7605   */\n      0x00\n        /* \"#utility.yul\":7639:7641   */\n      0x20\n        /* \"#utility.yul\":7628:7637   */\n      dup3\n        /* \"#utility.yul\":7624:7642   */\n      add\n        /* \"#utility.yul\":7616:7642   */\n      swap1\n      pop\n        /* \"#utility.yul\":7688:7697   */\n      dup2\n        /* \"#utility.yul\":7682:7686   */\n      dup2\n        /* \"#utility.yul\":7678:7698   */\n      sub\n        /* \"#utility.yul\":7674:7675   */\n      0x00\n        /* \"#utility.yul\":7663:7672   */\n      dup4\n        /* \"#utility.yul\":7659:7676   */\n      add\n        /* \"#utility.yul\":7652:7699   */\n      mstore\n        /* \"#utility.yul\":7716:7847   */\n      tag_310\n        /* \"#utility.yul\":7842:7846   */\n      dup2\n        /* \"#utility.yul\":7716:7847   */\n      tag_237\n      jump\t// in\n    tag_310:\n        /* \"#utility.yul\":7708:7847   */\n      swap1\n      pop\n        /* \"#utility.yul\":7435:7854   */\n      swap2\n      swap1\n      pop\n      jump\t// out\n        /* \"#utility.yul\":7860:8089   */\n    tag_238:\n        /* \"#utility.yul\":8000:8034   */\n      0x4f6e6c79207468652073656c6c6572206f722062757965722063616e20646570\n        /* \"#utility.yul\":7996:7997   */\n      0x00\n        /* \"#utility.yul\":7988:7994   */\n      dup3\n        /* \"#utility.yul\":7984:7998   */\n      add\n        /* \"#utility.yul\":7977:8035   */\n      mstore\n        /* \"#utility.yul\":8069:8081   */\n      0x6f7369742066756e647300000000000000000000000000000000000000000000\n        /* \"#utility.yul\":8064:8066   */\n      0x20\n        /* \"#utility.yul\":8056:8062   */\n      dup3\n        /* \"#utility.yul\":8052:8067   */\n      add\n        /* \"#utility.yul\":8045:8082   */\n      mstore\n        /* \"#utility.yul\":7860:8089   */\n      pop\n      jump\t// out\n        /* \"#utility.yul\":8095:8461   */\n    tag_239:\n        /* \"#utility.yul\":8237:8240   */\n      0x00\n        /* \"#utility.yul\":8258:8325   */\n      tag_313\n        /* \"#utility.yul\":8322:8324   */\n      0x2a\n        /* \"#utility.yul\":8317:8320   */\n      dup4\n        /* \"#utility.yul\":8258:8325   */\n      tag_226\n      jump\t// in\n    tag_313:\n        /* \"#utility.yul\":8251:8325   */\n      swap2\n      pop\n        /* \"#utility.yul\":8334:8427   */\n      tag_314\n        /* \"#utility.yul\":8423:8426   */\n      dup3\n        /* \"#utility.yul\":8334:8427   */\n      tag_238\n      jump\t// in\n    tag_314:\n        /* \"#utility.yul\":8452:8454   */\n      0x40\n        /* \"#utility.yul\":8447:8450   */\n      dup3\n        /* \"#utility.yul\":8443:8455   */\n      add\n        /* \"#utility.yul\":8436:8455   */\n      swap1\n      pop\n        /* \"#utility.yul\":8095:8461   */\n      swap2\n      swap1\n      pop\n      jump\t// out\n        /* \"#utility.yul\":8467:8886   */\n    tag_196:\n        /* \"#utility.yul\":8633:8637   */\n      0x00\n        /* \"#utility.yul\":8671:8673   */\n      0x20\n        /* \"#utility.yul\":8660:8669   */\n      dup3\n        /* \"#utility.yul\":8656:8674   */\n      add\n        /* \"#utility.yul\":8648:8674   */\n      swap1\n      pop\n        /* \"#utility.yul\":8720:8729   */\n      dup2\n        /* \"#utility.yul\":8714:8718   */\n      dup2\n        /* \"#utility.yul\":8710:8730   */\n      sub\n        /* \"#utility.yul\":8706:8707   */\n      0x00\n        /* \"#utility.yul\":8695:8704   */\n      dup4\n        /* \"#utility.yul\":8691:8708   */\n      add\n        /* \"#utility.yul\":8684:8731   */\n      mstore\n        /* \"#utility.yul\":8748:8879   */\n      tag_316\n        /* \"#utility.yul\":8874:8878   */\n      dup2\n        /* \"#utility.yul\":8748:8879   */\n      tag_239\n      jump\t// in\n    tag_316:\n        /* \"#utility.yul\":8740:8879   */\n      swap1\n      pop\n        /* \"#utility.yul\":8467:8886   */\n      swap2\n      swap1\n      pop\n      jump\t// out\n        /* \"#utility.yul\":8892:9073   */\n    tag_240:\n        /* \"#utility.yul\":9032:9065   */\n      0x5265656e7472616e637947756172643a207265656e7472616e742063616c6c00\n        /* \"#utility.yul\":9028:9029   */\n      0x00\n        /* \"#utility.yul\":9020:9026   */\n      dup3\n        /* \"#utility.yul\":9016:9030   */\n      add\n        /* \"#utility.yul\":9009:9066   */\n      mstore\n        /* \"#utility.yul\":8892:9073   */\n      pop\n      jump\t// out\n        /* \"#utility.yul\":9079:9445   */\n    tag_241:\n        /* \"#utility.yul\":9221:9224   */\n      0x00\n        /* \"#utility.yul\":9242:9309   */\n      tag_319\n        /* \"#utility.yul\":9306:9308   */\n      0x1f\n        /* \"#utility.yul\":9301:9304   */\n      dup4\n        /* \"#utility.yul\":9242:9309   */\n      tag_226\n      jump\t// in\n    tag_319:\n        /* \"#utility.yul\":9235:9309   */\n      swap2\n      pop\n        /* \"#utility.yul\":9318:9411   */\n      tag_320\n        /* \"#utility.yul\":9407:9410   */\n      dup3\n        /* \"#utility.yul\":9318:9411   */\n      tag_240\n      jump\t// in\n    tag_320:\n        /* \"#utility.yul\":9436:9438   */\n      0x20\n        /* \"#utility.yul\":9431:9434   */\n      dup3\n        /* \"#utility.yul\":9427:9439   */\n      add\n        /* \"#utility.yul\":9420:9439   */\n      swap1\n      pop\n        /* \"#utility.yul\":9079:9445   */\n      swap2\n      swap1\n      pop\n      jump\t// out\n        /* \"#utility.yul\":9451:9870   */\n    tag_206:\n        /* \"#utility.yul\":9617:9621   */\n      0x00\n        /* \"#utility.yul\":9655:9657   */\n      0x20\n        /* \"#utility.yul\":9644:9653   */\n      dup3\n        /* \"#utility.yul\":9640:9658   */\n      add\n        /* \"#utility.yul\":9632:9658   */\n      swap1\n      pop\n        /* \"#utility.yul\":9704:9713   */\n      dup2\n        /* \"#utility.yul\":9698:9702   */\n      dup2\n        /* \"#utility.yul\":9694:9714   */\n      sub\n        /* \"#utility.yul\":9690:9691   */\n      0x00\n        /* \"#utility.yul\":9679:9688   */\n      dup4\n        /* \"#utility.yul\":9675:9692   */\n      add\n        /* \"#utility.yul\":9668:9715   */\n      mstore\n        /* \"#utility.yul\":9732:9863   */\n      tag_322\n        /* \"#utility.yul\":9858:9862   */\n      dup2\n        /* \"#utility.yul\":9732:9863   */\n      tag_241\n      jump\t// in\n    tag_322:\n        /* \"#utility.yul\":9724:9863   */\n      swap1\n      pop\n        /* \"#utility.yul\":9451:9870   */\n      swap2\n      swap1\n      pop\n      jump\t// out\n        /* \"#utility.yul\":9876:10056   */\n    tag_242:\n        /* \"#utility.yul\":9924:10001   */\n      0x4e487b7100000000000000000000000000000000000000000000000000000000\n        /* \"#utility.yul\":9921:9922   */\n      0x00\n        /* \"#utility.yul\":9914:10002   */\n      mstore\n        /* \"#utility.yul\":10021:10025   */\n      0x12\n        /* \"#utility.yul\":10018:10019   */\n      0x04\n        /* \"#utility.yul\":10011:10026   */\n      mstore\n        /* \"#utility.yul\":10045:10049   */\n      0x24\n        /* \"#utility.yul\":10042:10043   */\n      0x00\n        /* \"#utility.yul\":10035:10050   */\n      revert\n        /* \"#utility.yul\":10062:10247   */\n    tag_211:\n        /* \"#utility.yul\":10102:10103   */\n      0x00\n        /* \"#utility.yul\":10119:10139   */\n      tag_325\n        /* \"#utility.yul\":10137:10138   */\n      dup3\n        /* \"#utility.yul\":10119:10139   */\n      tag_216\n      jump\t// in\n    tag_325:\n        /* \"#utility.yul\":10114:10139   */\n      swap2\n      pop\n        /* \"#utility.yul\":10153:10173   */\n      tag_326\n        /* \"#utility.yul\":10171:10172   */\n      dup4\n        /* \"#utility.yul\":10153:10173   */\n      tag_216\n      jump\t// in\n    tag_326:\n        /* \"#utility.yul\":10148:10173   */\n      swap3\n      pop\n        /* \"#utility.yul\":10192:10193   */\n      dup3\n        /* \"#utility.yul\":10182:10217   */\n      tag_327\n      jumpi\n        /* \"#utility.yul\":10197:10215   */\n      tag_328\n      tag_242\n      jump\t// in\n    tag_328:\n        /* \"#utility.yul\":10182:10217   */\n    tag_327:\n        /* \"#utility.yul\":10239:10240   */\n      dup3\n        /* \"#utility.yul\":10236:10237   */\n      dup3\n        /* \"#utility.yul\":10232:10241   */\n      div\n        /* \"#utility.yul\":10227:10241   */\n      swap1\n      pop\n        /* \"#utility.yul\":10062:10247   */\n      swap3\n      swap2\n      pop\n      pop\n      jump\t// out\n        /* \"#utility.yul\":10253:10447   */\n    tag_214:\n        /* \"#utility.yul\":10293:10297   */\n      0x00\n        /* \"#utility.yul\":10313:10333   */\n      tag_330\n        /* \"#utility.yul\":10331:10332   */\n      dup3\n        /* \"#utility.yul\":10313:10333   */\n      tag_216\n      jump\t// in\n    tag_330:\n        /* \"#utility.yul\":10308:10333   */\n      swap2\n      pop\n        /* \"#utility.yul\":10347:10367   */\n      tag_331\n        /* \"#utility.yul\":10365:10366   */\n      dup4\n        /* \"#utility.yul\":10347:10367   */\n      tag_216\n      jump\t// in\n    tag_331:\n        /* \"#utility.yul\":10342:10367   */\n      swap3\n      pop\n        /* \"#utility.yul\":10391:10392   */\n      dup3\n        /* \"#utility.yul\":10388:10389   */\n      dup3\n        /* \"#utility.yul\":10384:10393   */\n      sub\n        /* \"#utility.yul\":10376:10393   */\n      swap1\n      pop\n        /* \"#utility.yul\":10415:10416   */\n      dup2\n        /* \"#utility.yul\":10409:10413   */\n      dup2\n        /* \"#utility.yul\":10406:10417   */\n      gt\n        /* \"#utility.yul\":10403:10440   */\n      iszero\n      tag_332\n      jumpi\n        /* \"#utility.yul\":10420:10438   */\n      tag_333\n      tag_231\n      jump\t// in\n    tag_333:\n        /* \"#utility.yul\":10403:10440   */\n    tag_332:\n        /* \"#utility.yul\":10253:10447   */\n      swap3\n      swap2\n      pop\n      pop\n      jump\t// out\n\n    auxdata: 0xa264697066735822122057ee934d94ba1ff6d6fa5fbe54aa123a83c48203e3765ffcdcebdaf5fd03c57864736f6c63430008120033\n}\n",
				"bytecode": {
					"linkReferences": {},
					"object": "60806040523480156200001157600080fd5b506040516200197538038062001975833981810160405281019062000037919062000225565b600160008190555087600160006101000a81548173ffffffffffffffffffffffffffffffffffffffff021916908373ffffffffffffffffffffffffffffffffffffffff16021790555086600260006101000a81548173ffffffffffffffffffffffffffffffffffffffff021916908373ffffffffffffffffffffffffffffffffffffffff16021790555085600781905550846008819055508360098190555082600a8190555081600b819055506001600c8190555080600360006101000a81548173ffffffffffffffffffffffffffffffffffffffff021916908373ffffffffffffffffffffffffffffffffffffffff1602179055505050505050505050620002ee565b600080fd5b600073ffffffffffffffffffffffffffffffffffffffff82169050919050565b60006200016d8262000140565b9050919050565b6200017f8162000160565b81146200018b57600080fd5b50565b6000815190506200019f8162000174565b92915050565b6000819050919050565b620001ba81620001a5565b8114620001c657600080fd5b50565b600081519050620001da81620001af565b92915050565b6000620001ed8262000140565b9050919050565b620001ff81620001e0565b81146200020b57600080fd5b50565b6000815190506200021f81620001f4565b92915050565b600080600080600080600080610100898b0312156200024957620002486200013b565b5b6000620002598b828c016200018e565b98505060206200026c8b828c016200018e565b97505060406200027f8b828c01620001c9565b9650506060620002928b828c01620001c9565b9550506080620002a58b828c01620001c9565b94505060a0620002b88b828c01620001c9565b93505060c0620002cb8b828c01620001c9565b92505060e0620002de8b828c016200020e565b9150509295985092959890939650565b61167780620002fe6000396000f3fe6080604052600436106101185760003560e01c8063867a06b3116100a0578063c24a0f8b11610064578063c24a0f8b14610436578063d0bf21fd14610461578063db2926211461048c578063e6cdc708146104b7578063f340fa01146104e257610184565b8063867a06b31461035f5780638b7afe2e1461038a57806399dc2df3146103b5578063a7245b6e146103e0578063ba12a5c51461040b57610184565b80634680dd2f116100e75780634680dd2f146102975780634ce9e6de146102c257806351cff8d9146102ed57806369cf1e90146103095780636d5e7a151461033457610184565b8063220e5ab3146101eb57806331658e321461021657806336359265146102415780634644803f1461026c57610184565b36610184573373ffffffffffffffffffffffffffffffffffffffff163073ffffffffffffffffffffffffffffffffffffffff167f5548c837ab068cf56a2c2479df0882a4922fd203edb7517321831d95078c5f623460405161017a91906110e2565b60405180910390a3005b3373ffffffffffffffffffffffffffffffffffffffff163073ffffffffffffffffffffffffffffffffffffffff167f5548c837ab068cf56a2c2479df0882a4922fd203edb7517321831d95078c5f62346040516101e191906110e2565b60405180910390a3005b3480156101f757600080fd5b506102006104fe565b60405161020d91906110e2565b60405180910390f35b34801561022257600080fd5b5061022b610504565b60405161023891906110e2565b60405180910390f35b34801561024d57600080fd5b5061025661050e565b60405161026391906110e2565b60405180910390f35b34801561027857600080fd5b50610281610518565b60405161028e91906110e2565b60405180910390f35b3480156102a357600080fd5b506102ac610522565b6040516102b991906110e2565b60405180910390f35b3480156102ce57600080fd5b506102d761052c565b6040516102e4919061113e565b60405180910390f35b6103076004803603810190610302919061118a565b610556565b005b34801561031557600080fd5b5061031e610ddd565b60405161032b91906110e2565b60405180910390f35b34801561034057600080fd5b50610349610de7565b60405161035691906110e2565b60405180910390f35b34801561036b57600080fd5b50610374610ded565b60405161038191906110e2565b60405180910390f35b34801561039657600080fd5b5061039f610df3565b6040516103ac91906110e2565b60405180910390f35b3480156103c157600080fd5b506103ca610df9565b6040516103d791906110e2565b60405180910390f35b3480156103ec57600080fd5b506103f5610dff565b60405161040291906110e2565b60405180910390f35b34801561041757600080fd5b50610420610e05565b60405161042d919061113e565b60405180910390f35b34801561044257600080fd5b5061044b610e2f565b60405161045891906110e2565b60405180910390f35b34801561046d57600080fd5b50610476610e35565b60405161048391906110e2565b60405180910390f35b34801561049857600080fd5b506104a1610e3f565b6040516104ae91906110e2565b60405180910390f35b3480156104c357600080fd5b506104cc610e49565b6040516104d991906110e2565b60405180910390f35b6104fc60048036038101906104f7919061118a565b610e4f565b005b60075481565b6000600b54905090565b6000600a54905090565b6000600554905090565b6000600654905090565b6000600260009054906101000a900473ffffffffffffffffffffffffffffffffffffffff16905090565b61055e61102e565b600047036105a1576040517f08c379a000000000000000000000000000000000000000000000000000000000815260040161059890611214565b60405180910390fd5b600a5442106105e5576040517f08c379a00000000000000000000000000000000000000000000000000000000081526004016105dc90611280565b60405180910390fd5b61060d60646105ff600c544761107d90919063ffffffff16565b61109390919063ffffffff16565b600d819055506008546005541180156106275750600a5442115b801561064f575062015180600b5461063f91906112cf565b600a5461064c9190611311565b42105b156107d1578073ffffffffffffffffffffffffffffffffffffffff16600160009054906101000a900473ffffffffffffffffffffffffffffffffffffffff1673ffffffffffffffffffffffffffffffffffffffff16146106e4576040517f08c379a00000000000000000000000000000000000000000000000000000000081526004016106db90611391565b60405180910390fd5b600160009054906101000a900473ffffffffffffffffffffffffffffffffffffffff1673ffffffffffffffffffffffffffffffffffffffff166108fc610735600d54476110a990919063ffffffff16565b9081150290604051600060405180830381858888f19350505050158015610760573d6000803e3d6000fd5b50600360009054906101000a900473ffffffffffffffffffffffffffffffffffffffff1673ffffffffffffffffffffffffffffffffffffffff166108fc600d549081150290604051600060405180830381858888f193505050501580156107cb573d6000803e3d6000fd5b50610dd2565b600754600654118015610800575062015180600b546107f091906112cf565b600a546107fd9190611311565b42115b15610982578073ffffffffffffffffffffffffffffffffffffffff16600260009054906101000a900473ffffffffffffffffffffffffffffffffffffffff1673ffffffffffffffffffffffffffffffffffffffff1614610895576040517f08c379a000000000000000000000000000000000000000000000000000000000815260040161088c906113fd565b60405180910390fd5b600260009054906101000a900473ffffffffffffffffffffffffffffffffffffffff1673ffffffffffffffffffffffffffffffffffffffff166108fc6108e6600d54476110a990919063ffffffff16565b9081150290604051600060405180830381858888f19350505050158015610911573d6000803e3d6000fd5b50600360009054906101000a900473ffffffffffffffffffffffffffffffffffffffff1673ffffffffffffffffffffffffffffffffffffffff166108fc600d549081150290604051600060405180830381858888f1935050505015801561097c573d6000803e3d6000fd5b50610dd1565b600047141580156109965750600854600554105b80156109a55750600954600654105b80156109cd575062015180600b546109bd91906112cf565b600a546109ca9190611311565b42115b15610dd057600260009054906101000a900473ffffffffffffffffffffffffffffffffffffffff1673ffffffffffffffffffffffffffffffffffffffff168173ffffffffffffffffffffffffffffffffffffffff161480610a7b5750600160009054906101000a900473ffffffffffffffffffffffffffffffffffffffff1673ffffffffffffffffffffffffffffffffffffffff168173ffffffffffffffffffffffffffffffffffffffff16145b610aba576040517f08c379a0000000000000000000000000000000000000000000000000000000008152600401610ab19061148f565b60405180910390fd5b600260009054906101000a900473ffffffffffffffffffffffffffffffffffffffff1673ffffffffffffffffffffffffffffffffffffffff168173ffffffffffffffffffffffffffffffffffffffff16148015610b1a5750600060065414155b15610c4657610b496064610b3b600c5460065461107d90919063ffffffff16565b61109390919063ffffffff16565b600d81905550600260009054906101000a900473ffffffffffffffffffffffffffffffffffffffff1673ffffffffffffffffffffffffffffffffffffffff166108fc610ba2600d546006546110a990919063ffffffff16565b9081150290604051600060405180830381858888f19350505050158015610bcd573d6000803e3d6000fd5b50600360009054906101000a900473ffffffffffffffffffffffffffffffffffffffff1673ffffffffffffffffffffffffffffffffffffffff166108fc600d549081150290604051600060405180830381858888f19350505050158015610c38573d6000803e3d6000fd5b506000600681905550610dcf565b600160009054906101000a900473ffffffffffffffffffffffffffffffffffffffff1673ffffffffffffffffffffffffffffffffffffffff168173ffffffffffffffffffffffffffffffffffffffff16148015610ca65750600060055414155b15610dce57610cd56064610cc7600c5460055461107d90919063ffffffff16565b61109390919063ffffffff16565b600d81905550600160009054906101000a900473ffffffffffffffffffffffffffffffffffffffff1673ffffffffffffffffffffffffffffffffffffffff166108fc610d2e600d546005546110a990919063ffffffff16565b9081150290604051600060405180830381858888f19350505050158015610d59573d6000803e3d6000fd5b50600360009054906101000a900473ffffffffffffffffffffffffffffffffffffffff1673ffffffffffffffffffffffffffffffffffffffff166108fc600d549081150290604051600060405180830381858888f19350505050158015610dc4573d6000803e3d6000fd5b5060006005819055505b5b5b5b5b610dda6110bf565b50565b6000600954905090565b600b5481565b60055481565b60045481565b60095481565b60085481565b6000600160009054906101000a900473ffffffffffffffffffffffffffffffffffffffff16905090565b600a5481565b6000600854905090565b6000600754905090565b60065481565b600160009054906101000a900473ffffffffffffffffffffffffffffffffffffffff1673ffffffffffffffffffffffffffffffffffffffff168173ffffffffffffffffffffffffffffffffffffffff161480610ef85750600260009054906101000a900473ffffffffffffffffffffffffffffffffffffffff1673ffffffffffffffffffffffffffffffffffffffff168173ffffffffffffffffffffffffffffffffffffffff16145b610f37576040517f08c379a0000000000000000000000000000000000000000000000000000000008152600401610f2e90611521565b60405180910390fd5b600160009054906101000a900473ffffffffffffffffffffffffffffffffffffffff1673ffffffffffffffffffffffffffffffffffffffff168173ffffffffffffffffffffffffffffffffffffffff1603610faa573460056000828254610f9e9190611311565b92505081905550610fc4565b3460066000828254610fbc9190611311565b925050819055505b3460046000828254610fd69190611311565b925050819055508073ffffffffffffffffffffffffffffffffffffffff167f543ba50a5eec5e6178218e364b1d0f396157b3c8fa278522c2cb7fd99407d4743460405161102391906110e2565b60405180910390a250565b600260005403611073576040517f08c379a000000000000000000000000000000000000000000000000000000000815260040161106a9061158d565b60405180910390fd5b6002600081905550565b6000818361108b91906112cf565b905092915050565b600081836110a191906115dc565b905092915050565b600081836110b7919061160d565b905092915050565b6001600081905550565b6000819050919050565b6110dc816110c9565b82525050565b60006020820190506110f760008301846110d3565b92915050565b600073ffffffffffffffffffffffffffffffffffffffff82169050919050565b6000611128826110fd565b9050919050565b6111388161111d565b82525050565b6000602082019050611153600083018461112f565b92915050565b600080fd5b6111678161111d565b811461117257600080fd5b50565b6000813590506111848161115e565b92915050565b6000602082840312156111a05761119f611159565b5b60006111ae84828501611175565b91505092915050565b600082825260208201905092915050565b7f436f6e747261637420646f6e277420686176652066756e647300000000000000600082015250565b60006111fe6019836111b7565b9150611209826111c8565b602082019050919050565b6000602082019050818103600083015261122d816111f1565b9050919050565b7f54696d65206973206e6f74206f76657220796574000000000000000000000000600082015250565b600061126a6014836111b7565b915061127582611234565b602082019050919050565b600060208201905081810360008301526112998161125d565b9050919050565b7f4e487b7100000000000000000000000000000000000000000000000000000000600052601160045260246000fd5b60006112da826110c9565b91506112e5836110c9565b92508282026112f3816110c9565b9150828204841483151761130a576113096112a0565b5b5092915050565b600061131c826110c9565b9150611327836110c9565b925082820190508082111561133f5761133e6112a0565b5b92915050565b7f596f7520617265206e6f74207468652073656c6c657200000000000000000000600082015250565b600061137b6016836111b7565b915061138682611345565b602082019050919050565b600060208201905081810360008301526113aa8161136e565b9050919050565b7f596f7520617265206e6f74207468652062757965720000000000000000000000600082015250565b60006113e76015836111b7565b91506113f2826113b1565b602082019050919050565b60006020820190508181036000830152611416816113da565b9050919050565b7f4a757374206275796572206f722073656c6c65722063616e207769746864726160008201527f7700000000000000000000000000000000000000000000000000000000000000602082015250565b60006114796021836111b7565b91506114848261141d565b604082019050919050565b600060208201905081810360008301526114a88161146c565b9050919050565b7f4f6e6c79207468652073656c6c6572206f722062757965722063616e2064657060008201527f6f7369742066756e647300000000000000000000000000000000000000000000602082015250565b600061150b602a836111b7565b9150611516826114af565b604082019050919050565b6000602082019050818103600083015261153a816114fe565b9050919050565b7f5265656e7472616e637947756172643a207265656e7472616e742063616c6c00600082015250565b6000611577601f836111b7565b915061158282611541565b602082019050919050565b600060208201905081810360008301526115a68161156a565b9050919050565b7f4e487b7100000000000000000000000000000000000000000000000000000000600052601260045260246000fd5b60006115e7826110c9565b91506115f2836110c9565b925082611602576116016115ad565b5b828204905092915050565b6000611618826110c9565b9150611623836110c9565b925082820390508181111561163b5761163a6112a0565b5b9291505056fea264697066735822122057ee934d94ba1ff6d6fa5fbe54aa123a83c48203e3765ffcdcebdaf5fd03c57864736f6c63430008120033",
					"opcodes": "PUSH1 0x80 PUSH1 0x40 MSTORE CALLVALUE DUP1 ISZERO PUSH3 0x11 JUMPI PUSH1 0x0 DUP1 REVERT JUMPDEST POP PUSH1 0x40 MLOAD PUSH3 0x1975 CODESIZE SUB DUP1 PUSH3 0x1975 DUP4 CODECOPY DUP2 DUP2 ADD PUSH1 0x40 MSTORE DUP2 ADD SWAP1 PUSH3 0x37 SWAP2 SWAP1 PUSH3 0x225 JUMP JUMPDEST PUSH1 0x1 PUSH1 0x0 DUP2 SWAP1 SSTORE POP DUP8 PUSH1 0x1 PUSH1 0x0 PUSH2 0x100 EXP DUP2 SLOAD DUP2 PUSH20 0xFFFFFFFFFFFFFFFFFFFFFFFFFFFFFFFFFFFFFFFF MUL NOT AND SWAP1 DUP4 PUSH20 0xFFFFFFFFFFFFFFFFFFFFFFFFFFFFFFFFFFFFFFFF AND MUL OR SWAP1 SSTORE POP DUP7 PUSH1 0x2 PUSH1 0x0 PUSH2 0x100 EXP DUP2 SLOAD DUP2 PUSH20 0xFFFFFFFFFFFFFFFFFFFFFFFFFFFFFFFFFFFFFFFF MUL NOT AND SWAP1 DUP4 PUSH20 0xFFFFFFFFFFFFFFFFFFFFFFFFFFFFFFFFFFFFFFFF AND MUL OR SWAP1 SSTORE POP DUP6 PUSH1 0x7 DUP2 SWAP1 SSTORE POP DUP5 PUSH1 0x8 DUP2 SWAP1 SSTORE POP DUP4 PUSH1 0x9 DUP2 SWAP1 SSTORE POP DUP3 PUSH1 0xA DUP2 SWAP1 SSTORE POP DUP2 PUSH1 0xB DUP2 SWAP1 SSTORE POP PUSH1 0x1 PUSH1 0xC DUP2 SWAP1 SSTORE POP DUP1 PUSH1 0x3 PUSH1 0x0 PUSH2 0x100 EXP DUP2 SLOAD DUP2 PUSH20 0xFFFFFFFFFFFFFFFFFFFFFFFFFFFFFFFFFFFFFFFF MUL NOT AND SWAP1 DUP4 PUSH20 0xFFFFFFFFFFFFFFFFFFFFFFFFFFFFFFFFFFFFFFFF AND MUL OR SWAP1 SSTORE POP POP POP POP POP POP POP POP POP PUSH3 0x2EE JUMP JUMPDEST PUSH1 0x0 DUP1 REVERT JUMPDEST PUSH1 0x0 PUSH20 0xFFFFFFFFFFFFFFFFFFFFFFFFFFFFFFFFFFFFFFFF DUP3 AND SWAP1 POP SWAP2 SWAP1 POP JUMP JUMPDEST PUSH1 0x0 PUSH3 0x16D DUP3 PUSH3 0x140 JUMP JUMPDEST SWAP1 POP SWAP2 SWAP1 POP JUMP JUMPDEST PUSH3 0x17F DUP2 PUSH3 0x160 JUMP JUMPDEST DUP2 EQ PUSH3 0x18B JUMPI PUSH1 0x0 DUP1 REVERT JUMPDEST POP JUMP JUMPDEST PUSH1 0x0 DUP2 MLOAD SWAP1 POP PUSH3 0x19F DUP2 PUSH3 0x174 JUMP JUMPDEST SWAP3 SWAP2 POP POP JUMP JUMPDEST PUSH1 0x0 DUP2 SWAP1 POP SWAP2 SWAP1 POP JUMP JUMPDEST PUSH3 0x1BA DUP2 PUSH3 0x1A5 JUMP JUMPDEST DUP2 EQ PUSH3 0x1C6 JUMPI PUSH1 0x0 DUP1 REVERT JUMPDEST POP JUMP JUMPDEST PUSH1 0x0 DUP2 MLOAD SWAP1 POP PUSH3 0x1DA DUP2 PUSH3 0x1AF JUMP JUMPDEST SWAP3 SWAP2 POP POP JUMP JUMPDEST PUSH1 0x0 PUSH3 0x1ED DUP3 PUSH3 0x140 JUMP JUMPDEST SWAP1 POP SWAP2 SWAP1 POP JUMP JUMPDEST PUSH3 0x1FF DUP2 PUSH3 0x1E0 JUMP JUMPDEST DUP2 EQ PUSH3 0x20B JUMPI PUSH1 0x0 DUP1 REVERT JUMPDEST POP JUMP JUMPDEST PUSH1 0x0 DUP2 MLOAD SWAP1 POP PUSH3 0x21F DUP2 PUSH3 0x1F4 JUMP JUMPDEST SWAP3 SWAP2 POP POP JUMP JUMPDEST PUSH1 0x0 DUP1 PUSH1 0x0 DUP1 PUSH1 0x0 DUP1 PUSH1 0x0 DUP1 PUSH2 0x100 DUP10 DUP12 SUB SLT ISZERO PUSH3 0x249 JUMPI PUSH3 0x248 PUSH3 0x13B JUMP JUMPDEST JUMPDEST PUSH1 0x0 PUSH3 0x259 DUP12 DUP3 DUP13 ADD PUSH3 0x18E JUMP JUMPDEST SWAP9 POP POP PUSH1 0x20 PUSH3 0x26C DUP12 DUP3 DUP13 ADD PUSH3 0x18E JUMP JUMPDEST SWAP8 POP POP PUSH1 0x40 PUSH3 0x27F DUP12 DUP3 DUP13 ADD PUSH3 0x1C9 JUMP JUMPDEST SWAP7 POP POP PUSH1 0x60 PUSH3 0x292 DUP12 DUP3 DUP13 ADD PUSH3 0x1C9 JUMP JUMPDEST SWAP6 POP POP PUSH1 0x80 PUSH3 0x2A5 DUP12 DUP3 DUP13 ADD PUSH3 0x1C9 JUMP JUMPDEST SWAP5 POP POP PUSH1 0xA0 PUSH3 0x2B8 DUP12 DUP3 DUP13 ADD PUSH3 0x1C9 JUMP JUMPDEST SWAP4 POP POP PUSH1 0xC0 PUSH3 0x2CB DUP12 DUP3 DUP13 ADD PUSH3 0x1C9 JUMP JUMPDEST SWAP3 POP POP PUSH1 0xE0 PUSH3 0x2DE DUP12 DUP3 DUP13 ADD PUSH3 0x20E JUMP JUMPDEST SWAP2 POP POP SWAP3 SWAP6 SWAP9 POP SWAP3 SWAP6 SWAP9 SWAP1 SWAP4 SWAP7 POP JUMP JUMPDEST PUSH2 0x1677 DUP1 PUSH3 0x2FE PUSH1 0x0 CODECOPY PUSH1 0x0 RETURN INVALID PUSH1 0x80 PUSH1 0x40 MSTORE PUSH1 0x4 CALLDATASIZE LT PUSH2 0x118 JUMPI PUSH1 0x0 CALLDATALOAD PUSH1 0xE0 SHR DUP1 PUSH4 0x867A06B3 GT PUSH2 0xA0 JUMPI DUP1 PUSH4 0xC24A0F8B GT PUSH2 0x64 JUMPI DUP1 PUSH4 0xC24A0F8B EQ PUSH2 0x436 JUMPI DUP1 PUSH4 0xD0BF21FD EQ PUSH2 0x461 JUMPI DUP1 PUSH4 0xDB292621 EQ PUSH2 0x48C JUMPI DUP1 PUSH4 0xE6CDC708 EQ PUSH2 0x4B7 JUMPI DUP1 PUSH4 0xF340FA01 EQ PUSH2 0x4E2 JUMPI PUSH2 0x184 JUMP JUMPDEST DUP1 PUSH4 0x867A06B3 EQ PUSH2 0x35F JUMPI DUP1 PUSH4 0x8B7AFE2E EQ PUSH2 0x38A JUMPI DUP1 PUSH4 0x99DC2DF3 EQ PUSH2 0x3B5 JUMPI DUP1 PUSH4 0xA7245B6E EQ PUSH2 0x3E0 JUMPI DUP1 PUSH4 0xBA12A5C5 EQ PUSH2 0x40B JUMPI PUSH2 0x184 JUMP JUMPDEST DUP1 PUSH4 0x4680DD2F GT PUSH2 0xE7 JUMPI DUP1 PUSH4 0x4680DD2F EQ PUSH2 0x297 JUMPI DUP1 PUSH4 0x4CE9E6DE EQ PUSH2 0x2C2 JUMPI DUP1 PUSH4 0x51CFF8D9 EQ PUSH2 0x2ED JUMPI DUP1 PUSH4 0x69CF1E90 EQ PUSH2 0x309 JUMPI DUP1 PUSH4 0x6D5E7A15 EQ PUSH2 0x334 JUMPI PUSH2 0x184 JUMP JUMPDEST DUP1 PUSH4 0x220E5AB3 EQ PUSH2 0x1EB JUMPI DUP1 PUSH4 0x31658E32 EQ PUSH2 0x216 JUMPI DUP1 PUSH4 0x36359265 EQ PUSH2 0x241 JUMPI DUP1 PUSH4 0x4644803F EQ PUSH2 0x26C JUMPI PUSH2 0x184 JUMP JUMPDEST CALLDATASIZE PUSH2 0x184 JUMPI CALLER PUSH20 0xFFFFFFFFFFFFFFFFFFFFFFFFFFFFFFFFFFFFFFFF AND ADDRESS PUSH20 0xFFFFFFFFFFFFFFFFFFFFFFFFFFFFFFFFFFFFFFFF AND PUSH32 0x5548C837AB068CF56A2C2479DF0882A4922FD203EDB7517321831D95078C5F62 CALLVALUE PUSH1 0x40 MLOAD PUSH2 0x17A SWAP2 SWAP1 PUSH2 0x10E2 JUMP JUMPDEST PUSH1 0x40 MLOAD DUP1 SWAP2 SUB SWAP1 LOG3 STOP JUMPDEST CALLER PUSH20 0xFFFFFFFFFFFFFFFFFFFFFFFFFFFFFFFFFFFFFFFF AND ADDRESS PUSH20 0xFFFFFFFFFFFFFFFFFFFFFFFFFFFFFFFFFFFFFFFF AND PUSH32 0x5548C837AB068CF56A2C2479DF0882A4922FD203EDB7517321831D95078C5F62 CALLVALUE PUSH1 0x40 MLOAD PUSH2 0x1E1 SWAP2 SWAP1 PUSH2 0x10E2 JUMP JUMPDEST PUSH1 0x40 MLOAD DUP1 SWAP2 SUB SWAP1 LOG3 STOP JUMPDEST CALLVALUE DUP1 ISZERO PUSH2 0x1F7 JUMPI PUSH1 0x0 DUP1 REVERT JUMPDEST POP PUSH2 0x200 PUSH2 0x4FE JUMP JUMPDEST PUSH1 0x40 MLOAD PUSH2 0x20D SWAP2 SWAP1 PUSH2 0x10E2 JUMP JUMPDEST PUSH1 0x40 MLOAD DUP1 SWAP2 SUB SWAP1 RETURN JUMPDEST CALLVALUE DUP1 ISZERO PUSH2 0x222 JUMPI PUSH1 0x0 DUP1 REVERT JUMPDEST POP PUSH2 0x22B PUSH2 0x504 JUMP JUMPDEST PUSH1 0x40 MLOAD PUSH2 0x238 SWAP2 SWAP1 PUSH2 0x10E2 JUMP JUMPDEST PUSH1 0x40 MLOAD DUP1 SWAP2 SUB SWAP1 RETURN JUMPDEST CALLVALUE DUP1 ISZERO PUSH2 0x24D JUMPI PUSH1 0x0 DUP1 REVERT JUMPDEST POP PUSH2 0x256 PUSH2 0x50E JUMP JUMPDEST PUSH1 0x40 MLOAD PUSH2 0x263 SWAP2 SWAP1 PUSH2 0x10E2 JUMP JUMPDEST PUSH1 0x40 MLOAD DUP1 SWAP2 SUB SWAP1 RETURN JUMPDEST CALLVALUE DUP1 ISZERO PUSH2 0x278 JUMPI PUSH1 0x0 DUP1 REVERT JUMPDEST POP PUSH2 0x281 PUSH2 0x518 JUMP JUMPDEST PUSH1 0x40 MLOAD PUSH2 0x28E SWAP2 SWAP1 PUSH2 0x10E2 JUMP JUMPDEST PUSH1 0x40 MLOAD DUP1 SWAP2 SUB SWAP1 RETURN JUMPDEST CALLVALUE DUP1 ISZERO PUSH2 0x2A3 JUMPI PUSH1 0x0 DUP1 REVERT JUMPDEST POP PUSH2 0x2AC PUSH2 0x522 JUMP JUMPDEST PUSH1 0x40 MLOAD PUSH2 0x2B9 SWAP2 SWAP1 PUSH2 0x10E2 JUMP JUMPDEST PUSH1 0x40 MLOAD DUP1 SWAP2 SUB SWAP1 RETURN JUMPDEST CALLVALUE DUP1 ISZERO PUSH2 0x2CE JUMPI PUSH1 0x0 DUP1 REVERT JUMPDEST POP PUSH2 0x2D7 PUSH2 0x52C JUMP JUMPDEST PUSH1 0x40 MLOAD PUSH2 0x2E4 SWAP2 SWAP1 PUSH2 0x113E JUMP JUMPDEST PUSH1 0x40 MLOAD DUP1 SWAP2 SUB SWAP1 RETURN JUMPDEST PUSH2 0x307 PUSH1 0x4 DUP1 CALLDATASIZE SUB DUP2 ADD SWAP1 PUSH2 0x302 SWAP2 SWAP1 PUSH2 0x118A JUMP JUMPDEST PUSH2 0x556 JUMP JUMPDEST STOP JUMPDEST CALLVALUE DUP1 ISZERO PUSH2 0x315 JUMPI PUSH1 0x0 DUP1 REVERT JUMPDEST POP PUSH2 0x31E PUSH2 0xDDD JUMP JUMPDEST PUSH1 0x40 MLOAD PUSH2 0x32B SWAP2 SWAP1 PUSH2 0x10E2 JUMP JUMPDEST PUSH1 0x40 MLOAD DUP1 SWAP2 SUB SWAP1 RETURN JUMPDEST CALLVALUE DUP1 ISZERO PUSH2 0x340 JUMPI PUSH1 0x0 DUP1 REVERT JUMPDEST POP PUSH2 0x349 PUSH2 0xDE7 JUMP JUMPDEST PUSH1 0x40 MLOAD PUSH2 0x356 SWAP2 SWAP1 PUSH2 0x10E2 JUMP JUMPDEST PUSH1 0x40 MLOAD DUP1 SWAP2 SUB SWAP1 RETURN JUMPDEST CALLVALUE DUP1 ISZERO PUSH2 0x36B JUMPI PUSH1 0x0 DUP1 REVERT JUMPDEST POP PUSH2 0x374 PUSH2 0xDED JUMP JUMPDEST PUSH1 0x40 MLOAD PUSH2 0x381 SWAP2 SWAP1 PUSH2 0x10E2 JUMP JUMPDEST PUSH1 0x40 MLOAD DUP1 SWAP2 SUB SWAP1 RETURN JUMPDEST CALLVALUE DUP1 ISZERO PUSH2 0x396 JUMPI PUSH1 0x0 DUP1 REVERT JUMPDEST POP PUSH2 0x39F PUSH2 0xDF3 JUMP JUMPDEST PUSH1 0x40 MLOAD PUSH2 0x3AC SWAP2 SWAP1 PUSH2 0x10E2 JUMP JUMPDEST PUSH1 0x40 MLOAD DUP1 SWAP2 SUB SWAP1 RETURN JUMPDEST CALLVALUE DUP1 ISZERO PUSH2 0x3C1 JUMPI PUSH1 0x0 DUP1 REVERT JUMPDEST POP PUSH2 0x3CA PUSH2 0xDF9 JUMP JUMPDEST PUSH1 0x40 MLOAD PUSH2 0x3D7 SWAP2 SWAP1 PUSH2 0x10E2 JUMP JUMPDEST PUSH1 0x40 MLOAD DUP1 SWAP2 SUB SWAP1 RETURN JUMPDEST CALLVALUE DUP1 ISZERO PUSH2 0x3EC JUMPI PUSH1 0x0 DUP1 REVERT JUMPDEST POP PUSH2 0x3F5 PUSH2 0xDFF JUMP JUMPDEST PUSH1 0x40 MLOAD PUSH2 0x402 SWAP2 SWAP1 PUSH2 0x10E2 JUMP JUMPDEST PUSH1 0x40 MLOAD DUP1 SWAP2 SUB SWAP1 RETURN JUMPDEST CALLVALUE DUP1 ISZERO PUSH2 0x417 JUMPI PUSH1 0x0 DUP1 REVERT JUMPDEST POP PUSH2 0x420 PUSH2 0xE05 JUMP JUMPDEST PUSH1 0x40 MLOAD PUSH2 0x42D SWAP2 SWAP1 PUSH2 0x113E JUMP JUMPDEST PUSH1 0x40 MLOAD DUP1 SWAP2 SUB SWAP1 RETURN JUMPDEST CALLVALUE DUP1 ISZERO PUSH2 0x442 JUMPI PUSH1 0x0 DUP1 REVERT JUMPDEST POP PUSH2 0x44B PUSH2 0xE2F JUMP JUMPDEST PUSH1 0x40 MLOAD PUSH2 0x458 SWAP2 SWAP1 PUSH2 0x10E2 JUMP JUMPDEST PUSH1 0x40 MLOAD DUP1 SWAP2 SUB SWAP1 RETURN JUMPDEST CALLVALUE DUP1 ISZERO PUSH2 0x46D JUMPI PUSH1 0x0 DUP1 REVERT JUMPDEST POP PUSH2 0x476 PUSH2 0xE35 JUMP JUMPDEST PUSH1 0x40 MLOAD PUSH2 0x483 SWAP2 SWAP1 PUSH2 0x10E2 JUMP JUMPDEST PUSH1 0x40 MLOAD DUP1 SWAP2 SUB SWAP1 RETURN JUMPDEST CALLVALUE DUP1 ISZERO PUSH2 0x498 JUMPI PUSH1 0x0 DUP1 REVERT JUMPDEST POP PUSH2 0x4A1 PUSH2 0xE3F JUMP JUMPDEST PUSH1 0x40 MLOAD PUSH2 0x4AE SWAP2 SWAP1 PUSH2 0x10E2 JUMP JUMPDEST PUSH1 0x40 MLOAD DUP1 SWAP2 SUB SWAP1 RETURN JUMPDEST CALLVALUE DUP1 ISZERO PUSH2 0x4C3 JUMPI PUSH1 0x0 DUP1 REVERT JUMPDEST POP PUSH2 0x4CC PUSH2 0xE49 JUMP JUMPDEST PUSH1 0x40 MLOAD PUSH2 0x4D9 SWAP2 SWAP1 PUSH2 0x10E2 JUMP JUMPDEST PUSH1 0x40 MLOAD DUP1 SWAP2 SUB SWAP1 RETURN JUMPDEST PUSH2 0x4FC PUSH1 0x4 DUP1 CALLDATASIZE SUB DUP2 ADD SWAP1 PUSH2 0x4F7 SWAP2 SWAP1 PUSH2 0x118A JUMP JUMPDEST PUSH2 0xE4F JUMP JUMPDEST STOP JUMPDEST PUSH1 0x7 SLOAD DUP2 JUMP JUMPDEST PUSH1 0x0 PUSH1 0xB SLOAD SWAP1 POP SWAP1 JUMP JUMPDEST PUSH1 0x0 PUSH1 0xA SLOAD SWAP1 POP SWAP1 JUMP JUMPDEST PUSH1 0x0 PUSH1 0x5 SLOAD SWAP1 POP SWAP1 JUMP JUMPDEST PUSH1 0x0 PUSH1 0x6 SLOAD SWAP1 POP SWAP1 JUMP JUMPDEST PUSH1 0x0 PUSH1 0x2 PUSH1 0x0 SWAP1 SLOAD SWAP1 PUSH2 0x100 EXP SWAP1 DIV PUSH20 0xFFFFFFFFFFFFFFFFFFFFFFFFFFFFFFFFFFFFFFFF AND SWAP1 POP SWAP1 JUMP JUMPDEST PUSH2 0x55E PUSH2 0x102E JUMP JUMPDEST PUSH1 0x0 SELFBALANCE SUB PUSH2 0x5A1 JUMPI PUSH1 0x40 MLOAD PUSH32 0x8C379A000000000000000000000000000000000000000000000000000000000 DUP2 MSTORE PUSH1 0x4 ADD PUSH2 0x598 SWAP1 PUSH2 0x1214 JUMP JUMPDEST PUSH1 0x40 MLOAD DUP1 SWAP2 SUB SWAP1 REVERT JUMPDEST PUSH1 0xA SLOAD TIMESTAMP LT PUSH2 0x5E5 JUMPI PUSH1 0x40 MLOAD PUSH32 0x8C379A000000000000000000000000000000000000000000000000000000000 DUP2 MSTORE PUSH1 0x4 ADD PUSH2 0x5DC SWAP1 PUSH2 0x1280 JUMP JUMPDEST PUSH1 0x40 MLOAD DUP1 SWAP2 SUB SWAP1 REVERT JUMPDEST PUSH2 0x60D PUSH1 0x64 PUSH2 0x5FF PUSH1 0xC SLOAD SELFBALANCE PUSH2 0x107D SWAP1 SWAP2 SWAP1 PUSH4 0xFFFFFFFF AND JUMP JUMPDEST PUSH2 0x1093 SWAP1 SWAP2 SWAP1 PUSH4 0xFFFFFFFF AND JUMP JUMPDEST PUSH1 0xD DUP2 SWAP1 SSTORE POP PUSH1 0x8 SLOAD PUSH1 0x5 SLOAD GT DUP1 ISZERO PUSH2 0x627 JUMPI POP PUSH1 0xA SLOAD TIMESTAMP GT JUMPDEST DUP1 ISZERO PUSH2 0x64F JUMPI POP PUSH3 0x15180 PUSH1 0xB SLOAD PUSH2 0x63F SWAP2 SWAP1 PUSH2 0x12CF JUMP JUMPDEST PUSH1 0xA SLOAD PUSH2 0x64C SWAP2 SWAP1 PUSH2 0x1311 JUMP JUMPDEST TIMESTAMP LT JUMPDEST ISZERO PUSH2 0x7D1 JUMPI DUP1 PUSH20 0xFFFFFFFFFFFFFFFFFFFFFFFFFFFFFFFFFFFFFFFF AND PUSH1 0x1 PUSH1 0x0 SWAP1 SLOAD SWAP1 PUSH2 0x100 EXP SWAP1 DIV PUSH20 0xFFFFFFFFFFFFFFFFFFFFFFFFFFFFFFFFFFFFFFFF AND PUSH20 0xFFFFFFFFFFFFFFFFFFFFFFFFFFFFFFFFFFFFFFFF AND EQ PUSH2 0x6E4 JUMPI PUSH1 0x40 MLOAD PUSH32 0x8C379A000000000000000000000000000000000000000000000000000000000 DUP2 MSTORE PUSH1 0x4 ADD PUSH2 0x6DB SWAP1 PUSH2 0x1391 JUMP JUMPDEST PUSH1 0x40 MLOAD DUP1 SWAP2 SUB SWAP1 REVERT JUMPDEST PUSH1 0x1 PUSH1 0x0 SWAP1 SLOAD SWAP1 PUSH2 0x100 EXP SWAP1 DIV PUSH20 0xFFFFFFFFFFFFFFFFFFFFFFFFFFFFFFFFFFFFFFFF AND PUSH20 0xFFFFFFFFFFFFFFFFFFFFFFFFFFFFFFFFFFFFFFFF AND PUSH2 0x8FC PUSH2 0x735 PUSH1 0xD SLOAD SELFBALANCE PUSH2 0x10A9 SWAP1 SWAP2 SWAP1 PUSH4 0xFFFFFFFF AND JUMP JUMPDEST SWAP1 DUP2 ISZERO MUL SWAP1 PUSH1 0x40 MLOAD PUSH1 0x0 PUSH1 0x40 MLOAD DUP1 DUP4 SUB DUP2 DUP6 DUP9 DUP9 CALL SWAP4 POP POP POP POP ISZERO DUP1 ISZERO PUSH2 0x760 JUMPI RETURNDATASIZE PUSH1 0x0 DUP1 RETURNDATACOPY RETURNDATASIZE PUSH1 0x0 REVERT JUMPDEST POP PUSH1 0x3 PUSH1 0x0 SWAP1 SLOAD SWAP1 PUSH2 0x100 EXP SWAP1 DIV PUSH20 0xFFFFFFFFFFFFFFFFFFFFFFFFFFFFFFFFFFFFFFFF AND PUSH20 0xFFFFFFFFFFFFFFFFFFFFFFFFFFFFFFFFFFFFFFFF AND PUSH2 0x8FC PUSH1 0xD SLOAD SWAP1 DUP2 ISZERO MUL SWAP1 PUSH1 0x40 MLOAD PUSH1 0x0 PUSH1 0x40 MLOAD DUP1 DUP4 SUB DUP2 DUP6 DUP9 DUP9 CALL SWAP4 POP POP POP POP ISZERO DUP1 ISZERO PUSH2 0x7CB JUMPI RETURNDATASIZE PUSH1 0x0 DUP1 RETURNDATACOPY RETURNDATASIZE PUSH1 0x0 REVERT JUMPDEST POP PUSH2 0xDD2 JUMP JUMPDEST PUSH1 0x7 SLOAD PUSH1 0x6 SLOAD GT DUP1 ISZERO PUSH2 0x800 JUMPI POP PUSH3 0x15180 PUSH1 0xB SLOAD PUSH2 0x7F0 SWAP2 SWAP1 PUSH2 0x12CF JUMP JUMPDEST PUSH1 0xA SLOAD PUSH2 0x7FD SWAP2 SWAP1 PUSH2 0x1311 JUMP JUMPDEST TIMESTAMP GT JUMPDEST ISZERO PUSH2 0x982 JUMPI DUP1 PUSH20 0xFFFFFFFFFFFFFFFFFFFFFFFFFFFFFFFFFFFFFFFF AND PUSH1 0x2 PUSH1 0x0 SWAP1 SLOAD SWAP1 PUSH2 0x100 EXP SWAP1 DIV PUSH20 0xFFFFFFFFFFFFFFFFFFFFFFFFFFFFFFFFFFFFFFFF AND PUSH20 0xFFFFFFFFFFFFFFFFFFFFFFFFFFFFFFFFFFFFFFFF AND EQ PUSH2 0x895 JUMPI PUSH1 0x40 MLOAD PUSH32 0x8C379A000000000000000000000000000000000000000000000000000000000 DUP2 MSTORE PUSH1 0x4 ADD PUSH2 0x88C SWAP1 PUSH2 0x13FD JUMP JUMPDEST PUSH1 0x40 MLOAD DUP1 SWAP2 SUB SWAP1 REVERT JUMPDEST PUSH1 0x2 PUSH1 0x0 SWAP1 SLOAD SWAP1 PUSH2 0x100 EXP SWAP1 DIV PUSH20 0xFFFFFFFFFFFFFFFFFFFFFFFFFFFFFFFFFFFFFFFF AND PUSH20 0xFFFFFFFFFFFFFFFFFFFFFFFFFFFFFFFFFFFFFFFF AND PUSH2 0x8FC PUSH2 0x8E6 PUSH1 0xD SLOAD SELFBALANCE PUSH2 0x10A9 SWAP1 SWAP2 SWAP1 PUSH4 0xFFFFFFFF AND JUMP JUMPDEST SWAP1 DUP2 ISZERO MUL SWAP1 PUSH1 0x40 MLOAD PUSH1 0x0 PUSH1 0x40 MLOAD DUP1 DUP4 SUB DUP2 DUP6 DUP9 DUP9 CALL SWAP4 POP POP POP POP ISZERO DUP1 ISZERO PUSH2 0x911 JUMPI RETURNDATASIZE PUSH1 0x0 DUP1 RETURNDATACOPY RETURNDATASIZE PUSH1 0x0 REVERT JUMPDEST POP PUSH1 0x3 PUSH1 0x0 SWAP1 SLOAD SWAP1 PUSH2 0x100 EXP SWAP1 DIV PUSH20 0xFFFFFFFFFFFFFFFFFFFFFFFFFFFFFFFFFFFFFFFF AND PUSH20 0xFFFFFFFFFFFFFFFFFFFFFFFFFFFFFFFFFFFFFFFF AND PUSH2 0x8FC PUSH1 0xD SLOAD SWAP1 DUP2 ISZERO MUL SWAP1 PUSH1 0x40 MLOAD PUSH1 0x0 PUSH1 0x40 MLOAD DUP1 DUP4 SUB DUP2 DUP6 DUP9 DUP9 CALL SWAP4 POP POP POP POP ISZERO DUP1 ISZERO PUSH2 0x97C JUMPI RETURNDATASIZE PUSH1 0x0 DUP1 RETURNDATACOPY RETURNDATASIZE PUSH1 0x0 REVERT JUMPDEST POP PUSH2 0xDD1 JUMP JUMPDEST PUSH1 0x0 SELFBALANCE EQ ISZERO DUP1 ISZERO PUSH2 0x996 JUMPI POP PUSH1 0x8 SLOAD PUSH1 0x5 SLOAD LT JUMPDEST DUP1 ISZERO PUSH2 0x9A5 JUMPI POP PUSH1 0x9 SLOAD PUSH1 0x6 SLOAD LT JUMPDEST DUP1 ISZERO PUSH2 0x9CD JUMPI POP PUSH3 0x15180 PUSH1 0xB SLOAD PUSH2 0x9BD SWAP2 SWAP1 PUSH2 0x12CF JUMP JUMPDEST PUSH1 0xA SLOAD PUSH2 0x9CA SWAP2 SWAP1 PUSH2 0x1311 JUMP JUMPDEST TIMESTAMP GT JUMPDEST ISZERO PUSH2 0xDD0 JUMPI PUSH1 0x2 PUSH1 0x0 SWAP1 SLOAD SWAP1 PUSH2 0x100 EXP SWAP1 DIV PUSH20 0xFFFFFFFFFFFFFFFFFFFFFFFFFFFFFFFFFFFFFFFF AND PUSH20 0xFFFFFFFFFFFFFFFFFFFFFFFFFFFFFFFFFFFFFFFF AND DUP2 PUSH20 0xFFFFFFFFFFFFFFFFFFFFFFFFFFFFFFFFFFFFFFFF AND EQ DUP1 PUSH2 0xA7B JUMPI POP PUSH1 0x1 PUSH1 0x0 SWAP1 SLOAD SWAP1 PUSH2 0x100 EXP SWAP1 DIV PUSH20 0xFFFFFFFFFFFFFFFFFFFFFFFFFFFFFFFFFFFFFFFF AND PUSH20 0xFFFFFFFFFFFFFFFFFFFFFFFFFFFFFFFFFFFFFFFF AND DUP2 PUSH20 0xFFFFFFFFFFFFFFFFFFFFFFFFFFFFFFFFFFFFFFFF AND EQ JUMPDEST PUSH2 0xABA JUMPI PUSH1 0x40 MLOAD PUSH32 0x8C379A000000000000000000000000000000000000000000000000000000000 DUP2 MSTORE PUSH1 0x4 ADD PUSH2 0xAB1 SWAP1 PUSH2 0x148F JUMP JUMPDEST PUSH1 0x40 MLOAD DUP1 SWAP2 SUB SWAP1 REVERT JUMPDEST PUSH1 0x2 PUSH1 0x0 SWAP1 SLOAD SWAP1 PUSH2 0x100 EXP SWAP1 DIV PUSH20 0xFFFFFFFFFFFFFFFFFFFFFFFFFFFFFFFFFFFFFFFF AND PUSH20 0xFFFFFFFFFFFFFFFFFFFFFFFFFFFFFFFFFFFFFFFF AND DUP2 PUSH20 0xFFFFFFFFFFFFFFFFFFFFFFFFFFFFFFFFFFFFFFFF AND EQ DUP1 ISZERO PUSH2 0xB1A JUMPI POP PUSH1 0x0 PUSH1 0x6 SLOAD EQ ISZERO JUMPDEST ISZERO PUSH2 0xC46 JUMPI PUSH2 0xB49 PUSH1 0x64 PUSH2 0xB3B PUSH1 0xC SLOAD PUSH1 0x6 SLOAD PUSH2 0x107D SWAP1 SWAP2 SWAP1 PUSH4 0xFFFFFFFF AND JUMP JUMPDEST PUSH2 0x1093 SWAP1 SWAP2 SWAP1 PUSH4 0xFFFFFFFF AND JUMP JUMPDEST PUSH1 0xD DUP2 SWAP1 SSTORE POP PUSH1 0x2 PUSH1 0x0 SWAP1 SLOAD SWAP1 PUSH2 0x100 EXP SWAP1 DIV PUSH20 0xFFFFFFFFFFFFFFFFFFFFFFFFFFFFFFFFFFFFFFFF AND PUSH20 0xFFFFFFFFFFFFFFFFFFFFFFFFFFFFFFFFFFFFFFFF AND PUSH2 0x8FC PUSH2 0xBA2 PUSH1 0xD SLOAD PUSH1 0x6 SLOAD PUSH2 0x10A9 SWAP1 SWAP2 SWAP1 PUSH4 0xFFFFFFFF AND JUMP JUMPDEST SWAP1 DUP2 ISZERO MUL SWAP1 PUSH1 0x40 MLOAD PUSH1 0x0 PUSH1 0x40 MLOAD DUP1 DUP4 SUB DUP2 DUP6 DUP9 DUP9 CALL SWAP4 POP POP POP POP ISZERO DUP1 ISZERO PUSH2 0xBCD JUMPI RETURNDATASIZE PUSH1 0x0 DUP1 RETURNDATACOPY RETURNDATASIZE PUSH1 0x0 REVERT JUMPDEST POP PUSH1 0x3 PUSH1 0x0 SWAP1 SLOAD SWAP1 PUSH2 0x100 EXP SWAP1 DIV PUSH20 0xFFFFFFFFFFFFFFFFFFFFFFFFFFFFFFFFFFFFFFFF AND PUSH20 0xFFFFFFFFFFFFFFFFFFFFFFFFFFFFFFFFFFFFFFFF AND PUSH2 0x8FC PUSH1 0xD SLOAD SWAP1 DUP2 ISZERO MUL SWAP1 PUSH1 0x40 MLOAD PUSH1 0x0 PUSH1 0x40 MLOAD DUP1 DUP4 SUB DUP2 DUP6 DUP9 DUP9 CALL SWAP4 POP POP POP POP ISZERO DUP1 ISZERO PUSH2 0xC38 JUMPI RETURNDATASIZE PUSH1 0x0 DUP1 RETURNDATACOPY RETURNDATASIZE PUSH1 0x0 REVERT JUMPDEST POP PUSH1 0x0 PUSH1 0x6 DUP2 SWAP1 SSTORE POP PUSH2 0xDCF JUMP JUMPDEST PUSH1 0x1 PUSH1 0x0 SWAP1 SLOAD SWAP1 PUSH2 0x100 EXP SWAP1 DIV PUSH20 0xFFFFFFFFFFFFFFFFFFFFFFFFFFFFFFFFFFFFFFFF AND PUSH20 0xFFFFFFFFFFFFFFFFFFFFFFFFFFFFFFFFFFFFFFFF AND DUP2 PUSH20 0xFFFFFFFFFFFFFFFFFFFFFFFFFFFFFFFFFFFFFFFF AND EQ DUP1 ISZERO PUSH2 0xCA6 JUMPI POP PUSH1 0x0 PUSH1 0x5 SLOAD EQ ISZERO JUMPDEST ISZERO PUSH2 0xDCE JUMPI PUSH2 0xCD5 PUSH1 0x64 PUSH2 0xCC7 PUSH1 0xC SLOAD PUSH1 0x5 SLOAD PUSH2 0x107D SWAP1 SWAP2 SWAP1 PUSH4 0xFFFFFFFF AND JUMP JUMPDEST PUSH2 0x1093 SWAP1 SWAP2 SWAP1 PUSH4 0xFFFFFFFF AND JUMP JUMPDEST PUSH1 0xD DUP2 SWAP1 SSTORE POP PUSH1 0x1 PUSH1 0x0 SWAP1 SLOAD SWAP1 PUSH2 0x100 EXP SWAP1 DIV PUSH20 0xFFFFFFFFFFFFFFFFFFFFFFFFFFFFFFFFFFFFFFFF AND PUSH20 0xFFFFFFFFFFFFFFFFFFFFFFFFFFFFFFFFFFFFFFFF AND PUSH2 0x8FC PUSH2 0xD2E PUSH1 0xD SLOAD PUSH1 0x5 SLOAD PUSH2 0x10A9 SWAP1 SWAP2 SWAP1 PUSH4 0xFFFFFFFF AND JUMP JUMPDEST SWAP1 DUP2 ISZERO MUL SWAP1 PUSH1 0x40 MLOAD PUSH1 0x0 PUSH1 0x40 MLOAD DUP1 DUP4 SUB DUP2 DUP6 DUP9 DUP9 CALL SWAP4 POP POP POP POP ISZERO DUP1 ISZERO PUSH2 0xD59 JUMPI RETURNDATASIZE PUSH1 0x0 DUP1 RETURNDATACOPY RETURNDATASIZE PUSH1 0x0 REVERT JUMPDEST POP PUSH1 0x3 PUSH1 0x0 SWAP1 SLOAD SWAP1 PUSH2 0x100 EXP SWAP1 DIV PUSH20 0xFFFFFFFFFFFFFFFFFFFFFFFFFFFFFFFFFFFFFFFF AND PUSH20 0xFFFFFFFFFFFFFFFFFFFFFFFFFFFFFFFFFFFFFFFF AND PUSH2 0x8FC PUSH1 0xD SLOAD SWAP1 DUP2 ISZERO MUL SWAP1 PUSH1 0x40 MLOAD PUSH1 0x0 PUSH1 0x40 MLOAD DUP1 DUP4 SUB DUP2 DUP6 DUP9 DUP9 CALL SWAP4 POP POP POP POP ISZERO DUP1 ISZERO PUSH2 0xDC4 JUMPI RETURNDATASIZE PUSH1 0x0 DUP1 RETURNDATACOPY RETURNDATASIZE PUSH1 0x0 REVERT JUMPDEST POP PUSH1 0x0 PUSH1 0x5 DUP2 SWAP1 SSTORE POP JUMPDEST JUMPDEST JUMPDEST JUMPDEST JUMPDEST PUSH2 0xDDA PUSH2 0x10BF JUMP JUMPDEST POP JUMP JUMPDEST PUSH1 0x0 PUSH1 0x9 SLOAD SWAP1 POP SWAP1 JUMP JUMPDEST PUSH1 0xB SLOAD DUP2 JUMP JUMPDEST PUSH1 0x5 SLOAD DUP2 JUMP JUMPDEST PUSH1 0x4 SLOAD DUP2 JUMP JUMPDEST PUSH1 0x9 SLOAD DUP2 JUMP JUMPDEST PUSH1 0x8 SLOAD DUP2 JUMP JUMPDEST PUSH1 0x0 PUSH1 0x1 PUSH1 0x0 SWAP1 SLOAD SWAP1 PUSH2 0x100 EXP SWAP1 DIV PUSH20 0xFFFFFFFFFFFFFFFFFFFFFFFFFFFFFFFFFFFFFFFF AND SWAP1 POP SWAP1 JUMP JUMPDEST PUSH1 0xA SLOAD DUP2 JUMP JUMPDEST PUSH1 0x0 PUSH1 0x8 SLOAD SWAP1 POP SWAP1 JUMP JUMPDEST PUSH1 0x0 PUSH1 0x7 SLOAD SWAP1 POP SWAP1 JUMP JUMPDEST PUSH1 0x6 SLOAD DUP2 JUMP JUMPDEST PUSH1 0x1 PUSH1 0x0 SWAP1 SLOAD SWAP1 PUSH2 0x100 EXP SWAP1 DIV PUSH20 0xFFFFFFFFFFFFFFFFFFFFFFFFFFFFFFFFFFFFFFFF AND PUSH20 0xFFFFFFFFFFFFFFFFFFFFFFFFFFFFFFFFFFFFFFFF AND DUP2 PUSH20 0xFFFFFFFFFFFFFFFFFFFFFFFFFFFFFFFFFFFFFFFF AND EQ DUP1 PUSH2 0xEF8 JUMPI POP PUSH1 0x2 PUSH1 0x0 SWAP1 SLOAD SWAP1 PUSH2 0x100 EXP SWAP1 DIV PUSH20 0xFFFFFFFFFFFFFFFFFFFFFFFFFFFFFFFFFFFFFFFF AND PUSH20 0xFFFFFFFFFFFFFFFFFFFFFFFFFFFFFFFFFFFFFFFF AND DUP2 PUSH20 0xFFFFFFFFFFFFFFFFFFFFFFFFFFFFFFFFFFFFFFFF AND EQ JUMPDEST PUSH2 0xF37 JUMPI PUSH1 0x40 MLOAD PUSH32 0x8C379A000000000000000000000000000000000000000000000000000000000 DUP2 MSTORE PUSH1 0x4 ADD PUSH2 0xF2E SWAP1 PUSH2 0x1521 JUMP JUMPDEST PUSH1 0x40 MLOAD DUP1 SWAP2 SUB SWAP1 REVERT JUMPDEST PUSH1 0x1 PUSH1 0x0 SWAP1 SLOAD SWAP1 PUSH2 0x100 EXP SWAP1 DIV PUSH20 0xFFFFFFFFFFFFFFFFFFFFFFFFFFFFFFFFFFFFFFFF AND PUSH20 0xFFFFFFFFFFFFFFFFFFFFFFFFFFFFFFFFFFFFFFFF AND DUP2 PUSH20 0xFFFFFFFFFFFFFFFFFFFFFFFFFFFFFFFFFFFFFFFF AND SUB PUSH2 0xFAA JUMPI CALLVALUE PUSH1 0x5 PUSH1 0x0 DUP3 DUP3 SLOAD PUSH2 0xF9E SWAP2 SWAP1 PUSH2 0x1311 JUMP JUMPDEST SWAP3 POP POP DUP2 SWAP1 SSTORE POP PUSH2 0xFC4 JUMP JUMPDEST CALLVALUE PUSH1 0x6 PUSH1 0x0 DUP3 DUP3 SLOAD PUSH2 0xFBC SWAP2 SWAP1 PUSH2 0x1311 JUMP JUMPDEST SWAP3 POP POP DUP2 SWAP1 SSTORE POP JUMPDEST CALLVALUE PUSH1 0x4 PUSH1 0x0 DUP3 DUP3 SLOAD PUSH2 0xFD6 SWAP2 SWAP1 PUSH2 0x1311 JUMP JUMPDEST SWAP3 POP POP DUP2 SWAP1 SSTORE POP DUP1 PUSH20 0xFFFFFFFFFFFFFFFFFFFFFFFFFFFFFFFFFFFFFFFF AND PUSH32 0x543BA50A5EEC5E6178218E364B1D0F396157B3C8FA278522C2CB7FD99407D474 CALLVALUE PUSH1 0x40 MLOAD PUSH2 0x1023 SWAP2 SWAP1 PUSH2 0x10E2 JUMP JUMPDEST PUSH1 0x40 MLOAD DUP1 SWAP2 SUB SWAP1 LOG2 POP JUMP JUMPDEST PUSH1 0x2 PUSH1 0x0 SLOAD SUB PUSH2 0x1073 JUMPI PUSH1 0x40 MLOAD PUSH32 0x8C379A000000000000000000000000000000000000000000000000000000000 DUP2 MSTORE PUSH1 0x4 ADD PUSH2 0x106A SWAP1 PUSH2 0x158D JUMP JUMPDEST PUSH1 0x40 MLOAD DUP1 SWAP2 SUB SWAP1 REVERT JUMPDEST PUSH1 0x2 PUSH1 0x0 DUP2 SWAP1 SSTORE POP JUMP JUMPDEST PUSH1 0x0 DUP2 DUP4 PUSH2 0x108B SWAP2 SWAP1 PUSH2 0x12CF JUMP JUMPDEST SWAP1 POP SWAP3 SWAP2 POP POP JUMP JUMPDEST PUSH1 0x0 DUP2 DUP4 PUSH2 0x10A1 SWAP2 SWAP1 PUSH2 0x15DC JUMP JUMPDEST SWAP1 POP SWAP3 SWAP2 POP POP JUMP JUMPDEST PUSH1 0x0 DUP2 DUP4 PUSH2 0x10B7 SWAP2 SWAP1 PUSH2 0x160D JUMP JUMPDEST SWAP1 POP SWAP3 SWAP2 POP POP JUMP JUMPDEST PUSH1 0x1 PUSH1 0x0 DUP2 SWAP1 SSTORE POP JUMP JUMPDEST PUSH1 0x0 DUP2 SWAP1 POP SWAP2 SWAP1 POP JUMP JUMPDEST PUSH2 0x10DC DUP2 PUSH2 0x10C9 JUMP JUMPDEST DUP3 MSTORE POP POP JUMP JUMPDEST PUSH1 0x0 PUSH1 0x20 DUP3 ADD SWAP1 POP PUSH2 0x10F7 PUSH1 0x0 DUP4 ADD DUP5 PUSH2 0x10D3 JUMP JUMPDEST SWAP3 SWAP2 POP POP JUMP JUMPDEST PUSH1 0x0 PUSH20 0xFFFFFFFFFFFFFFFFFFFFFFFFFFFFFFFFFFFFFFFF DUP3 AND SWAP1 POP SWAP2 SWAP1 POP JUMP JUMPDEST PUSH1 0x0 PUSH2 0x1128 DUP3 PUSH2 0x10FD JUMP JUMPDEST SWAP1 POP SWAP2 SWAP1 POP JUMP JUMPDEST PUSH2 0x1138 DUP2 PUSH2 0x111D JUMP JUMPDEST DUP3 MSTORE POP POP JUMP JUMPDEST PUSH1 0x0 PUSH1 0x20 DUP3 ADD SWAP1 POP PUSH2 0x1153 PUSH1 0x0 DUP4 ADD DUP5 PUSH2 0x112F JUMP JUMPDEST SWAP3 SWAP2 POP POP JUMP JUMPDEST PUSH1 0x0 DUP1 REVERT JUMPDEST PUSH2 0x1167 DUP2 PUSH2 0x111D JUMP JUMPDEST DUP2 EQ PUSH2 0x1172 JUMPI PUSH1 0x0 DUP1 REVERT JUMPDEST POP JUMP JUMPDEST PUSH1 0x0 DUP2 CALLDATALOAD SWAP1 POP PUSH2 0x1184 DUP2 PUSH2 0x115E JUMP JUMPDEST SWAP3 SWAP2 POP POP JUMP JUMPDEST PUSH1 0x0 PUSH1 0x20 DUP3 DUP5 SUB SLT ISZERO PUSH2 0x11A0 JUMPI PUSH2 0x119F PUSH2 0x1159 JUMP JUMPDEST JUMPDEST PUSH1 0x0 PUSH2 0x11AE DUP5 DUP3 DUP6 ADD PUSH2 0x1175 JUMP JUMPDEST SWAP2 POP POP SWAP3 SWAP2 POP POP JUMP JUMPDEST PUSH1 0x0 DUP3 DUP3 MSTORE PUSH1 0x20 DUP3 ADD SWAP1 POP SWAP3 SWAP2 POP POP JUMP JUMPDEST PUSH32 0x436F6E747261637420646F6E277420686176652066756E647300000000000000 PUSH1 0x0 DUP3 ADD MSTORE POP JUMP JUMPDEST PUSH1 0x0 PUSH2 0x11FE PUSH1 0x19 DUP4 PUSH2 0x11B7 JUMP JUMPDEST SWAP2 POP PUSH2 0x1209 DUP3 PUSH2 0x11C8 JUMP JUMPDEST PUSH1 0x20 DUP3 ADD SWAP1 POP SWAP2 SWAP1 POP JUMP JUMPDEST PUSH1 0x0 PUSH1 0x20 DUP3 ADD SWAP1 POP DUP2 DUP2 SUB PUSH1 0x0 DUP4 ADD MSTORE PUSH2 0x122D DUP2 PUSH2 0x11F1 JUMP JUMPDEST SWAP1 POP SWAP2 SWAP1 POP JUMP JUMPDEST PUSH32 0x54696D65206973206E6F74206F76657220796574000000000000000000000000 PUSH1 0x0 DUP3 ADD MSTORE POP JUMP JUMPDEST PUSH1 0x0 PUSH2 0x126A PUSH1 0x14 DUP4 PUSH2 0x11B7 JUMP JUMPDEST SWAP2 POP PUSH2 0x1275 DUP3 PUSH2 0x1234 JUMP JUMPDEST PUSH1 0x20 DUP3 ADD SWAP1 POP SWAP2 SWAP1 POP JUMP JUMPDEST PUSH1 0x0 PUSH1 0x20 DUP3 ADD SWAP1 POP DUP2 DUP2 SUB PUSH1 0x0 DUP4 ADD MSTORE PUSH2 0x1299 DUP2 PUSH2 0x125D JUMP JUMPDEST SWAP1 POP SWAP2 SWAP1 POP JUMP JUMPDEST PUSH32 0x4E487B7100000000000000000000000000000000000000000000000000000000 PUSH1 0x0 MSTORE PUSH1 0x11 PUSH1 0x4 MSTORE PUSH1 0x24 PUSH1 0x0 REVERT JUMPDEST PUSH1 0x0 PUSH2 0x12DA DUP3 PUSH2 0x10C9 JUMP JUMPDEST SWAP2 POP PUSH2 0x12E5 DUP4 PUSH2 0x10C9 JUMP JUMPDEST SWAP3 POP DUP3 DUP3 MUL PUSH2 0x12F3 DUP2 PUSH2 0x10C9 JUMP JUMPDEST SWAP2 POP DUP3 DUP3 DIV DUP5 EQ DUP4 ISZERO OR PUSH2 0x130A JUMPI PUSH2 0x1309 PUSH2 0x12A0 JUMP JUMPDEST JUMPDEST POP SWAP3 SWAP2 POP POP JUMP JUMPDEST PUSH1 0x0 PUSH2 0x131C DUP3 PUSH2 0x10C9 JUMP JUMPDEST SWAP2 POP PUSH2 0x1327 DUP4 PUSH2 0x10C9 JUMP JUMPDEST SWAP3 POP DUP3 DUP3 ADD SWAP1 POP DUP1 DUP3 GT ISZERO PUSH2 0x133F JUMPI PUSH2 0x133E PUSH2 0x12A0 JUMP JUMPDEST JUMPDEST SWAP3 SWAP2 POP POP JUMP JUMPDEST PUSH32 0x596F7520617265206E6F74207468652073656C6C657200000000000000000000 PUSH1 0x0 DUP3 ADD MSTORE POP JUMP JUMPDEST PUSH1 0x0 PUSH2 0x137B PUSH1 0x16 DUP4 PUSH2 0x11B7 JUMP JUMPDEST SWAP2 POP PUSH2 0x1386 DUP3 PUSH2 0x1345 JUMP JUMPDEST PUSH1 0x20 DUP3 ADD SWAP1 POP SWAP2 SWAP1 POP JUMP JUMPDEST PUSH1 0x0 PUSH1 0x20 DUP3 ADD SWAP1 POP DUP2 DUP2 SUB PUSH1 0x0 DUP4 ADD MSTORE PUSH2 0x13AA DUP2 PUSH2 0x136E JUMP JUMPDEST SWAP1 POP SWAP2 SWAP1 POP JUMP JUMPDEST PUSH32 0x596F7520617265206E6F74207468652062757965720000000000000000000000 PUSH1 0x0 DUP3 ADD MSTORE POP JUMP JUMPDEST PUSH1 0x0 PUSH2 0x13E7 PUSH1 0x15 DUP4 PUSH2 0x11B7 JUMP JUMPDEST SWAP2 POP PUSH2 0x13F2 DUP3 PUSH2 0x13B1 JUMP JUMPDEST PUSH1 0x20 DUP3 ADD SWAP1 POP SWAP2 SWAP1 POP JUMP JUMPDEST PUSH1 0x0 PUSH1 0x20 DUP3 ADD SWAP1 POP DUP2 DUP2 SUB PUSH1 0x0 DUP4 ADD MSTORE PUSH2 0x1416 DUP2 PUSH2 0x13DA JUMP JUMPDEST SWAP1 POP SWAP2 SWAP1 POP JUMP JUMPDEST PUSH32 0x4A757374206275796572206F722073656C6C65722063616E2077697468647261 PUSH1 0x0 DUP3 ADD MSTORE PUSH32 0x7700000000000000000000000000000000000000000000000000000000000000 PUSH1 0x20 DUP3 ADD MSTORE POP JUMP JUMPDEST PUSH1 0x0 PUSH2 0x1479 PUSH1 0x21 DUP4 PUSH2 0x11B7 JUMP JUMPDEST SWAP2 POP PUSH2 0x1484 DUP3 PUSH2 0x141D JUMP JUMPDEST PUSH1 0x40 DUP3 ADD SWAP1 POP SWAP2 SWAP1 POP JUMP JUMPDEST PUSH1 0x0 PUSH1 0x20 DUP3 ADD SWAP1 POP DUP2 DUP2 SUB PUSH1 0x0 DUP4 ADD MSTORE PUSH2 0x14A8 DUP2 PUSH2 0x146C JUMP JUMPDEST SWAP1 POP SWAP2 SWAP1 POP JUMP JUMPDEST PUSH32 0x4F6E6C79207468652073656C6C6572206F722062757965722063616E20646570 PUSH1 0x0 DUP3 ADD MSTORE PUSH32 0x6F7369742066756E647300000000000000000000000000000000000000000000 PUSH1 0x20 DUP3 ADD MSTORE POP JUMP JUMPDEST PUSH1 0x0 PUSH2 0x150B PUSH1 0x2A DUP4 PUSH2 0x11B7 JUMP JUMPDEST SWAP2 POP PUSH2 0x1516 DUP3 PUSH2 0x14AF JUMP JUMPDEST PUSH1 0x40 DUP3 ADD SWAP1 POP SWAP2 SWAP1 POP JUMP JUMPDEST PUSH1 0x0 PUSH1 0x20 DUP3 ADD SWAP1 POP DUP2 DUP2 SUB PUSH1 0x0 DUP4 ADD MSTORE PUSH2 0x153A DUP2 PUSH2 0x14FE JUMP JUMPDEST SWAP1 POP SWAP2 SWAP1 POP JUMP JUMPDEST PUSH32 0x5265656E7472616E637947756172643A207265656E7472616E742063616C6C00 PUSH1 0x0 DUP3 ADD MSTORE POP JUMP JUMPDEST PUSH1 0x0 PUSH2 0x1577 PUSH1 0x1F DUP4 PUSH2 0x11B7 JUMP JUMPDEST SWAP2 POP PUSH2 0x1582 DUP3 PUSH2 0x1541 JUMP JUMPDEST PUSH1 0x20 DUP3 ADD SWAP1 POP SWAP2 SWAP1 POP JUMP JUMPDEST PUSH1 0x0 PUSH1 0x20 DUP3 ADD SWAP1 POP DUP2 DUP2 SUB PUSH1 0x0 DUP4 ADD MSTORE PUSH2 0x15A6 DUP2 PUSH2 0x156A JUMP JUMPDEST SWAP1 POP SWAP2 SWAP1 POP JUMP JUMPDEST PUSH32 0x4E487B7100000000000000000000000000000000000000000000000000000000 PUSH1 0x0 MSTORE PUSH1 0x12 PUSH1 0x4 MSTORE PUSH1 0x24 PUSH1 0x0 REVERT JUMPDEST PUSH1 0x0 PUSH2 0x15E7 DUP3 PUSH2 0x10C9 JUMP JUMPDEST SWAP2 POP PUSH2 0x15F2 DUP4 PUSH2 0x10C9 JUMP JUMPDEST SWAP3 POP DUP3 PUSH2 0x1602 JUMPI PUSH2 0x1601 PUSH2 0x15AD JUMP JUMPDEST JUMPDEST DUP3 DUP3 DIV SWAP1 POP SWAP3 SWAP2 POP POP JUMP JUMPDEST PUSH1 0x0 PUSH2 0x1618 DUP3 PUSH2 0x10C9 JUMP JUMPDEST SWAP2 POP PUSH2 0x1623 DUP4 PUSH2 0x10C9 JUMP JUMPDEST SWAP3 POP DUP3 DUP3 SUB SWAP1 POP DUP2 DUP2 GT ISZERO PUSH2 0x163B JUMPI PUSH2 0x163A PUSH2 0x12A0 JUMP JUMPDEST JUMPDEST SWAP3 SWAP2 POP POP JUMP INVALID LOG2 PUSH5 0x6970667358 0x22 SLT KECCAK256 JUMPI 0xEE SWAP4 0x4D SWAP5 0xBA 0x1F 0xF6 0xD6 STATICCALL 0x5F 0xBE SLOAD 0xAA SLT GASPRICE DUP4 0xC4 DUP3 SUB 0xE3 PUSH23 0x5FFCDCEBDAF5FD03C57864736F6C634300081200330000 "
				},
				"gasEstimates": {
					"creation": {
						"codeDepositCost": "1150200",
						"executionCost": "infinite",
						"totalCost": "infinite"
					},
					"external": {
						"": "2153",
						"buyerBalance()": "2517",
						"buyerPreAgreementAmount()": "2496",
						"contractBalance()": "2474",
						"daysForWithdrawal()": "2540",
						"deposit(address)": "infinite",
						"endDate()": "2451",
						"returnBuyer()": "2567",
						"returnBuyerBalance()": "2460",
						"returnBuyerPreAgreementAmount()": "2526",
						"returnDaysForWithdrawal()": "2483",
						"returnEndDate()": "2505",
						"returnSecurityDeposit()": "2503",
						"returnSeller()": "2633",
						"returnSellerBalance()": "2527",
						"returnSellerPreAgreementAmount()": "2481",
						"securityDeposit()": "2453",
						"sellerBalance()": "2452",
						"sellerPreAgreementAmount()": "2518",
						"withdraw(address)": "infinite"
					}
				},
				"methodIdentifiers": {
					"buyerBalance()": "e6cdc708",
					"buyerPreAgreementAmount()": "99dc2df3",
					"contractBalance()": "8b7afe2e",
					"daysForWithdrawal()": "6d5e7a15",
					"deposit(address)": "f340fa01",
					"endDate()": "c24a0f8b",
					"returnBuyer()": "4ce9e6de",
					"returnBuyerBalance()": "4680dd2f",
					"returnBuyerPreAgreementAmount()": "69cf1e90",
					"returnDaysForWithdrawal()": "31658e32",
					"returnEndDate()": "36359265",
					"returnSecurityDeposit()": "db292621",
					"returnSeller()": "ba12a5c5",
					"returnSellerBalance()": "4644803f",
					"returnSellerPreAgreementAmount()": "d0bf21fd",
					"securityDeposit()": "220e5ab3",
					"sellerBalance()": "867a06b3",
					"sellerPreAgreementAmount()": "a7245b6e",
					"withdraw(address)": "51cff8d9"
				}
			},
			"storageLayout": {
				"storage": [
					{
						"astId": 10,
						"contract": "contracts/escrow.sol:escrow",
						"label": "_status",
						"offset": 0,
						"slot": "0",
						"type": "t_uint256"
					},
					{
						"astId": 373,
						"contract": "contracts/escrow.sol:escrow",
						"label": "seller",
						"offset": 0,
						"slot": "1",
						"type": "t_address_payable"
					},
					{
						"astId": 375,
						"contract": "contracts/escrow.sol:escrow",
						"label": "buyer",
						"offset": 0,
						"slot": "2",
						"type": "t_address_payable"
					},
					{
						"astId": 377,
						"contract": "contracts/escrow.sol:escrow",
						"label": "feeAddress",
						"offset": 0,
						"slot": "3",
						"type": "t_address_payable"
					},
					{
						"astId": 379,
						"contract": "contracts/escrow.sol:escrow",
						"label": "contractBalance",
						"offset": 0,
						"slot": "4",
						"type": "t_uint256"
					},
					{
						"astId": 381,
						"contract": "contracts/escrow.sol:escrow",
						"label": "sellerBalance",
						"offset": 0,
						"slot": "5",
						"type": "t_uint256"
					},
					{
						"astId": 383,
						"contract": "contracts/escrow.sol:escrow",
						"label": "buyerBalance",
						"offset": 0,
						"slot": "6",
						"type": "t_uint256"
					},
					{
						"astId": 385,
						"contract": "contracts/escrow.sol:escrow",
						"label": "securityDeposit",
						"offset": 0,
						"slot": "7",
						"type": "t_uint256"
					},
					{
						"astId": 387,
						"contract": "contracts/escrow.sol:escrow",
						"label": "sellerPreAgreementAmount",
						"offset": 0,
						"slot": "8",
						"type": "t_uint256"
					},
					{
						"astId": 389,
						"contract": "contracts/escrow.sol:escrow",
						"label": "buyerPreAgreementAmount",
						"offset": 0,
						"slot": "9",
						"type": "t_uint256"
					},
					{
						"astId": 391,
						"contract": "contracts/escrow.sol:escrow",
						"label": "endDate",
						"offset": 0,
						"slot": "10",
						"type": "t_uint256"
					},
					{
						"astId": 393,
						"contract": "contracts/escrow.sol:escrow",
						"label": "daysForWithdrawal",
						"offset": 0,
						"slot": "11",
						"type": "t_uint256"
					},
					{
						"astId": 395,
						"contract": "contracts/escrow.sol:escrow",
						"label": "transferFee",
						"offset": 0,
						"slot": "12",
						"type": "t_uint256"
					},
					{
						"astId": 397,
						"contract": "contracts/escrow.sol:escrow",
						"label": "fee",
						"offset": 0,
						"slot": "13",
						"type": "t_uint256"
					}
				],
				"types": {
					"t_address_payable": {
						"encoding": "inplace",
						"label": "address payable",
						"numberOfBytes": "20"
					},
					"t_uint256": {
						"encoding": "inplace",
						"label": "uint256",
						"numberOfBytes": "32"
					}
				}
			},
			"userdoc": {
				"kind": "user",
				"methods": {},
				"version": 1
			}
		}
	}
}