{
	"data": {
		"bytecode": {
			"linkReferences": {},
			"object": "60806040523480156200001157600080fd5b506040516200197538038062001975833981810160405281019062000037919062000225565b600160008190555087600160006101000a81548173ffffffffffffffffffffffffffffffffffffffff021916908373ffffffffffffffffffffffffffffffffffffffff16021790555086600260006101000a81548173ffffffffffffffffffffffffffffffffffffffff021916908373ffffffffffffffffffffffffffffffffffffffff16021790555085600781905550846008819055508360098190555082600a8190555081600b819055506001600c8190555080600360006101000a81548173ffffffffffffffffffffffffffffffffffffffff021916908373ffffffffffffffffffffffffffffffffffffffff1602179055505050505050505050620002ee565b600080fd5b600073ffffffffffffffffffffffffffffffffffffffff82169050919050565b60006200016d8262000140565b9050919050565b6200017f8162000160565b81146200018b57600080fd5b50565b6000815190506200019f8162000174565b92915050565b6000819050919050565b620001ba81620001a5565b8114620001c657600080fd5b50565b600081519050620001da81620001af565b92915050565b6000620001ed8262000140565b9050919050565b620001ff81620001e0565b81146200020b57600080fd5b50565b6000815190506200021f81620001f4565b92915050565b600080600080600080600080610100898b0312156200024957620002486200013b565b5b6000620002598b828c016200018e565b98505060206200026c8b828c016200018e565b97505060406200027f8b828c01620001c9565b9650506060620002928b828c01620001c9565b9550506080620002a58b828c01620001c9565b94505060a0620002b88b828c01620001c9565b93505060c0620002cb8b828c01620001c9565b92505060e0620002de8b828c016200020e565b9150509295985092959890939650565b61167780620002fe6000396000f3fe6080604052600436106101185760003560e01c8063867a06b3116100a0578063c24a0f8b11610064578063c24a0f8b14610436578063d0bf21fd14610461578063db2926211461048c578063e6cdc708146104b7578063f340fa01146104e257610184565b8063867a06b31461035f5780638b7afe2e1461038a57806399dc2df3146103b5578063a7245b6e146103e0578063ba12a5c51461040b57610184565b80634680dd2f116100e75780634680dd2f146102975780634ce9e6de146102c257806351cff8d9146102ed57806369cf1e90146103095780636d5e7a151461033457610184565b8063220e5ab3146101eb57806331658e321461021657806336359265146102415780634644803f1461026c57610184565b36610184573373ffffffffffffffffffffffffffffffffffffffff163073ffffffffffffffffffffffffffffffffffffffff167f5548c837ab068cf56a2c2479df0882a4922fd203edb7517321831d95078c5f623460405161017a91906110e2565b60405180910390a3005b3373ffffffffffffffffffffffffffffffffffffffff163073ffffffffffffffffffffffffffffffffffffffff167f5548c837ab068cf56a2c2479df0882a4922fd203edb7517321831d95078c5f62346040516101e191906110e2565b60405180910390a3005b3480156101f757600080fd5b506102006104fe565b60405161020d91906110e2565b60405180910390f35b34801561022257600080fd5b5061022b610504565b60405161023891906110e2565b60405180910390f35b34801561024d57600080fd5b5061025661050e565b60405161026391906110e2565b60405180910390f35b34801561027857600080fd5b50610281610518565b60405161028e91906110e2565b60405180910390f35b3480156102a357600080fd5b506102ac610522565b6040516102b991906110e2565b60405180910390f35b3480156102ce57600080fd5b506102d761052c565b6040516102e4919061113e565b60405180910390f35b6103076004803603810190610302919061118a565b610556565b005b34801561031557600080fd5b5061031e610ddd565b60405161032b91906110e2565b60405180910390f35b34801561034057600080fd5b50610349610de7565b60405161035691906110e2565b60405180910390f35b34801561036b57600080fd5b50610374610ded565b60405161038191906110e2565b60405180910390f35b34801561039657600080fd5b5061039f610df3565b6040516103ac91906110e2565b60405180910390f35b3480156103c157600080fd5b506103ca610df9565b6040516103d791906110e2565b60405180910390f35b3480156103ec57600080fd5b506103f5610dff565b60405161040291906110e2565b60405180910390f35b34801561041757600080fd5b50610420610e05565b60405161042d919061113e565b60405180910390f35b34801561044257600080fd5b5061044b610e2f565b60405161045891906110e2565b60405180910390f35b34801561046d57600080fd5b50610476610e35565b60405161048391906110e2565b60405180910390f35b34801561049857600080fd5b506104a1610e3f565b6040516104ae91906110e2565b60405180910390f35b3480156104c357600080fd5b506104cc610e49565b6040516104d991906110e2565b60405180910390f35b6104fc60048036038101906104f7919061118a565b610e4f565b005b60075481565b6000600b54905090565b6000600a54905090565b6000600554905090565b6000600654905090565b6000600260009054906101000a900473ffffffffffffffffffffffffffffffffffffffff16905090565b61055e61102e565b600047036105a1576040517f08c379a000000000000000000000000000000000000000000000000000000000815260040161059890611214565b60405180910390fd5b600a5442106105e5576040517f08c379a00000000000000000000000000000000000000000000000000000000081526004016105dc90611280565b60405180910390fd5b61060d60646105ff600c544761107d90919063ffffffff16565b61109390919063ffffffff16565b600d819055506008546005541180156106275750600a5442115b801561064f575062015180600b5461063f91906112cf565b600a5461064c9190611311565b42105b156107d1578073ffffffffffffffffffffffffffffffffffffffff16600160009054906101000a900473ffffffffffffffffffffffffffffffffffffffff1673ffffffffffffffffffffffffffffffffffffffff16146106e4576040517f08c379a00000000000000000000000000000000000000000000000000000000081526004016106db90611391565b60405180910390fd5b600160009054906101000a900473ffffffffffffffffffffffffffffffffffffffff1673ffffffffffffffffffffffffffffffffffffffff166108fc610735600d54476110a990919063ffffffff16565b9081150290604051600060405180830381858888f19350505050158015610760573d6000803e3d6000fd5b50600360009054906101000a900473ffffffffffffffffffffffffffffffffffffffff1673ffffffffffffffffffffffffffffffffffffffff166108fc600d549081150290604051600060405180830381858888f193505050501580156107cb573d6000803e3d6000fd5b50610dd2565b600754600654118015610800575062015180600b546107f091906112cf565b600a546107fd9190611311565b42115b15610982578073ffffffffffffffffffffffffffffffffffffffff16600260009054906101000a900473ffffffffffffffffffffffffffffffffffffffff1673ffffffffffffffffffffffffffffffffffffffff1614610895576040517f08c379a000000000000000000000000000000000000000000000000000000000815260040161088c906113fd565b60405180910390fd5b600260009054906101000a900473ffffffffffffffffffffffffffffffffffffffff1673ffffffffffffffffffffffffffffffffffffffff166108fc6108e6600d54476110a990919063ffffffff16565b9081150290604051600060405180830381858888f19350505050158015610911573d6000803e3d6000fd5b50600360009054906101000a900473ffffffffffffffffffffffffffffffffffffffff1673ffffffffffffffffffffffffffffffffffffffff166108fc600d549081150290604051600060405180830381858888f1935050505015801561097c573d6000803e3d6000fd5b50610dd1565b600047141580156109965750600854600554105b80156109a55750600954600654105b80156109cd575062015180600b546109bd91906112cf565b600a546109ca9190611311565b42115b15610dd057600260009054906101000a900473ffffffffffffffffffffffffffffffffffffffff1673ffffffffffffffffffffffffffffffffffffffff168173ffffffffffffffffffffffffffffffffffffffff161480610a7b5750600160009054906101000a900473ffffffffffffffffffffffffffffffffffffffff1673ffffffffffffffffffffffffffffffffffffffff168173ffffffffffffffffffffffffffffffffffffffff16145b610aba576040517f08c379a0000000000000000000000000000000000000000000000000000000008152600401610ab19061148f565b60405180910390fd5b600260009054906101000a900473ffffffffffffffffffffffffffffffffffffffff1673ffffffffffffffffffffffffffffffffffffffff168173ffffffffffffffffffffffffffffffffffffffff16148015610b1a5750600060065414155b15610c4657610b496064610b3b600c5460065461107d90919063ffffffff16565b61109390919063ffffffff16565b600d81905550600260009054906101000a900473ffffffffffffffffffffffffffffffffffffffff1673ffffffffffffffffffffffffffffffffffffffff166108fc610ba2600d546006546110a990919063ffffffff16565b9081150290604051600060405180830381858888f19350505050158015610bcd573d6000803e3d6000fd5b50600360009054906101000a900473ffffffffffffffffffffffffffffffffffffffff1673ffffffffffffffffffffffffffffffffffffffff166108fc600d549081150290604051600060405180830381858888f19350505050158015610c38573d6000803e3d6000fd5b506000600681905550610dcf565b600160009054906101000a900473ffffffffffffffffffffffffffffffffffffffff1673ffffffffffffffffffffffffffffffffffffffff168173ffffffffffffffffffffffffffffffffffffffff16148015610ca65750600060055414155b15610dce57610cd56064610cc7600c5460055461107d90919063ffffffff16565b61109390919063ffffffff16565b600d81905550600160009054906101000a900473ffffffffffffffffffffffffffffffffffffffff1673ffffffffffffffffffffffffffffffffffffffff166108fc610d2e600d546005546110a990919063ffffffff16565b9081150290604051600060405180830381858888f19350505050158015610d59573d6000803e3d6000fd5b50600360009054906101000a900473ffffffffffffffffffffffffffffffffffffffff1673ffffffffffffffffffffffffffffffffffffffff166108fc600d549081150290604051600060405180830381858888f19350505050158015610dc4573d6000803e3d6000fd5b5060006005819055505b5b5b5b5b610dda6110bf565b50565b6000600954905090565b600b5481565b60055481565b60045481565b60095481565b60085481565b6000600160009054906101000a900473ffffffffffffffffffffffffffffffffffffffff16905090565b600a5481565b6000600854905090565b6000600754905090565b60065481565b600160009054906101000a900473ffffffffffffffffffffffffffffffffffffffff1673ffffffffffffffffffffffffffffffffffffffff168173ffffffffffffffffffffffffffffffffffffffff161480610ef85750600260009054906101000a900473ffffffffffffffffffffffffffffffffffffffff1673ffffffffffffffffffffffffffffffffffffffff168173ffffffffffffffffffffffffffffffffffffffff16145b610f37576040517f08c379a0000000000000000000000000000000000000000000000000000000008152600401610f2e90611521565b60405180910390fd5b600160009054906101000a900473ffffffffffffffffffffffffffffffffffffffff1673ffffffffffffffffffffffffffffffffffffffff168173ffffffffffffffffffffffffffffffffffffffff1603610faa573460056000828254610f9e9190611311565b92505081905550610fc4565b3460066000828254610fbc9190611311565b925050819055505b3460046000828254610fd69190611311565b925050819055508073ffffffffffffffffffffffffffffffffffffffff167f543ba50a5eec5e6178218e364b1d0f396157b3c8fa278522c2cb7fd99407d4743460405161102391906110e2565b60405180910390a250565b600260005403611073576040517f08c379a000000000000000000000000000000000000000000000000000000000815260040161106a9061158d565b60405180910390fd5b6002600081905550565b6000818361108b91906112cf565b905092915050565b600081836110a191906115dc565b905092915050565b600081836110b7919061160d565b905092915050565b6001600081905550565b6000819050919050565b6110dc816110c9565b82525050565b60006020820190506110f760008301846110d3565b92915050565b600073ffffffffffffffffffffffffffffffffffffffff82169050919050565b6000611128826110fd565b9050919050565b6111388161111d565b82525050565b6000602082019050611153600083018461112f565b92915050565b600080fd5b6111678161111d565b811461117257600080fd5b50565b6000813590506111848161115e565b92915050565b6000602082840312156111a05761119f611159565b5b60006111ae84828501611175565b91505092915050565b600082825260208201905092915050565b7f436f6e747261637420646f6e277420686176652066756e647300000000000000600082015250565b60006111fe6019836111b7565b9150611209826111c8565b602082019050919050565b6000602082019050818103600083015261122d816111f1565b9050919050565b7f54696d65206973206e6f74206f76657220796574000000000000000000000000600082015250565b600061126a6014836111b7565b915061127582611234565b602082019050919050565b600060208201905081810360008301526112998161125d565b9050919050565b7f4e487b7100000000000000000000000000000000000000000000000000000000600052601160045260246000fd5b60006112da826110c9565b91506112e5836110c9565b92508282026112f3816110c9565b9150828204841483151761130a576113096112a0565b5b5092915050565b600061131c826110c9565b9150611327836110c9565b925082820190508082111561133f5761133e6112a0565b5b92915050565b7f596f7520617265206e6f74207468652073656c6c657200000000000000000000600082015250565b600061137b6016836111b7565b915061138682611345565b602082019050919050565b600060208201905081810360008301526113aa8161136e565b9050919050565b7f596f7520617265206e6f74207468652062757965720000000000000000000000600082015250565b60006113e76015836111b7565b91506113f2826113b1565b602082019050919050565b60006020820190508181036000830152611416816113da565b9050919050565b7f4a757374206275796572206f722073656c6c65722063616e207769746864726160008201527f7700000000000000000000000000000000000000000000000000000000000000602082015250565b60006114796021836111b7565b91506114848261141d565b604082019050919050565b600060208201905081810360008301526114a88161146c565b9050919050565b7f4f6e6c79207468652073656c6c6572206f722062757965722063616e2064657060008201527f6f7369742066756e647300000000000000000000000000000000000000000000602082015250565b600061150b602a836111b7565b9150611516826114af565b604082019050919050565b6000602082019050818103600083015261153a816114fe565b9050919050565b7f5265656e7472616e637947756172643a207265656e7472616e742063616c6c00600082015250565b6000611577601f836111b7565b915061158282611541565b602082019050919050565b600060208201905081810360008301526115a68161156a565b9050919050565b7f4e487b7100000000000000000000000000000000000000000000000000000000600052601260045260246000fd5b60006115e7826110c9565b91506115f2836110c9565b925082611602576116016115ad565b5b828204905092915050565b6000611618826110c9565b9150611623836110c9565b925082820390508181111561163b5761163a6112a0565b5b9291505056fea264697066735822122057ee934d94ba1ff6d6fa5fbe54aa123a83c48203e3765ffcdcebdaf5fd03c57864736f6c63430008120033",
			"opcodes": "PUSH1 0x80 PUSH1 0x40 MSTORE CALLVALUE DUP1 ISZERO PUSH3 0x11 JUMPI PUSH1 0x0 DUP1 REVERT JUMPDEST POP PUSH1 0x40 MLOAD PUSH3 0x1975 CODESIZE SUB DUP1 PUSH3 0x1975 DUP4 CODECOPY DUP2 DUP2 ADD PUSH1 0x40 MSTORE DUP2 ADD SWAP1 PUSH3 0x37 SWAP2 SWAP1 PUSH3 0x225 JUMP JUMPDEST PUSH1 0x1 PUSH1 0x0 DUP2 SWAP1 SSTORE POP DUP8 PUSH1 0x1 PUSH1 0x0 PUSH2 0x100 EXP DUP2 SLOAD DUP2 PUSH20 0xFFFFFFFFFFFFFFFFFFFFFFFFFFFFFFFFFFFFFFFF MUL NOT AND SWAP1 DUP4 PUSH20 0xFFFFFFFFFFFFFFFFFFFFFFFFFFFFFFFFFFFFFFFF AND MUL OR SWAP1 SSTORE POP DUP7 PUSH1 0x2 PUSH1 0x0 PUSH2 0x100 EXP DUP2 SLOAD DUP2 PUSH20 0xFFFFFFFFFFFFFFFFFFFFFFFFFFFFFFFFFFFFFFFF MUL NOT AND SWAP1 DUP4 PUSH20 0xFFFFFFFFFFFFFFFFFFFFFFFFFFFFFFFFFFFFFFFF AND MUL OR SWAP1 SSTORE POP DUP6 PUSH1 0x7 DUP2 SWAP1 SSTORE POP DUP5 PUSH1 0x8 DUP2 SWAP1 SSTORE POP DUP4 PUSH1 0x9 DUP2 SWAP1 SSTORE POP DUP3 PUSH1 0xA DUP2 SWAP1 SSTORE POP DUP2 PUSH1 0xB DUP2 SWAP1 SSTORE POP PUSH1 0x1 PUSH1 0xC DUP2 SWAP1 SSTORE POP DUP1 PUSH1 0x3 PUSH1 0x0 PUSH2 0x100 EXP DUP2 SLOAD DUP2 PUSH20 0xFFFFFFFFFFFFFFFFFFFFFFFFFFFFFFFFFFFFFFFF MUL NOT AND SWAP1 DUP4 PUSH20 0xFFFFFFFFFFFFFFFFFFFFFFFFFFFFFFFFFFFFFFFF AND MUL OR SWAP1 SSTORE POP POP POP POP POP POP POP POP POP PUSH3 0x2EE JUMP JUMPDEST PUSH1 0x0 DUP1 REVERT JUMPDEST PUSH1 0x0 PUSH20 0xFFFFFFFFFFFFFFFFFFFFFFFFFFFFFFFFFFFFFFFF DUP3 AND SWAP1 POP SWAP2 SWAP1 POP JUMP JUMPDEST PUSH1 0x0 PUSH3 0x16D DUP3 PUSH3 0x140 JUMP JUMPDEST SWAP1 POP SWAP2 SWAP1 POP JUMP JUMPDEST PUSH3 0x17F DUP2 PUSH3 0x160 JUMP JUMPDEST DUP2 EQ PUSH3 0x18B JUMPI PUSH1 0x0 DUP1 REVERT JUMPDEST POP JUMP JUMPDEST PUSH1 0x0 DUP2 MLOAD SWAP1 POP PUSH3 0x19F DUP2 PUSH3 0x174 JUMP JUMPDEST SWAP3 SWAP2 POP POP JUMP JUMPDEST PUSH1 0x0 DUP2 SWAP1 POP SWAP2 SWAP1 POP JUMP JUMPDEST PUSH3 0x1BA DUP2 PUSH3 0x1A5 JUMP JUMPDEST DUP2 EQ PUSH3 0x1C6 JUMPI PUSH1 0x0 DUP1 REVERT JUMPDEST POP JUMP JUMPDEST PUSH1 0x0 DUP2 MLOAD SWAP1 POP PUSH3 0x1DA DUP2 PUSH3 0x1AF JUMP JUMPDEST SWAP3 SWAP2 POP POP JUMP JUMPDEST PUSH1 0x0 PUSH3 0x1ED DUP3 PUSH3 0x140 JUMP JUMPDEST SWAP1 POP SWAP2 SWAP1 POP JUMP JUMPDEST PUSH3 0x1FF DUP2 PUSH3 0x1E0 JUMP JUMPDEST DUP2 EQ PUSH3 0x20B JUMPI PUSH1 0x0 DUP1 REVERT JUMPDEST POP JUMP JUMPDEST PUSH1 0x0 DUP2 MLOAD SWAP1 POP PUSH3 0x21F DUP2 PUSH3 0x1F4 JUMP JUMPDEST SWAP3 SWAP2 POP POP JUMP JUMPDEST PUSH1 0x0 DUP1 PUSH1 0x0 DUP1 PUSH1 0x0 DUP1 PUSH1 0x0 DUP1 PUSH2 0x100 DUP10 DUP12 SUB SLT ISZERO PUSH3 0x249 JUMPI PUSH3 0x248 PUSH3 0x13B JUMP JUMPDEST JUMPDEST PUSH1 0x0 PUSH3 0x259 DUP12 DUP3 DUP13 ADD PUSH3 0x18E JUMP JUMPDEST SWAP9 POP POP PUSH1 0x20 PUSH3 0x26C DUP12 DUP3 DUP13 ADD PUSH3 0x18E JUMP JUMPDEST SWAP8 POP POP PUSH1 0x40 PUSH3 0x27F DUP12 DUP3 DUP13 ADD PUSH3 0x1C9 JUMP JUMPDEST SWAP7 POP POP PUSH1 0x60 PUSH3 0x292 DUP12 DUP3 DUP13 ADD PUSH3 0x1C9 JUMP JUMPDEST SWAP6 POP POP PUSH1 0x80 PUSH3 0x2A5 DUP12 DUP3 DUP13 ADD PUSH3 0x1C9 JUMP JUMPDEST SWAP5 POP POP PUSH1 0xA0 PUSH3 0x2B8 DUP12 DUP3 DUP13 ADD PUSH3 0x1C9 JUMP JUMPDEST SWAP4 POP POP PUSH1 0xC0 PUSH3 0x2CB DUP12 DUP3 DUP13 ADD PUSH3 0x1C9 JUMP JUMPDEST SWAP3 POP POP PUSH1 0xE0 PUSH3 0x2DE DUP12 DUP3 DUP13 ADD PUSH3 0x20E JUMP JUMPDEST SWAP2 POP POP SWAP3 SWAP6 SWAP9 POP SWAP3 SWAP6 SWAP9 SWAP1 SWAP4 SWAP7 POP JUMP JUMPDEST PUSH2 0x1677 DUP1 PUSH3 0x2FE PUSH1 0x0 CODECOPY PUSH1 0x0 RETURN INVALID PUSH1 0x80 PUSH1 0x40 MSTORE PUSH1 0x4 CALLDATASIZE LT PUSH2 0x118 JUMPI PUSH1 0x0 CALLDATALOAD PUSH1 0xE0 SHR DUP1 PUSH4 0x867A06B3 GT PUSH2 0xA0 JUMPI DUP1 PUSH4 0xC24A0F8B GT PUSH2 0x64 JUMPI DUP1 PUSH4 0xC24A0F8B EQ PUSH2 0x436 JUMPI DUP1 PUSH4 0xD0BF21FD EQ PUSH2 0x461 JUMPI DUP1 PUSH4 0xDB292621 EQ PUSH2 0x48C JUMPI DUP1 PUSH4 0xE6CDC708 EQ PUSH2 0x4B7 JUMPI DUP1 PUSH4 0xF340FA01 EQ PUSH2 0x4E2 JUMPI PUSH2 0x184 JUMP JUMPDEST DUP1 PUSH4 0x867A06B3 EQ PUSH2 0x35F JUMPI DUP1 PUSH4 0x8B7AFE2E EQ PUSH2 0x38A JUMPI DUP1 PUSH4 0x99DC2DF3 EQ PUSH2 0x3B5 JUMPI DUP1 PUSH4 0xA7245B6E EQ PUSH2 0x3E0 JUMPI DUP1 PUSH4 0xBA12A5C5 EQ PUSH2 0x40B JUMPI PUSH2 0x184 JUMP JUMPDEST DUP1 PUSH4 0x4680DD2F GT PUSH2 0xE7 JUMPI DUP1 PUSH4 0x4680DD2F EQ PUSH2 0x297 JUMPI DUP1 PUSH4 0x4CE9E6DE EQ PUSH2 0x2C2 JUMPI DUP1 PUSH4 0x51CFF8D9 EQ PUSH2 0x2ED JUMPI DUP1 PUSH4 0x69CF1E90 EQ PUSH2 0x309 JUMPI DUP1 PUSH4 0x6D5E7A15 EQ PUSH2 0x334 JUMPI PUSH2 0x184 JUMP JUMPDEST DUP1 PUSH4 0x220E5AB3 EQ PUSH2 0x1EB JUMPI DUP1 PUSH4 0x31658E32 EQ PUSH2 0x216 JUMPI DUP1 PUSH4 0x36359265 EQ PUSH2 0x241 JUMPI DUP1 PUSH4 0x4644803F EQ PUSH2 0x26C JUMPI PUSH2 0x184 JUMP JUMPDEST CALLDATASIZE PUSH2 0x184 JUMPI CALLER PUSH20 0xFFFFFFFFFFFFFFFFFFFFFFFFFFFFFFFFFFFFFFFF AND ADDRESS PUSH20 0xFFFFFFFFFFFFFFFFFFFFFFFFFFFFFFFFFFFFFFFF AND PUSH32 0x5548C837AB068CF56A2C2479DF0882A4922FD203EDB7517321831D95078C5F62 CALLVALUE PUSH1 0x40 MLOAD PUSH2 0x17A SWAP2 SWAP1 PUSH2 0x10E2 JUMP JUMPDEST PUSH1 0x40 MLOAD DUP1 SWAP2 SUB SWAP1 LOG3 STOP JUMPDEST CALLER PUSH20 0xFFFFFFFFFFFFFFFFFFFFFFFFFFFFFFFFFFFFFFFF AND ADDRESS PUSH20 0xFFFFFFFFFFFFFFFFFFFFFFFFFFFFFFFFFFFFFFFF AND PUSH32 0x5548C837AB068CF56A2C2479DF0882A4922FD203EDB7517321831D95078C5F62 CALLVALUE PUSH1 0x40 MLOAD PUSH2 0x1E1 SWAP2 SWAP1 PUSH2 0x10E2 JUMP JUMPDEST PUSH1 0x40 MLOAD DUP1 SWAP2 SUB SWAP1 LOG3 STOP JUMPDEST CALLVALUE DUP1 ISZERO PUSH2 0x1F7 JUMPI PUSH1 0x0 DUP1 REVERT JUMPDEST POP PUSH2 0x200 PUSH2 0x4FE JUMP JUMPDEST PUSH1 0x40 MLOAD PUSH2 0x20D SWAP2 SWAP1 PUSH2 0x10E2 JUMP JUMPDEST PUSH1 0x40 MLOAD DUP1 SWAP2 SUB SWAP1 RETURN JUMPDEST CALLVALUE DUP1 ISZERO PUSH2 0x222 JUMPI PUSH1 0x0 DUP1 REVERT JUMPDEST POP PUSH2 0x22B PUSH2 0x504 JUMP JUMPDEST PUSH1 0x40 MLOAD PUSH2 0x238 SWAP2 SWAP1 PUSH2 0x10E2 JUMP JUMPDEST PUSH1 0x40 MLOAD DUP1 SWAP2 SUB SWAP1 RETURN JUMPDEST CALLVALUE DUP1 ISZERO PUSH2 0x24D JUMPI PUSH1 0x0 DUP1 REVERT JUMPDEST POP PUSH2 0x256 PUSH2 0x50E JUMP JUMPDEST PUSH1 0x40 MLOAD PUSH2 0x263 SWAP2 SWAP1 PUSH2 0x10E2 JUMP JUMPDEST PUSH1 0x40 MLOAD DUP1 SWAP2 SUB SWAP1 RETURN JUMPDEST CALLVALUE DUP1 ISZERO PUSH2 0x278 JUMPI PUSH1 0x0 DUP1 REVERT JUMPDEST POP PUSH2 0x281 PUSH2 0x518 JUMP JUMPDEST PUSH1 0x40 MLOAD PUSH2 0x28E SWAP2 SWAP1 PUSH2 0x10E2 JUMP JUMPDEST PUSH1 0x40 MLOAD DUP1 SWAP2 SUB SWAP1 RETURN JUMPDEST CALLVALUE DUP1 ISZERO PUSH2 0x2A3 JUMPI PUSH1 0x0 DUP1 REVERT JUMPDEST POP PUSH2 0x2AC PUSH2 0x522 JUMP JUMPDEST PUSH1 0x40 MLOAD PUSH2 0x2B9 SWAP2 SWAP1 PUSH2 0x10E2 JUMP JUMPDEST PUSH1 0x40 MLOAD DUP1 SWAP2 SUB SWAP1 RETURN JUMPDEST CALLVALUE DUP1 ISZERO PUSH2 0x2CE JUMPI PUSH1 0x0 DUP1 REVERT JUMPDEST POP PUSH2 0x2D7 PUSH2 0x52C JUMP JUMPDEST PUSH1 0x40 MLOAD PUSH2 0x2E4 SWAP2 SWAP1 PUSH2 0x113E JUMP JUMPDEST PUSH1 0x40 MLOAD DUP1 SWAP2 SUB SWAP1 RETURN JUMPDEST PUSH2 0x307 PUSH1 0x4 DUP1 CALLDATASIZE SUB DUP2 ADD SWAP1 PUSH2 0x302 SWAP2 SWAP1 PUSH2 0x118A JUMP JUMPDEST PUSH2 0x556 JUMP JUMPDEST STOP JUMPDEST CALLVALUE DUP1 ISZERO PUSH2 0x315 JUMPI PUSH1 0x0 DUP1 REVERT JUMPDEST POP PUSH2 0x31E PUSH2 0xDDD JUMP JUMPDEST PUSH1 0x40 MLOAD PUSH2 0x32B SWAP2 SWAP1 PUSH2 0x10E2 JUMP JUMPDEST PUSH1 0x40 MLOAD DUP1 SWAP2 SUB SWAP1 RETURN JUMPDEST CALLVALUE DUP1 ISZERO PUSH2 0x340 JUMPI PUSH1 0x0 DUP1 REVERT JUMPDEST POP PUSH2 0x349 PUSH2 0xDE7 JUMP JUMPDEST PUSH1 0x40 MLOAD PUSH2 0x356 SWAP2 SWAP1 PUSH2 0x10E2 JUMP JUMPDEST PUSH1 0x40 MLOAD DUP1 SWAP2 SUB SWAP1 RETURN JUMPDEST CALLVALUE DUP1 ISZERO PUSH2 0x36B JUMPI PUSH1 0x0 DUP1 REVERT JUMPDEST POP PUSH2 0x374 PUSH2 0xDED JUMP JUMPDEST PUSH1 0x40 MLOAD PUSH2 0x381 SWAP2 SWAP1 PUSH2 0x10E2 JUMP JUMPDEST PUSH1 0x40 MLOAD DUP1 SWAP2 SUB SWAP1 RETURN JUMPDEST CALLVALUE DUP1 ISZERO PUSH2 0x396 JUMPI PUSH1 0x0 DUP1 REVERT JUMPDEST POP PUSH2 0x39F PUSH2 0xDF3 JUMP JUMPDEST PUSH1 0x40 MLOAD PUSH2 0x3AC SWAP2 SWAP1 PUSH2 0x10E2 JUMP JUMPDEST PUSH1 0x40 MLOAD DUP1 SWAP2 SUB SWAP1 RETURN JUMPDEST CALLVALUE DUP1 ISZERO PUSH2 0x3C1 JUMPI PUSH1 0x0 DUP1 REVERT JUMPDEST POP PUSH2 0x3CA PUSH2 0xDF9 JUMP JUMPDEST PUSH1 0x40 MLOAD PUSH2 0x3D7 SWAP2 SWAP1 PUSH2 0x10E2 JUMP JUMPDEST PUSH1 0x40 MLOAD DUP1 SWAP2 SUB SWAP1 RETURN JUMPDEST CALLVALUE DUP1 ISZERO PUSH2 0x3EC JUMPI PUSH1 0x0 DUP1 REVERT JUMPDEST POP PUSH2 0x3F5 PUSH2 0xDFF JUMP JUMPDEST PUSH1 0x40 MLOAD PUSH2 0x402 SWAP2 SWAP1 PUSH2 0x10E2 JUMP JUMPDEST PUSH1 0x40 MLOAD DUP1 SWAP2 SUB SWAP1 RETURN JUMPDEST CALLVALUE DUP1 ISZERO PUSH2 0x417 JUMPI PUSH1 0x0 DUP1 REVERT JUMPDEST POP PUSH2 0x420 PUSH2 0xE05 JUMP JUMPDEST PUSH1 0x40 MLOAD PUSH2 0x42D SWAP2 SWAP1 PUSH2 0x113E JUMP JUMPDEST PUSH1 0x40 MLOAD DUP1 SWAP2 SUB SWAP1 RETURN JUMPDEST CALLVALUE DUP1 ISZERO PUSH2 0x442 JUMPI PUSH1 0x0 DUP1 REVERT JUMPDEST POP PUSH2 0x44B PUSH2 0xE2F JUMP JUMPDEST PUSH1 0x40 MLOAD PUSH2 0x458 SWAP2 SWAP1 PUSH2 0x10E2 JUMP JUMPDEST PUSH1 0x40 MLOAD DUP1 SWAP2 SUB SWAP1 RETURN JUMPDEST CALLVALUE DUP1 ISZERO PUSH2 0x46D JUMPI PUSH1 0x0 DUP1 REVERT JUMPDEST POP PUSH2 0x476 PUSH2 0xE35 JUMP JUMPDEST PUSH1 0x40 MLOAD PUSH2 0x483 SWAP2 SWAP1 PUSH2 0x10E2 JUMP JUMPDEST PUSH1 0x40 MLOAD DUP1 SWAP2 SUB SWAP1 RETURN JUMPDEST CALLVALUE DUP1 ISZERO PUSH2 0x498 JUMPI PUSH1 0x0 DUP1 REVERT JUMPDEST POP PUSH2 0x4A1 PUSH2 0xE3F JUMP JUMPDEST PUSH1 0x40 MLOAD PUSH2 0x4AE SWAP2 SWAP1 PUSH2 0x10E2 JUMP JUMPDEST PUSH1 0x40 MLOAD DUP1 SWAP2 SUB SWAP1 RETURN JUMPDEST CALLVALUE DUP1 ISZERO PUSH2 0x4C3 JUMPI PUSH1 0x0 DUP1 REVERT JUMPDEST POP PUSH2 0x4CC PUSH2 0xE49 JUMP JUMPDEST PUSH1 0x40 MLOAD PUSH2 0x4D9 SWAP2 SWAP1 PUSH2 0x10E2 JUMP JUMPDEST PUSH1 0x40 MLOAD DUP1 SWAP2 SUB SWAP1 RETURN JUMPDEST PUSH2 0x4FC PUSH1 0x4 DUP1 CALLDATASIZE SUB DUP2 ADD SWAP1 PUSH2 0x4F7 SWAP2 SWAP1 PUSH2 0x118A JUMP JUMPDEST PUSH2 0xE4F JUMP JUMPDEST STOP JUMPDEST PUSH1 0x7 SLOAD DUP2 JUMP JUMPDEST PUSH1 0x0 PUSH1 0xB SLOAD SWAP1 POP SWAP1 JUMP JUMPDEST PUSH1 0x0 PUSH1 0xA SLOAD SWAP1 POP SWAP1 JUMP JUMPDEST PUSH1 0x0 PUSH1 0x5 SLOAD SWAP1 POP SWAP1 JUMP JUMPDEST PUSH1 0x0 PUSH1 0x6 SLOAD SWAP1 POP SWAP1 JUMP JUMPDEST PUSH1 0x0 PUSH1 0x2 PUSH1 0x0 SWAP1 SLOAD SWAP1 PUSH2 0x100 EXP SWAP1 DIV PUSH20 0xFFFFFFFFFFFFFFFFFFFFFFFFFFFFFFFFFFFFFFFF AND SWAP1 POP SWAP1 JUMP JUMPDEST PUSH2 0x55E PUSH2 0x102E JUMP JUMPDEST PUSH1 0x0 SELFBALANCE SUB PUSH2 0x5A1 JUMPI PUSH1 0x40 MLOAD PUSH32 0x8C379A000000000000000000000000000000000000000000000000000000000 DUP2 MSTORE PUSH1 0x4 ADD PUSH2 0x598 SWAP1 PUSH2 0x1214 JUMP JUMPDEST PUSH1 0x40 MLOAD DUP1 SWAP2 SUB SWAP1 REVERT JUMPDEST PUSH1 0xA SLOAD TIMESTAMP LT PUSH2 0x5E5 JUMPI PUSH1 0x40 MLOAD PUSH32 0x8C379A000000000000000000000000000000000000000000000000000000000 DUP2 MSTORE PUSH1 0x4 ADD PUSH2 0x5DC SWAP1 PUSH2 0x1280 JUMP JUMPDEST PUSH1 0x40 MLOAD DUP1 SWAP2 SUB SWAP1 REVERT JUMPDEST PUSH2 0x60D PUSH1 0x64 PUSH2 0x5FF PUSH1 0xC SLOAD SELFBALANCE PUSH2 0x107D SWAP1 SWAP2 SWAP1 PUSH4 0xFFFFFFFF AND JUMP JUMPDEST PUSH2 0x1093 SWAP1 SWAP2 SWAP1 PUSH4 0xFFFFFFFF AND JUMP JUMPDEST PUSH1 0xD DUP2 SWAP1 SSTORE POP PUSH1 0x8 SLOAD PUSH1 0x5 SLOAD GT DUP1 ISZERO PUSH2 0x627 JUMPI POP PUSH1 0xA SLOAD TIMESTAMP GT JUMPDEST DUP1 ISZERO PUSH2 0x64F JUMPI POP PUSH3 0x15180 PUSH1 0xB SLOAD PUSH2 0x63F SWAP2 SWAP1 PUSH2 0x12CF JUMP JUMPDEST PUSH1 0xA SLOAD PUSH2 0x64C SWAP2 SWAP1 PUSH2 0x1311 JUMP JUMPDEST TIMESTAMP LT JUMPDEST ISZERO PUSH2 0x7D1 JUMPI DUP1 PUSH20 0xFFFFFFFFFFFFFFFFFFFFFFFFFFFFFFFFFFFFFFFF AND PUSH1 0x1 PUSH1 0x0 SWAP1 SLOAD SWAP1 PUSH2 0x100 EXP SWAP1 DIV PUSH20 0xFFFFFFFFFFFFFFFFFFFFFFFFFFFFFFFFFFFFFFFF AND PUSH20 0xFFFFFFFFFFFFFFFFFFFFFFFFFFFFFFFFFFFFFFFF AND EQ PUSH2 0x6E4 JUMPI PUSH1 0x40 MLOAD PUSH32 0x8C379A000000000000000000000000000000000000000000000000000000000 DUP2 MSTORE PUSH1 0x4 ADD PUSH2 0x6DB SWAP1 PUSH2 0x1391 JUMP JUMPDEST PUSH1 0x40 MLOAD DUP1 SWAP2 SUB SWAP1 REVERT JUMPDEST PUSH1 0x1 PUSH1 0x0 SWAP1 SLOAD SWAP1 PUSH2 0x100 EXP SWAP1 DIV PUSH20 0xFFFFFFFFFFFFFFFFFFFFFFFFFFFFFFFFFFFFFFFF AND PUSH20 0xFFFFFFFFFFFFFFFFFFFFFFFFFFFFFFFFFFFFFFFF AND PUSH2 0x8FC PUSH2 0x735 PUSH1 0xD SLOAD SELFBALANCE PUSH2 0x10A9 SWAP1 SWAP2 SWAP1 PUSH4 0xFFFFFFFF AND JUMP JUMPDEST SWAP1 DUP2 ISZERO MUL SWAP1 PUSH1 0x40 MLOAD PUSH1 0x0 PUSH1 0x40 MLOAD DUP1 DUP4 SUB DUP2 DUP6 DUP9 DUP9 CALL SWAP4 POP POP POP POP ISZERO DUP1 ISZERO PUSH2 0x760 JUMPI RETURNDATASIZE PUSH1 0x0 DUP1 RETURNDATACOPY RETURNDATASIZE PUSH1 0x0 REVERT JUMPDEST POP PUSH1 0x3 PUSH1 0x0 SWAP1 SLOAD SWAP1 PUSH2 0x100 EXP SWAP1 DIV PUSH20 0xFFFFFFFFFFFFFFFFFFFFFFFFFFFFFFFFFFFFFFFF AND PUSH20 0xFFFFFFFFFFFFFFFFFFFFFFFFFFFFFFFFFFFFFFFF AND PUSH2 0x8FC PUSH1 0xD SLOAD SWAP1 DUP2 ISZERO MUL SWAP1 PUSH1 0x40 MLOAD PUSH1 0x0 PUSH1 0x40 MLOAD DUP1 DUP4 SUB DUP2 DUP6 DUP9 DUP9 CALL SWAP4 POP POP POP POP ISZERO DUP1 ISZERO PUSH2 0x7CB JUMPI RETURNDATASIZE PUSH1 0x0 DUP1 RETURNDATACOPY RETURNDATASIZE PUSH1 0x0 REVERT JUMPDEST POP PUSH2 0xDD2 JUMP JUMPDEST PUSH1 0x7 SLOAD PUSH1 0x6 SLOAD GT DUP1 ISZERO PUSH2 0x800 JUMPI POP PUSH3 0x15180 PUSH1 0xB SLOAD PUSH2 0x7F0 SWAP2 SWAP1 PUSH2 0x12CF JUMP JUMPDEST PUSH1 0xA SLOAD PUSH2 0x7FD SWAP2 SWAP1 PUSH2 0x1311 JUMP JUMPDEST TIMESTAMP GT JUMPDEST ISZERO PUSH2 0x982 JUMPI DUP1 PUSH20 0xFFFFFFFFFFFFFFFFFFFFFFFFFFFFFFFFFFFFFFFF AND PUSH1 0x2 PUSH1 0x0 SWAP1 SLOAD SWAP1 PUSH2 0x100 EXP SWAP1 DIV PUSH20 0xFFFFFFFFFFFFFFFFFFFFFFFFFFFFFFFFFFFFFFFF AND PUSH20 0xFFFFFFFFFFFFFFFFFFFFFFFFFFFFFFFFFFFFFFFF AND EQ PUSH2 0x895 JUMPI PUSH1 0x40 MLOAD PUSH32 0x8C379A000000000000000000000000000000000000000000000000000000000 DUP2 MSTORE PUSH1 0x4 ADD PUSH2 0x88C SWAP1 PUSH2 0x13FD JUMP JUMPDEST PUSH1 0x40 MLOAD DUP1 SWAP2 SUB SWAP1 REVERT JUMPDEST PUSH1 0x2 PUSH1 0x0 SWAP1 SLOAD SWAP1 PUSH2 0x100 EXP SWAP1 DIV PUSH20 0xFFFFFFFFFFFFFFFFFFFFFFFFFFFFFFFFFFFFFFFF AND PUSH20 0xFFFFFFFFFFFFFFFFFFFFFFFFFFFFFFFFFFFFFFFF AND PUSH2 0x8FC PUSH2 0x8E6 PUSH1 0xD SLOAD SELFBALANCE PUSH2 0x10A9 SWAP1 SWAP2 SWAP1 PUSH4 0xFFFFFFFF AND JUMP JUMPDEST SWAP1 DUP2 ISZERO MUL SWAP1 PUSH1 0x40 MLOAD PUSH1 0x0 PUSH1 0x40 MLOAD DUP1 DUP4 SUB DUP2 DUP6 DUP9 DUP9 CALL SWAP4 POP POP POP POP ISZERO DUP1 ISZERO PUSH2 0x911 JUMPI RETURNDATASIZE PUSH1 0x0 DUP1 RETURNDATACOPY RETURNDATASIZE PUSH1 0x0 REVERT JUMPDEST POP PUSH1 0x3 PUSH1 0x0 SWAP1 SLOAD SWAP1 PUSH2 0x100 EXP SWAP1 DIV PUSH20 0xFFFFFFFFFFFFFFFFFFFFFFFFFFFFFFFFFFFFFFFF AND PUSH20 0xFFFFFFFFFFFFFFFFFFFFFFFFFFFFFFFFFFFFFFFF AND PUSH2 0x8FC PUSH1 0xD SLOAD SWAP1 DUP2 ISZERO MUL SWAP1 PUSH1 0x40 MLOAD PUSH1 0x0 PUSH1 0x40 MLOAD DUP1 DUP4 SUB DUP2 DUP6 DUP9 DUP9 CALL SWAP4 POP POP POP POP ISZERO DUP1 ISZERO PUSH2 0x97C JUMPI RETURNDATASIZE PUSH1 0x0 DUP1 RETURNDATACOPY RETURNDATASIZE PUSH1 0x0 REVERT JUMPDEST POP PUSH2 0xDD1 JUMP JUMPDEST PUSH1 0x0 SELFBALANCE EQ ISZERO DUP1 ISZERO PUSH2 0x996 JUMPI POP PUSH1 0x8 SLOAD PUSH1 0x5 SLOAD LT JUMPDEST DUP1 ISZERO PUSH2 0x9A5 JUMPI POP PUSH1 0x9 SLOAD PUSH1 0x6 SLOAD LT JUMPDEST DUP1 ISZERO PUSH2 0x9CD JUMPI POP PUSH3 0x15180 PUSH1 0xB SLOAD PUSH2 0x9BD SWAP2 SWAP1 PUSH2 0x12CF JUMP JUMPDEST PUSH1 0xA SLOAD PUSH2 0x9CA SWAP2 SWAP1 PUSH2 0x1311 JUMP JUMPDEST TIMESTAMP GT JUMPDEST ISZERO PUSH2 0xDD0 JUMPI PUSH1 0x2 PUSH1 0x0 SWAP1 SLOAD SWAP1 PUSH2 0x100 EXP SWAP1 DIV PUSH20 0xFFFFFFFFFFFFFFFFFFFFFFFFFFFFFFFFFFFFFFFF AND PUSH20 0xFFFFFFFFFFFFFFFFFFFFFFFFFFFFFFFFFFFFFFFF AND DUP2 PUSH20 0xFFFFFFFFFFFFFFFFFFFFFFFFFFFFFFFFFFFFFFFF AND EQ DUP1 PUSH2 0xA7B JUMPI POP PUSH1 0x1 PUSH1 0x0 SWAP1 SLOAD SWAP1 PUSH2 0x100 EXP SWAP1 DIV PUSH20 0xFFFFFFFFFFFFFFFFFFFFFFFFFFFFFFFFFFFFFFFF AND PUSH20 0xFFFFFFFFFFFFFFFFFFFFFFFFFFFFFFFFFFFFFFFF AND DUP2 PUSH20 0xFFFFFFFFFFFFFFFFFFFFFFFFFFFFFFFFFFFFFFFF AND EQ JUMPDEST PUSH2 0xABA JUMPI PUSH1 0x40 MLOAD PUSH32 0x8C379A000000000000000000000000000000000000000000000000000000000 DUP2 MSTORE PUSH1 0x4 ADD PUSH2 0xAB1 SWAP1 PUSH2 0x148F JUMP JUMPDEST PUSH1 0x40 MLOAD DUP1 SWAP2 SUB SWAP1 REVERT JUMPDEST PUSH1 0x2 PUSH1 0x0 SWAP1 SLOAD SWAP1 PUSH2 0x100 EXP SWAP1 DIV PUSH20 0xFFFFFFFFFFFFFFFFFFFFFFFFFFFFFFFFFFFFFFFF AND PUSH20 0xFFFFFFFFFFFFFFFFFFFFFFFFFFFFFFFFFFFFFFFF AND DUP2 PUSH20 0xFFFFFFFFFFFFFFFFFFFFFFFFFFFFFFFFFFFFFFFF AND EQ DUP1 ISZERO PUSH2 0xB1A JUMPI POP PUSH1 0x0 PUSH1 0x6 SLOAD EQ ISZERO JUMPDEST ISZERO PUSH2 0xC46 JUMPI PUSH2 0xB49 PUSH1 0x64 PUSH2 0xB3B PUSH1 0xC SLOAD PUSH1 0x6 SLOAD PUSH2 0x107D SWAP1 SWAP2 SWAP1 PUSH4 0xFFFFFFFF AND JUMP JUMPDEST PUSH2 0x1093 SWAP1 SWAP2 SWAP1 PUSH4 0xFFFFFFFF AND JUMP JUMPDEST PUSH1 0xD DUP2 SWAP1 SSTORE POP PUSH1 0x2 PUSH1 0x0 SWAP1 SLOAD SWAP1 PUSH2 0x100 EXP SWAP1 DIV PUSH20 0xFFFFFFFFFFFFFFFFFFFFFFFFFFFFFFFFFFFFFFFF AND PUSH20 0xFFFFFFFFFFFFFFFFFFFFFFFFFFFFFFFFFFFFFFFF AND PUSH2 0x8FC PUSH2 0xBA2 PUSH1 0xD SLOAD PUSH1 0x6 SLOAD PUSH2 0x10A9 SWAP1 SWAP2 SWAP1 PUSH4 0xFFFFFFFF AND JUMP JUMPDEST SWAP1 DUP2 ISZERO MUL SWAP1 PUSH1 0x40 MLOAD PUSH1 0x0 PUSH1 0x40 MLOAD DUP1 DUP4 SUB DUP2 DUP6 DUP9 DUP9 CALL SWAP4 POP POP POP POP ISZERO DUP1 ISZERO PUSH2 0xBCD JUMPI RETURNDATASIZE PUSH1 0x0 DUP1 RETURNDATACOPY RETURNDATASIZE PUSH1 0x0 REVERT JUMPDEST POP PUSH1 0x3 PUSH1 0x0 SWAP1 SLOAD SWAP1 PUSH2 0x100 EXP SWAP1 DIV PUSH20 0xFFFFFFFFFFFFFFFFFFFFFFFFFFFFFFFFFFFFFFFF AND PUSH20 0xFFFFFFFFFFFFFFFFFFFFFFFFFFFFFFFFFFFFFFFF AND PUSH2 0x8FC PUSH1 0xD SLOAD SWAP1 DUP2 ISZERO MUL SWAP1 PUSH1 0x40 MLOAD PUSH1 0x0 PUSH1 0x40 MLOAD DUP1 DUP4 SUB DUP2 DUP6 DUP9 DUP9 CALL SWAP4 POP POP POP POP ISZERO DUP1 ISZERO PUSH2 0xC38 JUMPI RETURNDATASIZE PUSH1 0x0 DUP1 RETURNDATACOPY RETURNDATASIZE PUSH1 0x0 REVERT JUMPDEST POP PUSH1 0x0 PUSH1 0x6 DUP2 SWAP1 SSTORE POP PUSH2 0xDCF JUMP JUMPDEST PUSH1 0x1 PUSH1 0x0 SWAP1 SLOAD SWAP1 PUSH2 0x100 EXP SWAP1 DIV PUSH20 0xFFFFFFFFFFFFFFFFFFFFFFFFFFFFFFFFFFFFFFFF AND PUSH20 0xFFFFFFFFFFFFFFFFFFFFFFFFFFFFFFFFFFFFFFFF AND DUP2 PUSH20 0xFFFFFFFFFFFFFFFFFFFFFFFFFFFFFFFFFFFFFFFF AND EQ DUP1 ISZERO PUSH2 0xCA6 JUMPI POP PUSH1 0x0 PUSH1 0x5 SLOAD EQ ISZERO JUMPDEST ISZERO PUSH2 0xDCE JUMPI PUSH2 0xCD5 PUSH1 0x64 PUSH2 0xCC7 PUSH1 0xC SLOAD PUSH1 0x5 SLOAD PUSH2 0x107D SWAP1 SWAP2 SWAP1 PUSH4 0xFFFFFFFF AND JUMP JUMPDEST PUSH2 0x1093 SWAP1 SWAP2 SWAP1 PUSH4 0xFFFFFFFF AND JUMP JUMPDEST PUSH1 0xD DUP2 SWAP1 SSTORE POP PUSH1 0x1 PUSH1 0x0 SWAP1 SLOAD SWAP1 PUSH2 0x100 EXP SWAP1 DIV PUSH20 0xFFFFFFFFFFFFFFFFFFFFFFFFFFFFFFFFFFFFFFFF AND PUSH20 0xFFFFFFFFFFFFFFFFFFFFFFFFFFFFFFFFFFFFFFFF AND PUSH2 0x8FC PUSH2 0xD2E PUSH1 0xD SLOAD PUSH1 0x5 SLOAD PUSH2 0x10A9 SWAP1 SWAP2 SWAP1 PUSH4 0xFFFFFFFF AND JUMP JUMPDEST SWAP1 DUP2 ISZERO MUL SWAP1 PUSH1 0x40 MLOAD PUSH1 0x0 PUSH1 0x40 MLOAD DUP1 DUP4 SUB DUP2 DUP6 DUP9 DUP9 CALL SWAP4 POP POP POP POP ISZERO DUP1 ISZERO PUSH2 0xD59 JUMPI RETURNDATASIZE PUSH1 0x0 DUP1 RETURNDATACOPY RETURNDATASIZE PUSH1 0x0 REVERT JUMPDEST POP PUSH1 0x3 PUSH1 0x0 SWAP1 SLOAD SWAP1 PUSH2 0x100 EXP SWAP1 DIV PUSH20 0xFFFFFFFFFFFFFFFFFFFFFFFFFFFFFFFFFFFFFFFF AND PUSH20 0xFFFFFFFFFFFFFFFFFFFFFFFFFFFFFFFFFFFFFFFF AND PUSH2 0x8FC PUSH1 0xD SLOAD SWAP1 DUP2 ISZERO MUL SWAP1 PUSH1 0x40 MLOAD PUSH1 0x0 PUSH1 0x40 MLOAD DUP1 DUP4 SUB DUP2 DUP6 DUP9 DUP9 CALL SWAP4 POP POP POP POP ISZERO DUP1 ISZERO PUSH2 0xDC4 JUMPI RETURNDATASIZE PUSH1 0x0 DUP1 RETURNDATACOPY RETURNDATASIZE PUSH1 0x0 REVERT JUMPDEST POP PUSH1 0x0 PUSH1 0x5 DUP2 SWAP1 SSTORE POP JUMPDEST JUMPDEST JUMPDEST JUMPDEST JUMPDEST PUSH2 0xDDA PUSH2 0x10BF JUMP JUMPDEST POP JUMP JUMPDEST PUSH1 0x0 PUSH1 0x9 SLOAD SWAP1 POP SWAP1 JUMP JUMPDEST PUSH1 0xB SLOAD DUP2 JUMP JUMPDEST PUSH1 0x5 SLOAD DUP2 JUMP JUMPDEST PUSH1 0x4 SLOAD DUP2 JUMP JUMPDEST PUSH1 0x9 SLOAD DUP2 JUMP JUMPDEST PUSH1 0x8 SLOAD DUP2 JUMP JUMPDEST PUSH1 0x0 PUSH1 0x1 PUSH1 0x0 SWAP1 SLOAD SWAP1 PUSH2 0x100 EXP SWAP1 DIV PUSH20 0xFFFFFFFFFFFFFFFFFFFFFFFFFFFFFFFFFFFFFFFF AND SWAP1 POP SWAP1 JUMP JUMPDEST PUSH1 0xA SLOAD DUP2 JUMP JUMPDEST PUSH1 0x0 PUSH1 0x8 SLOAD SWAP1 POP SWAP1 JUMP JUMPDEST PUSH1 0x0 PUSH1 0x7 SLOAD SWAP1 POP SWAP1 JUMP JUMPDEST PUSH1 0x6 SLOAD DUP2 JUMP JUMPDEST PUSH1 0x1 PUSH1 0x0 SWAP1 SLOAD SWAP1 PUSH2 0x100 EXP SWAP1 DIV PUSH20 0xFFFFFFFFFFFFFFFFFFFFFFFFFFFFFFFFFFFFFFFF AND PUSH20 0xFFFFFFFFFFFFFFFFFFFFFFFFFFFFFFFFFFFFFFFF AND DUP2 PUSH20 0xFFFFFFFFFFFFFFFFFFFFFFFFFFFFFFFFFFFFFFFF AND EQ DUP1 PUSH2 0xEF8 JUMPI POP PUSH1 0x2 PUSH1 0x0 SWAP1 SLOAD SWAP1 PUSH2 0x100 EXP SWAP1 DIV PUSH20 0xFFFFFFFFFFFFFFFFFFFFFFFFFFFFFFFFFFFFFFFF AND PUSH20 0xFFFFFFFFFFFFFFFFFFFFFFFFFFFFFFFFFFFFFFFF AND DUP2 PUSH20 0xFFFFFFFFFFFFFFFFFFFFFFFFFFFFFFFFFFFFFFFF AND EQ JUMPDEST PUSH2 0xF37 JUMPI PUSH1 0x40 MLOAD PUSH32 0x8C379A000000000000000000000000000000000000000000000000000000000 DUP2 MSTORE PUSH1 0x4 ADD PUSH2 0xF2E SWAP1 PUSH2 0x1521 JUMP JUMPDEST PUSH1 0x40 MLOAD DUP1 SWAP2 SUB SWAP1 REVERT JUMPDEST PUSH1 0x1 PUSH1 0x0 SWAP1 SLOAD SWAP1 PUSH2 0x100 EXP SWAP1 DIV PUSH20 0xFFFFFFFFFFFFFFFFFFFFFFFFFFFFFFFFFFFFFFFF AND PUSH20 0xFFFFFFFFFFFFFFFFFFFFFFFFFFFFFFFFFFFFFFFF AND DUP2 PUSH20 0xFFFFFFFFFFFFFFFFFFFFFFFFFFFFFFFFFFFFFFFF AND SUB PUSH2 0xFAA JUMPI CALLVALUE PUSH1 0x5 PUSH1 0x0 DUP3 DUP3 SLOAD PUSH2 0xF9E SWAP2 SWAP1 PUSH2 0x1311 JUMP JUMPDEST SWAP3 POP POP DUP2 SWAP1 SSTORE POP PUSH2 0xFC4 JUMP JUMPDEST CALLVALUE PUSH1 0x6 PUSH1 0x0 DUP3 DUP3 SLOAD PUSH2 0xFBC SWAP2 SWAP1 PUSH2 0x1311 JUMP JUMPDEST SWAP3 POP POP DUP2 SWAP1 SSTORE POP JUMPDEST CALLVALUE PUSH1 0x4 PUSH1 0x0 DUP3 DUP3 SLOAD PUSH2 0xFD6 SWAP2 SWAP1 PUSH2 0x1311 JUMP JUMPDEST SWAP3 POP POP DUP2 SWAP1 SSTORE POP DUP1 PUSH20 0xFFFFFFFFFFFFFFFFFFFFFFFFFFFFFFFFFFFFFFFF AND PUSH32 0x543BA50A5EEC5E6178218E364B1D0F396157B3C8FA278522C2CB7FD99407D474 CALLVALUE PUSH1 0x40 MLOAD PUSH2 0x1023 SWAP2 SWAP1 PUSH2 0x10E2 JUMP JUMPDEST PUSH1 0x40 MLOAD DUP1 SWAP2 SUB SWAP1 LOG2 POP JUMP JUMPDEST PUSH1 0x2 PUSH1 0x0 SLOAD SUB PUSH2 0x1073 JUMPI PUSH1 0x40 MLOAD PUSH32 0x8C379A000000000000000000000000000000000000000000000000000000000 DUP2 MSTORE PUSH1 0x4 ADD PUSH2 0x106A SWAP1 PUSH2 0x158D JUMP JUMPDEST PUSH1 0x40 MLOAD DUP1 SWAP2 SUB SWAP1 REVERT JUMPDEST PUSH1 0x2 PUSH1 0x0 DUP2 SWAP1 SSTORE POP JUMP JUMPDEST PUSH1 0x0 DUP2 DUP4 PUSH2 0x108B SWAP2 SWAP1 PUSH2 0x12CF JUMP JUMPDEST SWAP1 POP SWAP3 SWAP2 POP POP JUMP JUMPDEST PUSH1 0x0 DUP2 DUP4 PUSH2 0x10A1 SWAP2 SWAP1 PUSH2 0x15DC JUMP JUMPDEST SWAP1 POP SWAP3 SWAP2 POP POP JUMP JUMPDEST PUSH1 0x0 DUP2 DUP4 PUSH2 0x10B7 SWAP2 SWAP1 PUSH2 0x160D JUMP JUMPDEST SWAP1 POP SWAP3 SWAP2 POP POP JUMP JUMPDEST PUSH1 0x1 PUSH1 0x0 DUP2 SWAP1 SSTORE POP JUMP JUMPDEST PUSH1 0x0 DUP2 SWAP1 POP SWAP2 SWAP1 POP JUMP JUMPDEST PUSH2 0x10DC DUP2 PUSH2 0x10C9 JUMP JUMPDEST DUP3 MSTORE POP POP JUMP JUMPDEST PUSH1 0x0 PUSH1 0x20 DUP3 ADD SWAP1 POP PUSH2 0x10F7 PUSH1 0x0 DUP4 ADD DUP5 PUSH2 0x10D3 JUMP JUMPDEST SWAP3 SWAP2 POP POP JUMP JUMPDEST PUSH1 0x0 PUSH20 0xFFFFFFFFFFFFFFFFFFFFFFFFFFFFFFFFFFFFFFFF DUP3 AND SWAP1 POP SWAP2 SWAP1 POP JUMP JUMPDEST PUSH1 0x0 PUSH2 0x1128 DUP3 PUSH2 0x10FD JUMP JUMPDEST SWAP1 POP SWAP2 SWAP1 POP JUMP JUMPDEST PUSH2 0x1138 DUP2 PUSH2 0x111D JUMP JUMPDEST DUP3 MSTORE POP POP JUMP JUMPDEST PUSH1 0x0 PUSH1 0x20 DUP3 ADD SWAP1 POP PUSH2 0x1153 PUSH1 0x0 DUP4 ADD DUP5 PUSH2 0x112F JUMP JUMPDEST SWAP3 SWAP2 POP POP JUMP JUMPDEST PUSH1 0x0 DUP1 REVERT JUMPDEST PUSH2 0x1167 DUP2 PUSH2 0x111D JUMP JUMPDEST DUP2 EQ PUSH2 0x1172 JUMPI PUSH1 0x0 DUP1 REVERT JUMPDEST POP JUMP JUMPDEST PUSH1 0x0 DUP2 CALLDATALOAD SWAP1 POP PUSH2 0x1184 DUP2 PUSH2 0x115E JUMP JUMPDEST SWAP3 SWAP2 POP POP JUMP JUMPDEST PUSH1 0x0 PUSH1 0x20 DUP3 DUP5 SUB SLT ISZERO PUSH2 0x11A0 JUMPI PUSH2 0x119F PUSH2 0x1159 JUMP JUMPDEST JUMPDEST PUSH1 0x0 PUSH2 0x11AE DUP5 DUP3 DUP6 ADD PUSH2 0x1175 JUMP JUMPDEST SWAP2 POP POP SWAP3 SWAP2 POP POP JUMP JUMPDEST PUSH1 0x0 DUP3 DUP3 MSTORE PUSH1 0x20 DUP3 ADD SWAP1 POP SWAP3 SWAP2 POP POP JUMP JUMPDEST PUSH32 0x436F6E747261637420646F6E277420686176652066756E647300000000000000 PUSH1 0x0 DUP3 ADD MSTORE POP JUMP JUMPDEST PUSH1 0x0 PUSH2 0x11FE PUSH1 0x19 DUP4 PUSH2 0x11B7 JUMP JUMPDEST SWAP2 POP PUSH2 0x1209 DUP3 PUSH2 0x11C8 JUMP JUMPDEST PUSH1 0x20 DUP3 ADD SWAP1 POP SWAP2 SWAP1 POP JUMP JUMPDEST PUSH1 0x0 PUSH1 0x20 DUP3 ADD SWAP1 POP DUP2 DUP2 SUB PUSH1 0x0 DUP4 ADD MSTORE PUSH2 0x122D DUP2 PUSH2 0x11F1 JUMP JUMPDEST SWAP1 POP SWAP2 SWAP1 POP JUMP JUMPDEST PUSH32 0x54696D65206973206E6F74206F76657220796574000000000000000000000000 PUSH1 0x0 DUP3 ADD MSTORE POP JUMP JUMPDEST PUSH1 0x0 PUSH2 0x126A PUSH1 0x14 DUP4 PUSH2 0x11B7 JUMP JUMPDEST SWAP2 POP PUSH2 0x1275 DUP3 PUSH2 0x1234 JUMP JUMPDEST PUSH1 0x20 DUP3 ADD SWAP1 POP SWAP2 SWAP1 POP JUMP JUMPDEST PUSH1 0x0 PUSH1 0x20 DUP3 ADD SWAP1 POP DUP2 DUP2 SUB PUSH1 0x0 DUP4 ADD MSTORE PUSH2 0x1299 DUP2 PUSH2 0x125D JUMP JUMPDEST SWAP1 POP SWAP2 SWAP1 POP JUMP JUMPDEST PUSH32 0x4E487B7100000000000000000000000000000000000000000000000000000000 PUSH1 0x0 MSTORE PUSH1 0x11 PUSH1 0x4 MSTORE PUSH1 0x24 PUSH1 0x0 REVERT JUMPDEST PUSH1 0x0 PUSH2 0x12DA DUP3 PUSH2 0x10C9 JUMP JUMPDEST SWAP2 POP PUSH2 0x12E5 DUP4 PUSH2 0x10C9 JUMP JUMPDEST SWAP3 POP DUP3 DUP3 MUL PUSH2 0x12F3 DUP2 PUSH2 0x10C9 JUMP JUMPDEST SWAP2 POP DUP3 DUP3 DIV DUP5 EQ DUP4 ISZERO OR PUSH2 0x130A JUMPI PUSH2 0x1309 PUSH2 0x12A0 JUMP JUMPDEST JUMPDEST POP SWAP3 SWAP2 POP POP JUMP JUMPDEST PUSH1 0x0 PUSH2 0x131C DUP3 PUSH2 0x10C9 JUMP JUMPDEST SWAP2 POP PUSH2 0x1327 DUP4 PUSH2 0x10C9 JUMP JUMPDEST SWAP3 POP DUP3 DUP3 ADD SWAP1 POP DUP1 DUP3 GT ISZERO PUSH2 0x133F JUMPI PUSH2 0x133E PUSH2 0x12A0 JUMP JUMPDEST JUMPDEST SWAP3 SWAP2 POP POP JUMP JUMPDEST PUSH32 0x596F7520617265206E6F74207468652073656C6C657200000000000000000000 PUSH1 0x0 DUP3 ADD MSTORE POP JUMP JUMPDEST PUSH1 0x0 PUSH2 0x137B PUSH1 0x16 DUP4 PUSH2 0x11B7 JUMP JUMPDEST SWAP2 POP PUSH2 0x1386 DUP3 PUSH2 0x1345 JUMP JUMPDEST PUSH1 0x20 DUP3 ADD SWAP1 POP SWAP2 SWAP1 POP JUMP JUMPDEST PUSH1 0x0 PUSH1 0x20 DUP3 ADD SWAP1 POP DUP2 DUP2 SUB PUSH1 0x0 DUP4 ADD MSTORE PUSH2 0x13AA DUP2 PUSH2 0x136E JUMP JUMPDEST SWAP1 POP SWAP2 SWAP1 POP JUMP JUMPDEST PUSH32 0x596F7520617265206E6F74207468652062757965720000000000000000000000 PUSH1 0x0 DUP3 ADD MSTORE POP JUMP JUMPDEST PUSH1 0x0 PUSH2 0x13E7 PUSH1 0x15 DUP4 PUSH2 0x11B7 JUMP JUMPDEST SWAP2 POP PUSH2 0x13F2 DUP3 PUSH2 0x13B1 JUMP JUMPDEST PUSH1 0x20 DUP3 ADD SWAP1 POP SWAP2 SWAP1 POP JUMP JUMPDEST PUSH1 0x0 PUSH1 0x20 DUP3 ADD SWAP1 POP DUP2 DUP2 SUB PUSH1 0x0 DUP4 ADD MSTORE PUSH2 0x1416 DUP2 PUSH2 0x13DA JUMP JUMPDEST SWAP1 POP SWAP2 SWAP1 POP JUMP JUMPDEST PUSH32 0x4A757374206275796572206F722073656C6C65722063616E2077697468647261 PUSH1 0x0 DUP3 ADD MSTORE PUSH32 0x7700000000000000000000000000000000000000000000000000000000000000 PUSH1 0x20 DUP3 ADD MSTORE POP JUMP JUMPDEST PUSH1 0x0 PUSH2 0x1479 PUSH1 0x21 DUP4 PUSH2 0x11B7 JUMP JUMPDEST SWAP2 POP PUSH2 0x1484 DUP3 PUSH2 0x141D JUMP JUMPDEST PUSH1 0x40 DUP3 ADD SWAP1 POP SWAP2 SWAP1 POP JUMP JUMPDEST PUSH1 0x0 PUSH1 0x20 DUP3 ADD SWAP1 POP DUP2 DUP2 SUB PUSH1 0x0 DUP4 ADD MSTORE PUSH2 0x14A8 DUP2 PUSH2 0x146C JUMP JUMPDEST SWAP1 POP SWAP2 SWAP1 POP JUMP JUMPDEST PUSH32 0x4F6E6C79207468652073656C6C6572206F722062757965722063616E20646570 PUSH1 0x0 DUP3 ADD MSTORE PUSH32 0x6F7369742066756E647300000000000000000000000000000000000000000000 PUSH1 0x20 DUP3 ADD MSTORE POP JUMP JUMPDEST PUSH1 0x0 PUSH2 0x150B PUSH1 0x2A DUP4 PUSH2 0x11B7 JUMP JUMPDEST SWAP2 POP PUSH2 0x1516 DUP3 PUSH2 0x14AF JUMP JUMPDEST PUSH1 0x40 DUP3 ADD SWAP1 POP SWAP2 SWAP1 POP JUMP JUMPDEST PUSH1 0x0 PUSH1 0x20 DUP3 ADD SWAP1 POP DUP2 DUP2 SUB PUSH1 0x0 DUP4 ADD MSTORE PUSH2 0x153A DUP2 PUSH2 0x14FE JUMP JUMPDEST SWAP1 POP SWAP2 SWAP1 POP JUMP JUMPDEST PUSH32 0x5265656E7472616E637947756172643A207265656E7472616E742063616C6C00 PUSH1 0x0 DUP3 ADD MSTORE POP JUMP JUMPDEST PUSH1 0x0 PUSH2 0x1577 PUSH1 0x1F DUP4 PUSH2 0x11B7 JUMP JUMPDEST SWAP2 POP PUSH2 0x1582 DUP3 PUSH2 0x1541 JUMP JUMPDEST PUSH1 0x20 DUP3 ADD SWAP1 POP SWAP2 SWAP1 POP JUMP JUMPDEST PUSH1 0x0 PUSH1 0x20 DUP3 ADD SWAP1 POP DUP2 DUP2 SUB PUSH1 0x0 DUP4 ADD MSTORE PUSH2 0x15A6 DUP2 PUSH2 0x156A JUMP JUMPDEST SWAP1 POP SWAP2 SWAP1 POP JUMP JUMPDEST PUSH32 0x4E487B7100000000000000000000000000000000000000000000000000000000 PUSH1 0x0 MSTORE PUSH1 0x12 PUSH1 0x4 MSTORE PUSH1 0x24 PUSH1 0x0 REVERT JUMPDEST PUSH1 0x0 PUSH2 0x15E7 DUP3 PUSH2 0x10C9 JUMP JUMPDEST SWAP2 POP PUSH2 0x15F2 DUP4 PUSH2 0x10C9 JUMP JUMPDEST SWAP3 POP DUP3 PUSH2 0x1602 JUMPI PUSH2 0x1601 PUSH2 0x15AD JUMP JUMPDEST JUMPDEST DUP3 DUP3 DIV SWAP1 POP SWAP3 SWAP2 POP POP JUMP JUMPDEST PUSH1 0x0 PUSH2 0x1618 DUP3 PUSH2 0x10C9 JUMP JUMPDEST SWAP2 POP PUSH2 0x1623 DUP4 PUSH2 0x10C9 JUMP JUMPDEST SWAP3 POP DUP3 DUP3 SUB SWAP1 POP DUP2 DUP2 GT ISZERO PUSH2 0x163B JUMPI PUSH2 0x163A PUSH2 0x12A0 JUMP JUMPDEST JUMPDEST SWAP3 SWAP2 POP POP JUMP INVALID LOG2 PUSH5 0x6970667358 0x22 SLT KECCAK256 JUMPI 0xEE SWAP4 0x4D SWAP5 0xBA 0x1F 0xF6 0xD6 STATICCALL 0x5F 0xBE SLOAD 0xAA SLT GASPRICE DUP4 0xC4 DUP3 SUB 0xE3 PUSH23 0x5FFCDCEBDAF5FD03C57864736F6C634300081200330000 "
		},
		"gasEstimates": {
			"creation": {
				"codeDepositCost": "1150200",
				"executionCost": "infinite",
				"totalCost": "infinite"
			},
			"external": {
				"": "2153",
				"buyerBalance()": "2517",
				"buyerPreAgreementAmount()": "2496",
				"contractBalance()": "2474",
				"daysForWithdrawal()": "2540",
				"deposit(address)": "infinite",
				"endDate()": "2451",
				"returnBuyer()": "2567",
				"returnBuyerBalance()": "2460",
				"returnBuyerPreAgreementAmount()": "2526",
				"returnDaysForWithdrawal()": "2483",
				"returnEndDate()": "2505",
				"returnSecurityDeposit()": "2503",
				"returnSeller()": "2633",
				"returnSellerBalance()": "2527",
				"returnSellerPreAgreementAmount()": "2481",
				"securityDeposit()": "2453",
				"sellerBalance()": "2452",
				"sellerPreAgreementAmount()": "2518",
				"withdraw(address)": "infinite"
			}
		},
		"methodIdentifiers": {
			"buyerBalance()": "e6cdc708",
			"buyerPreAgreementAmount()": "99dc2df3",
			"contractBalance()": "8b7afe2e",
			"daysForWithdrawal()": "6d5e7a15",
			"deposit(address)": "f340fa01",
			"endDate()": "c24a0f8b",
			"returnBuyer()": "4ce9e6de",
			"returnBuyerBalance()": "4680dd2f",
			"returnBuyerPreAgreementAmount()": "69cf1e90",
			"returnDaysForWithdrawal()": "31658e32",
			"returnEndDate()": "36359265",
			"returnSecurityDeposit()": "db292621",
			"returnSeller()": "ba12a5c5",
			"returnSellerBalance()": "4644803f",
			"returnSellerPreAgreementAmount()": "d0bf21fd",
			"securityDeposit()": "220e5ab3",
			"sellerBalance()": "867a06b3",
			"sellerPreAgreementAmount()": "a7245b6e",
			"withdraw(address)": "51cff8d9"
		}
	},
	"abi": [
		{
			"inputs": [
				{
					"internalType": "address payable",
					"name": "_seller",
					"type": "address"
				},
				{
					"internalType": "address payable",
					"name": "_buyer",
					"type": "address"
				},
				{
					"internalType": "uint256",
					"name": "_securityDeposit",
					"type": "uint256"
				},
				{
					"internalType": "uint256",
					"name": "_sellerPreAgreementAmount",
					"type": "uint256"
				},
				{
					"internalType": "uint256",
					"name": "_buyerPreAgreementAmount",
					"type": "uint256"
				},
				{
					"internalType": "uint256",
					"name": "_endDate",
					"type": "uint256"
				},
				{
					"internalType": "uint256",
					"name": "_daysForWithdrawal",
					"type": "uint256"
				},
				{
					"internalType": "address",
					"name": "_feeaddress",
					"type": "address"
				}
			],
			"stateMutability": "nonpayable",
			"type": "constructor"
		},
		{
			"anonymous": false,
			"inputs": [
				{
					"indexed": true,
					"internalType": "address",
					"name": "contractAddress",
					"type": "address"
				},
				{
					"indexed": true,
					"internalType": "address",
					"name": "from",
					"type": "address"
				},
				{
					"indexed": false,
					"internalType": "uint256",
					"name": "amount",
					"type": "uint256"
				}
			],
			"name": "Deposit",
			"type": "event"
		},
		{
			"anonymous": false,
			"inputs": [
				{
					"indexed": true,
					"internalType": "address",
					"name": "depositor",
					"type": "address"
				},
				{
					"indexed": false,
					"internalType": "uint256",
					"name": "amount",
					"type": "uint256"
				}
			],
			"name": "FundsDeposited",
			"type": "event"
		},
		{
			"stateMutability": "payable",
			"type": "fallback"
		},
		{
			"inputs": [],
			"name": "buyerBalance",
			"outputs": [
				{
					"internalType": "uint256",
					"name": "",
					"type": "uint256"
				}
			],
			"stateMutability": "view",
			"type": "function"
		},
		{
			"inputs": [],
			"name": "buyerPreAgreementAmount",
			"outputs": [
				{
					"internalType": "uint256",
					"name": "",
					"type": "uint256"
				}
			],
			"stateMutability": "view",
			"type": "function"
		},
		{
			"inputs": [],
			"name": "contractBalance",
			"outputs": [
				{
					"internalType": "uint256",
					"name": "",
					"type": "uint256"
				}
			],
			"stateMutability": "view",
			"type": "function"
		},
		{
			"inputs": [],
			"name": "daysForWithdrawal",
			"outputs": [
				{
					"internalType": "uint256",
					"name": "",
					"type": "uint256"
				}
			],
			"stateMutability": "view",
			"type": "function"
		},
		{
			"inputs": [
				{
					"internalType": "address",
					"name": "_user",
					"type": "address"
				}
			],
			"name": "deposit",
			"outputs": [],
			"stateMutability": "payable",
			"type": "function"
		},
		{
			"inputs": [],
			"name": "endDate",
			"outputs": [
				{
					"internalType": "uint256",
					"name": "",
					"type": "uint256"
				}
			],
			"stateMutability": "view",
			"type": "function"
		},
		{
			"inputs": [],
			"name": "returnBuyer",
			"outputs": [
				{
					"internalType": "address",
					"name": "",
					"type": "address"
				}
			],
			"stateMutability": "view",
			"type": "function"
		},
		{
			"inputs": [],
			"name": "returnBuyerBalance",
			"outputs": [
				{
					"internalType": "uint256",
					"name": "",
					"type": "uint256"
				}
			],
			"stateMutability": "view",
			"type": "function"
		},
		{
			"inputs": [],
			"name": "returnBuyerPreAgreementAmount",
			"outputs": [
				{
					"internalType": "uint256",
					"name": "",
					"type": "uint256"
				}
			],
			"stateMutability": "view",
			"type": "function"
		},
		{
			"inputs": [],
			"name": "returnDaysForWithdrawal",
			"outputs": [
				{
					"internalType": "uint256",
					"name": "",
					"type": "uint256"
				}
			],
			"stateMutability": "view",
			"type": "function"
		},
		{
			"inputs": [],
			"name": "returnEndDate",
			"outputs": [
				{
					"internalType": "uint256",
					"name": "",
					"type": "uint256"
				}
			],
			"stateMutability": "view",
			"type": "function"
		},
		{
			"inputs": [],
			"name": "returnSecurityDeposit",
			"outputs": [
				{
					"internalType": "uint256",
					"name": "",
					"type": "uint256"
				}
			],
			"stateMutability": "view",
			"type": "function"
		},
		{
			"inputs": [],
			"name": "returnSeller",
			"outputs": [
				{
					"internalType": "address",
					"name": "",
					"type": "address"
				}
			],
			"stateMutability": "view",
			"type": "function"
		},
		{
			"inputs": [],
			"name": "returnSellerBalance",
			"outputs": [
				{
					"internalType": "uint256",
					"name": "",
					"type": "uint256"
				}
			],
			"stateMutability": "view",
			"type": "function"
		},
		{
			"inputs": [],
			"name": "returnSellerPreAgreementAmount",
			"outputs": [
				{
					"internalType": "uint256",
					"name": "",
					"type": "uint256"
				}
			],
			"stateMutability": "view",
			"type": "function"
		},
		{
			"inputs": [],
			"name": "securityDeposit",
			"outputs": [
				{
					"internalType": "uint256",
					"name": "",
					"type": "uint256"
				}
			],
			"stateMutability": "view",
			"type": "function"
		},
		{
			"inputs": [],
			"name": "sellerBalance",
			"outputs": [
				{
					"internalType": "uint256",
					"name": "",
					"type": "uint256"
				}
			],
			"stateMutability": "view",
			"type": "function"
		},
		{
			"inputs": [],
			"name": "sellerPreAgreementAmount",
			"outputs": [
				{
					"internalType": "uint256",
					"name": "",
					"type": "uint256"
				}
			],
			"stateMutability": "view",
			"type": "function"
		},
		{
			"inputs": [
				{
					"internalType": "address",
					"name": "_user",
					"type": "address"
				}
			],
			"name": "withdraw",
			"outputs": [],
			"stateMutability": "payable",
			"type": "function"
		},
		{
			"stateMutability": "payable",
			"type": "receive"
		}
	]
}